S00F000041544D5F4543552E73726563F7
S11300000C9448000C947B0D0C94B20D0C94E90DE7
S11300100C949F110C9457110C9465000C9465007A
S11300200C9465000C9465000C9465000C946500B8
S11300300C9465000C9465000C9465000C946500A8
S11300400C9465000C9465000C9465000C94650098
S11300500C9465004E414E494E495459494E46CD83
S1130060CCCC3D0AD7233C17B7D13877CC2B32956B
S113007095E6241FB14F0A000020410000C8420049
S1130080401C4620BCBE4CCA1B0E5AAEC59D740013
S113009011241FBECFE5D8E0DEBFCDBF13E0A0E63C
S11300A0B0E0E6E1F2E302C005900D92A03DB10795
S11300B0D9F723E0A0EDB3E001C01D92AB3FB20736
S11300C0E1F70E947E080C9409190C940000CF9368
S11300D0DF93CDB7DEB763E080E00E942A0C6EEEBA
S11300E074E080E00E94530D0E94200E81E00E9483
S11300F09C0E0E94800561E082E00E94FD040E9443
S11301009A050E94BA060E944E088091D0030E946C
S11301108C040000DF91CF910895CF92DF92EF928B
S1130120FF920F931F93CF93DF93CDB7DEB7C954DC
S1130130D1090FB6F894DEBF0FBECDBF8091D003B6
S1130140882F90E08130910509F44FC082309105E9
S113015024F4892B09F4DEC3DEC38230910509F44B
S1130160C0C18A3F910509F0D6C389E592E00E9497
S1130170880760E081E00E94D20785E692E00E9451
S11301808807198289810E94720E8981882F90E0E4
S1130190292F2F938F938FE692E0892F8F938FE6E9
S11301A092E08F93CE014296292F2F938F930E9432
S11301B093140F900F900F900F900F900F906AE090
S11301C081E00E94D207CE0142960E94880789816D
S11301D08F5F898382E390E00E94EE0E89818830EC
S11301E089F619820E948F0ECDCF0E944E081A8282
S11301F0F7C01B820E944E0861E080E00E94D20793
S113020082E792E00E94880766E081E00E94D207BC
S113021081E892E00E94880766E081E00E94D207AC
S113022081E00E9404088FEF8DA335C0CE0185962E
S11302300E941B068DA18F3F89F08B81882F90E04F
S11302404DA19E01295E3F4F820F931FFC01408305
S11302508AE20E9446078B818F5F8B8383E08FA3A2
S1130260CE018796AC0161E082E00E941B058FA15C
S1130270882389F48B81882F90E09E01295E3F4F6B
S1130280820F931F20E3FC0120838AE20E94460729
S11302908B818F5F8B838B81843040F280E00E945E
S11302A0040883E08EA307C0CE018696AC0161E00A
S11302B082E00E941B058EA18230B1F70E944E0895
S11302C062E080E00E94D20786E892E00E948807FC
S11302D01C8208C081EC0E94720E8C8382E390E041
S11302E00E94EE0E8C818A31A9F71C8289E08D83ED
S11302F043C06D8181E00E94D2078EE20E944607CE
S11303008D818F3051F488E08D8369E081E00E9413
S1130310D2078CE992E00E9488078D818F5F8D83DC
S113032082EC0E94720E8C838C81882F90E0813A3B
S1130330910591F0823A910524F4803A910541F0B7
S113034017C0823A910561F0833A910569F010C0B3
S11303508F890E94720E0CC0888D0E94720E08C094
S1130360898D0E94720E04C08A8D0E94720E000054
S113037082E390E00E94EE0E8C81803F21F08C811C
S1130380853F09F0B6CF8C81803F79F18C81853F20
S113039039F58A818F5F8A830E944E088A81882F6B
S11303A090E0292F2F938F9385EA92E0892F8F93E2
S11303B085EA92E08F93CE018896292F2F938F930D
S11303C00E9493140F900F900F900F900F900F9026
S11303D0CE0188960E94880788EE93E00E94EE0E74
S11303E08A81833008F405CF01C000008A818330FC
S11303F020F083E30E948C048EC20E944E0886EB98
S113040092E00E9488071E8208C083EC0E94720E4C
S11304108E8382E390E00E94EE0E8E818A31A9F7EA
S11304201F8208C084EC0E94720E8F8382E390E0E6
S11304300E94EE0E8F818031A8F38F81843190F772
S113044018868CE0898731C0698581E00E94D207D3
S11304508EE20E94460789858F3051F48BE08987AC
S11304606CE081E00E94D20781ED92E00E9488074F
S113047089858F5F8987888580560E94720E8E8356
S11304808E81803370F08E818A3358F48885882F6A
S113049090E08F529C4F2E81FC01208388858F5FD2
S11304A0888782E390E00E94EE0E98858F819817EA
S11304B058F28885882F90E08F529C4FFC0110825F
S11304C01E8208C080EF0E94720E8E8382E390E049
S11304D00E94EE0E8E818A31A9F782E00E948C047C
S11304E01AC281E00E94040864E081E00E94D207FD
S11304F01A8688E0E6EDF2E0DE015C9601900D924A
S11305008A95E1F78FEF8CA35FC0CE0184960E9499
S11305101B068CA18F3FE1F08CA10E9446078A85BF
S1130520882F90E04CA19E01245E3F4F820F931FC1
S1130530FC0140838A85833041F48A858E5F8A87F3
S113054069E081E00E94D20703C08A858F5F8A87B1
S113055083E088AFCE01C896AC0161E082E00E94DE
S11305601B0588AD8823E9F480E30E9446078A8549
S1130570882F90E09E01245E3F4F820F931F20E35B
S1130580FC0120838A85833041F48A858E5F8A87C3
S113059069E081E00E94D2070FC08A858F5F8A8755
S11305A00BC088AD823041F4CE014C9666ED72E00A
S11305B00E948A14892B69F48A85873029F41A8663
S11305C064E081E00E94D2078A85873008F49DCFD9
S11305D001C0000080E00E9404080E9404060E94FA
S11305E04E0861E080E00E94D2078EED92E00E9406
S11305F088078CEB92E00E94EE0E1B861C861D86FB
S11306001BC08D85282F30E049E1429FC001439FE4
S1130610900D11240596805A9F4FBC0181ED93E003
S11306200E948A14892B29F481E08B878D858C871D
S113063006C08D858F5F8D878D85843110F30E9470
S11306405B088B85882361F460E080E00E94D20718
S11306508DEE92E00E94880783E30E948C045BC1C4
S11306608C85282F30E049E1429FC001439F900DC3
S113067011248C599F4FFC018081813061F460E02A
S113068080E00E94D2078EEF92E00E94880783E305
S11306900E948C0440C1CE014C960E948614DC0159
S11306A0CB018E879F87A88BB98B80915402909140
S11306B05502A0915602B09157029C01AD016E857E
S11306C07F85888999890E941414181694F40E94CD
S11306D04E0860E080E00E94D2078FE093E00E9421
S11306E0880788EE93E00E94EE0E82E00E948C045C
S11306F012C18C85282F30E049E1429FC001439FFD
S1130700900D1124805A9F4FFC0180819181A28118
S1130710B3812E853F8548895989BC01CD010E944A
S11307207412882394F40E944E0860E080E00E94D2
S1130730D20785E293E00E94880788EE93E00E9446
S1130740EE0E82E00E948C04E6C08C85082F10E037
S11307508C85282F30E049E1429FC001439F900DD2
S11307601124805A9F4FFC0180819181A281B38121
S11307702E853F8548895989BC01CD010E94F0111D
S1130780DC01CB0149E1409F9001419F300D1124D0
S1130790205A3F4FF90180839183A283B3830E943F
S11307A04E0864E080E00E94D20788E393E00E9450
S11307B0880762E081E00E94D20781E493E00E940E
S11307C0880788EE93E00E94EE0E0E944E0862E0D5
S11307D080E00E94D2078C85282F30E049E1429FB7
S11307E0C001439F900D1124805A9F4FFC01C0808B
S11307F0D180E280F3808C85282F30E049E1429F4C
S1130800C001439F900D1124805A9F4FFC018081A9
S11308109181A281B381BC01CD010E94EB12DC0164
S1130820CB01BC01CD010E942313DC01CB019C014F
S1130830AD01C701B6010E94F011DC01CB0120E03B
S113084030E048EC52E4BC01CD010E941914DC01F3
S1130850CB01BC01CD010E94F212DC01CB01082FB7
S113086010E08C85282F30E049E1429FC001439F6E
S1130870900D1124805A9F4FFC0180819181A281A7
S1130880B381BC01CD010E94EB12DC01CB01212F0D
S11308902F93202F2F932B2F2F932A2F2F93292FF2
S11308A02F938F938DE493E0892F8F938DE493E0BE
S11308B08F93CE01C996292F2F938F930E9493145F
S11308C08DB79EB70A960FB6F894DEBF0FBECDBFA4
S11308D0CE01C9960E94880788EE93E00E94EE0E2E
S11308E00E944E0864E080E00E94D20785E693E00F
S11308F00E94880766E081E00E94D2078EE693E0BA
S11309000E94880788EE93E00E94EE0E80E00E9429
S11309108C0401C0000012CCCF93DF931F92CDB79B
S1130920DEB789838981882F90E08230910549F16F
S113093083339105D9F1892B09F047C00E944E08F1
S11309400E94DE0561E080E00E94D20783E793E025
S11309500E94880761E081E00E94D20782E893E068
S11309600E94880788EE93E00E94EE0E0E944E08D3
S113097062E080E00E94D20781E993E00E94880748
S113098025C00E94DE050E944E0862E080E00E94BD
S1130990D2078DE993E00E94880764E081E00E9419
S11309A0D20786ED92E00E94880710C060E081E0E3
S11309B00E94D2078AEA93E00E94880780E00E949E
S11309C046070E9404060E948D05000089818093D9
S11309D0D00300000F90DF91CF910895CF93DF9360
S11309E0CDB7DEB78091D003882319F481E08093DA
S11309F0D0030000DF91CF910895CF93DF9300D00F
S1130A00CDB7DEB789836A8340E06A8189810E9419
S1130A108B08882351F481E00E949C0E41E06A8196
S1130A2089810E94320A81E001C080E00F900F901A
S1130A30DF91CF910895CF93DF93CDB7DEB727979A
S1130A400FB6F894DEBF0FBECDBF8C836D835F837A
S1130A504E838C81883008F049C08D81843008F041
S1130A6045C08E819F81892B09F440C01B821A8264
S1130A701982CE010396AC016D818C810E94830999
S1130A808B81813061F527C082E390E00E94EE0EF5
S1130A9089819A81C2969A838983CE010396AC0197
S1130AA06D818C810E9483098B81882349F489811B
S1130AB09A81803D974020F48E819F81FC011082B1
S1130AC089819A81813D974030F08E819F8122E017
S1130AD0FC01208309C08B818823B1F605C08E8177
S1130AE09F8123E0FC01208381E001C080E0279600
S1130AF00FB6F894DEBF0FBECDBFDF91CF9108953E
S1130B00CF93DF93CDB7DEB741E061E083E00E948D
S1130B108B080000DF91CF910895CF93DF93CDB779
S1130B20DEB741E061E083E00E94320A0000DF9119
S1130B30CF910895CF93DF93CDB7DEB741E062E064
S1130B4082E00E948B0841E062E083E00E948B080F
S1130B5041E062E084E00E948B0840E062E085E0CE
S1130B600E948B0840E062E086E00E948B0840E02F
S1130B7062E087E00E948B0841E062E082E00E942C
S1130B80320A41E062E083E00E94320A41E062E01E
S1130B9084E00E94320A41E062E085E00E94320A69
S1130BA041E062E086E00E94320A41E062E087E0D0
S1130BB00E94320A0000DF91CF910895CF93DF9312
S1130BC0CDB7DEB741E062E082E00E948B0841E0ED
S1130BD062E083E00E948B0841E062E084E00E94CE
S1130BE08B0841E062E082E00E94320A41E062E068
S1130BF083E00E94320A41E062E084E00E94320A0B
S1130C000000DF91CF910895CF93DF93CDB7DEB786
S1130C1040E062E082E00E948B0840E062E083E012
S1130C200E948B0840E062E084E00E948B08000090
S1130C30DF91CF910895CF93DF93CDB7DEB7279798
S1130C400FB6F894DEBF0FBECDBF9F838E8381E0C5
S1130C5089838E819F81892B09F47FC01A828E81BA
S1130C609F812FEFFC0120831B8272C08B81882F10
S1130C7090E086539C4FFC01808140E062E00E943A
S1130C80320A1C8250C08C81882F90E083539C4F81
S1130C90FC012081CE010596AC0162E0822F0E9406
S1130CA083098D818823E1F584E190E00E94EE0EB2
S1130CB08C81882F90E083539C4FFC012081CE01CE
S1130CC00596AC0162E0822F0E9483090EC08C81DC
S1130CD0882F90E083539C4FFC012081CE01059620
S1130CE0AC0162E0822F0E9483098D81882379F30D
S1130CF08B81282F30E08C81482F50E0C901880F68
S1130D00991F820F931F840F951F8F539C4FFC01D3
S1130D1020818E819F81FC01208381E08A8307C02A
S1130D208C818F5F8C838C81833008F4ACCF8B8172
S1130D30882F90E086539C4FFC01808141E062E063
S1130D400E94320A8A81813051F08B818F5F8B83BC
S1130D508B81833008F48ACF03C0198201C000005C
S1130D60898127960FB6F894DEBF0FBECDBFDF9101
S1130D70CF910895CF93DF93CDB7DEB728970FB601
S1130D80F894DEBF0FBECDBF4FEF6FEF80E00E943F
S1130D90500B4FEF60E080E00E94BD0B81E00E94A9
S1130DA09C0E8AE090E00E94EE0E82E00E9405070D
S1130DB088E20E9405078CE00E94050786E00E94F5
S1130DC0050781E00E94050782E090E00E94EE0E94
S1130DD028E0E9EBF3E0CE010196DC0101900D92ED
S1130DE02A95E1F760E0CE0101960E94170882E09F
S1130DF090E00E94EE0E000028960FB6F894DEBF35
S1130E000FBECDBFDF91CF910895CF93DF931F9293
S1130E10CDB7DEB7898340E060E081E00E94320A0A
S1130E2040EF698180E00E94BD0B41E060E083E017
S1130E300E94320A81E090E00E94221040E060E0CB
S1130E4083E00E94320A88EC90E00E94221089819B
S1130E508295807F40EF682F80E00E94BD0B41E0C7
S1130E6060E083E00E94320A81E090E00E94221058
S1130E7040E060E083E00E94320A82E090E00E9459
S1130E80EE0E00000F90DF91CF910895CF93DF9382
S1130E901F92CDB7DEB7898341E060E081E00E9414
S1130EA0320A40E060E083E00E94320A40EF698148
S1130EB080E00E94BD0B41E060E083E00E94320AC2
S1130EC081E090E00E94221040E060E083E00E9414
S1130ED0320A89818295807F40EF682F80E00E94EA
S1130EE0BD0B41E060E083E00E94320A81E090E0C3
S1130EF00E94221040E060E083E00E94320A89E10F
S1130F0090E00E94EE0E00000F90DF91CF910895C3
S1130F10CF93DF9300D0CDB7DEB79A83898336C0F1
S1130F2089819A81FC0180818A3079F49091E5036A
S1130F3081E0903108F080E060E00E94D20789816E
S1130F409A8101969A83898321C089819A81FC01BF
S1130F5080810E94460789819A8101969A838983B8
S1130F608091E5038F5F8093E5038091E5038031F1
S1130F7029F460E081E00E94D20708C08091E50373
S1130F80803221F460E080E00E94D20789819A8156
S1130F90FC018081882321F600000F900F90DF91DF
S1130FA0CF910895CF93DF9300D000D0CDB7DEB7B3
S1130FB08B836C838B81823018F48C81803110F0A8
S1130FC080E01BC080E8898380EC8A838B81882F32
S1130FD090E09E012F5F3F4F820F931FFC01908191
S1130FE08C81890F0E9405078B81982F9295907FA1
S1130FF08C81890F8093E50381E00F900F900F900F
S11310000F90DF91CF910895CF93DF931F92CDB7C7
S1131010DEB789838981882311F08EE001C08CE0DA
S11310200E94050700000F90DF91CF910895CF93A0
S1131030DF9300D000D01F92CDB7DEB79C838B83A3
S11310406D838D81893010F080E020C08D81882FE0
S113105090E00896880F880F880F0E9405071A826F
S113106019820FC089819A812B813C81820F931F41
S1131070FC0180810E94460789819A8101969A83A6
S1131080898389819A8108976CF381E00F900F908E
S11310900F900F900F90DF91CF910895CF93DF932E
S11310A0CDB7DEB781E00E9405071092E50300008A
S11310B0DF91CF910895CF93DF9300D0CDB7DEB702
S11310C01A8219820CC08CE10E94050784E190E029
S11310D00E94EE0E89819A8101969A83898389817F
S11310E09A81409784F381E00E9405071092E503FA
S11310F000000F900F90DF91CF910895CF93DF936D
S1131100CDB7DEB70E9467000E948D0080E090E0BA
S1131110DF91CF910895CF93DF9300D01F92CDB785
S1131120DEB789836A834B838981883010F081E03C
S1131130E4C08A81882F90E08130910509F441C090
S1131140823091051CF4892B49F0D4C0823091057A
S113115009F46AC0039709F49AC0CCC08B8181302A
S1131160A9F48AE390E02AE330E0F9012081622FB8
S11311702981422F50E021E030E002C0220F331FCA
S11311804A95E2F7262BFC012083B6C08B81882385
S1131190B1F48AE390E02AE330E0F9012081622F80
S11311A02981422F50E021E030E002C0220F331F9A
S11311B04A95E2F720952623FC0120839DC081E017
S11311C09CC08B818130A9F487E390E027E330E071
S11311D0F9012081622F2981422F50E021E030E083
S11311E002C0220F331F4A95E2F7262BFC0120830D
S11311F083C08B818823B1F487E390E027E330E058
S1131200F9012081622F2981422F50E021E030E052
S113121002C0220F331F4A95E2F720952623FC01D2
S113122020836AC081E069C08B818130A9F484E3A2
S113123090E024E330E0F9012081622F2981422FDC
S113124050E021E030E002C0220F331F4A95E2F75C
S1131250262BFC01208350C08B818823B1F484E3C6
S113126090E024E330E0F9012081622F2981422FAC
S113127050E021E030E002C0220F331F4A95E2F72C
S113128020952623FC01208337C081E036C08B8162
S11312908130A9F481E390E021E330E0F901208179
S11312A0622F2981422F50E021E030E002C0220F5A
S11312B0331F4A95E2F7262BFC0120831DC08B8146
S11312C08823B1F481E390E021E330E0F901208147
S11312D0622F2981422F50E021E030E002C0220F2A
S11312E0331F4A95E2F720952623FC01208304C08E
S11312F081E003C081E001C080E00F900F900F9067
S1131300DF91CF910895CF93DF9300D000D0CDB774
S1131310DEB789836A835C834B838981883010F0CC
S113132081E099C08A81882F90E08130910579F11C
S1131330823091051CF4892B49F08CC082309105D0
S113134009F446C0039709F464C084C089E390E0BB
S1131350FC018081282F30E08981482F50E081E012
S113136090E002C0880F991F4A95E2F782239323E5
S11313702981222F30E002C0959587952A95E2F7BE
S1131380282F8B819C81FC01208380E064C086E34C
S113139090E0FC018081282F30E08981482F50E0C3
S11313A081E090E002C0880F991F4A95E2F78223FA
S11313B093232981222F30E002C0959587952A95A1
S11313C0E2F7282F8B819C81FC01208380E043C0BD
S11313D083E390E0FC018081282F30E08981482F4D
S11313E050E081E090E002C0880F991F4A95E2F72F
S11313F0822393232981222F30E002C0959587957B
S11314002A95E2F7282F8B819C81FC01208380E0C0
S113141022C080E390E0FC018081282F30E08981A4
S1131420482F50E081E090E002C0880F991F4A9550
S1131430E2F7822393232981222F30E002C095957D
S113144087952A95E2F7282F8B819C81FC012083C4
S113145080E001C081E00F900F900F900F90DF911A
S1131460CF910895CF93DF9300D01F92CDB7DEB70D
S113147089836A834B838981883010F081E00AC1B3
S11314808A81882F90E08130910509F44BC0823025
S113149091051CF4892B49F0FCC08230910509F4B4
S11314A07EC0039709F4B8C0F4C08B81813019F071
S11314B08B818823A1F58B818823C1F02BE330E055
S11314C08BE390E0FC0160818981482F50E081E04A
S11314D090E0A0E0B0E004C0880F991FAA1FBB1FD2
S11314E04A95D2F7862BF90180831BC02BE330E0A9
S11314F08BE390E0FC0160818981482F50E081E01A
S113150090E0A0E0B0E004C0880F991FAA1FBB1FA1
S11315104A95D2F780958623F901808302C081E041
S1131520B9C0B7C08B81813019F08B818823A1F5B4
S11315308B818823C1F028E330E088E390E0FC014C
S113154060818981482F50E081E090E0A0E0B0E024
S113155004C0880F991FAA1FBB1F4A95D2F7862B78
S1131560F90180831BC028E330E088E390E0FC01AC
S113157060818981482F50E081E090E0A0E0B0E0F4
S113158004C0880F991FAA1FBB1F4A95D2F78095E4
S11315908623F901808302C081E07CC07AC08B81FC
S11315A0813019F08B818823A1F58B818823C1F0C8
S11315B025E330E085E390E0FC0160818981482FD8
S11315C050E081E090E0A0E0B0E004C0880F991FF3
S11315D0AA1FBB1F4A95D2F7862BF90180831BC033
S11315E025E330E085E390E0FC0160818981482FA8
S11315F050E081E090E0A0E0B0E004C0880F991FC3
S1131600AA1FBB1F4A95D2F780958623F9018083D0
S113161002C081E03FC03DC08B81813019F08B81D5
S11316208823A1F58B818823C1F022E330E082E393
S113163090E0FC0160818981482F50E081E090E0D6
S1131640A0E0B0E004C0880F991FAA1FBB1F4A95F1
S1131650D2F7862BF90180831BC022E330E082E3BA
S113166090E0FC0160818981482F50E081E090E0A6
S1131670A0E0B0E004C0880F991FAA1FBB1F4A95C1
S1131680D2F780958623F901808302C081E002C0ED
S1131690000080E00F900F900F90DF91CF9108959C
S11316A0CF93DF9300D01F92CDB7DEB789836A83CF
S11316B04B838B81882311F48FEF8B838981882F4F
S11316C090E081309105E9F0823091051CF4892B7A
S11316D039F04AC08230910529F10397A1F144C041
S11316E08AE390E02B81422F40952AE330E0F90110
S11316F0208124234B813A813423232BFC01208332
S113170035C087E390E02B81422F409527E330E0FA
S1131710F901208124234B813A813423232BFC01BA
S1131720208324C084E390E02B81422F409524E35E
S113173030E0F901208124234B813A813423232B87
S1131740FC01208313C081E390E02B81422F40955C
S113175021E330E0F901208124234B813A813423B1
S1131760232BFC01208302C081E001C080E00F90A4
S11317700F900F90DF91CF910895CF93DF9300D016
S11317801F92CDB7DEB789836A834B838B8188230D
S113179011F48FEF8B838981882F90E0813091053C
S11317A0E9F0823091051CF4892B39F04AC082306B
S11317B0910529F10397A1F144C08BE390E02B81BB
S11317C0422F40952BE330E0F901208124234B8103
S11317D03A813423232BFC01208335C088E390E035
S11317E02B81422F409528E330E0F9012081242306
S11317F04B813A813423232BFC01208324C085E3CD
S113180090E02B81422F409525E330E0F9012081BF
S113181024234B813A813423232BFC01208313C0DE
S113182082E390E02B81422F409522E330E0F901DE
S1131830208124234B813A813423232BFC012083F0
S113184002C081E001C080E00F900F900F90DF9103
S1131850CF910895CF93DF9300D01F92CDB7DEB719
S11318608A836B8381E089838A81833008F013C182
S11318708B81843008F00FC18FE590E02FE530E0D4
S1131880F90120812068FC0120838A81882F90E05F
S11318908130910509F46FC08230910509F4D3C0F9
S11318A0892B09F0F9C08BE590E02BE530E0F901D4
S11318B020812064FC0120838B81882F90E081307B
S11318C09105F9F0823091051CF4892B39F0E2C0BE
S11318D08230910549F10397D1F1DCC085E590E0B0
S11318E025E530E0F90120812E7FFC01208385E588
S11318F090E025E530E0F90120812D7FFC01208373
S113190039C085E590E025E530E0F90120812160CA
S1131910FC01208385E590E025E530E0F901208194
S11319202D7FFC01208326C085E590E025E530E08D
S1131930F90120812E7FFC01208385E590E025E5D7
S113194030E0F90120812260FC01208313C085E589
S113195090E025E530E0F90120812160FC0120833D
S113196085E590E025E530E0F90120812260FC0165
S1131970208300008FC08BE590E02BE530E0F90177
S113198020812068FC0120838B81882F90E08130A6
S11319909105F9F0823091051CF4892B39F07AC055
S11319A08230910549F10397D1F174C085E590E047
S11319B025E530E0F90120812B7FFC01208385E5BA
S11319C090E025E530E0F9012081277FFC012083A8
S11319D039C085E590E025E530E0F90120812460F7
S11319E0FC01208385E590E025E530E0F9012081C4
S11319F0277FFC01208326C085E590E025E530E0C3
S1131A00F90120812B7FFC01208385E590E025E509
S1131A1030E0F90120812860FC01208313C085E5B2
S1131A2090E025E530E0F90120812460FC01208369
S1131A3085E590E025E530E0F90120812860FC018E
S1131A402083000027C08BE590E02BE530E0F9010E
S1131A5020812062FC0120838B81882F90E08230DA
S1131A60910519F0039759F014C084E590E024E53A
S1131A7030E0F90120812F7BFC0120830AC084E53A
S1131A8090E024E530E0F90120812064FC0120830A
S1131A900000000001C0198289810F900F900F90FF
S1131AA0DF91CF910895CF93DF9300D000D0CDB7CD
S1131AB0DEB78A837C836B8381E089838A81833068
S1131AC088F48B819C81892B69F08A81882F90E02E
S1131AD0880F991F8A519C4F2B813C81FC013183D3
S1131AE0208301C0198289810F900F900F900F906D
S1131AF0DF91CF9108951F920F9200905F000F9293
S1131B0011242F933F934F935F936F937F938F93FE
S1131B109F93AF93BF93EF93FF93CF93DF93CDB78F
S1131B20DEB78091E6039091E703892B31F0809131
S1131B30E6039091E703FC0109950000DF91CF9142
S1131B40FF91EF91BF91AF919F918F917F916F9191
S1131B505F914F913F912F910F9000925F000F90F2
S1131B601F9018951F920F9200905F000F921124FE
S1131B702F933F934F935F936F937F938F939F9391
S1131B80AF93BF93EF93FF93CF93DF93CDB7DEB7BC
S1131B908091E8039091E903892B31F08091E80367
S1131BA09091E903FC0109950000DF91CF91FF9129
S1131BB0EF91BF91AF919F918F917F916F915F91C1
S1131BC04F913F912F910F9000925F000F901F90C3
S1131BD018951F920F9200905F000F9211242F937B
S1131BE03F934F935F936F937F938F939F93AF93A1
S1131BF0BF93EF93FF93CF93DF93CDB7DEB780917D
S1131C00EA039091EB03892B31F08091EA039091E0
S1131C10EB03FC0109950000DF91CF91FF91EF9157
S1131C20BF91AF919F918F917F916F915F914F91F0
S1131C303F912F910F9000925F000F901F90189585
S1131C40CF93DF93CDB7DEB78DE290E02DE230E0A5
S1131C50F90120812F7DFC01208340E061E086E0D2
S1131C600E948B0840EB6FEF81E00E94500B41E033
S1131C7061E084E00E94320A8EE290E02EE230E0DD
S1131C80F90120812E7FFC0120838DE290E02DE27A
S1131C9030E0F90120812160FC0120838DE290E095
S1131CA02DE230E0F90120812D7FFC0120838DE2BB
S1131CB090E02DE230E0F90120812061FC012083D5
S1131CC08DE290E02DE230E0F90120812064FC01F6
S1131CD0208340E061E084E00E94320A0000DF914A
S1131CE0CF910895CF93DF9300D0CDB7DEB78A8329
S1131CF08FE290E02A81FC01208300008EE290E0D4
S1131D00FC0180818823D4F78FE290E0FC0180817C
S1131D10898389810F900F90DF91CF910895CF939C
S1131D20DF93CDB7DEB741E061E084E00E94320A80
S1131D300000DF91CF910895CF93DF931F92CDB729
S1131D40DEB789838981882F90E0009719F0019785
S1131D5041F13DC083E590E023E530E0F9012081C5
S1131D602F7BFC01208383E590E023E530E0F9013B
S1131D702081277FFC0120838FE590E02FE530E070
S1131D80F90120812068FC01208389E590E029E5A0
S1131D9030E0F90120812160FC0120831092580277
S1131DA018C083E590E023E530E0F90120812F7B22
S1131DB0FC01208383E590E023E530E0F9012081F4
S1131DC0277FFC01208381E08093580202C081E0D8
S1131DD001C080E00F90DF91CF9108950F931F937E
S1131DE0CF93DF9300D000D000D0CDB7DEB79E8371
S1131DF08D838091F7039091F803892B51F08091A2
S1131E00F7039091F803FC018081813011F481E0A3
S1131E100EC183E590E0FC0110828D819E81CC018E
S1131E20A0E0B0E0BC01CD010E942113DC01CB0194
S1131E3020E030E04AE754E4BC01CD010E9479126D
S1131E40DC01CB0189839A83AB83BC832DEB37E31D
S1131E5046E85EE369817A818B819C810E947412D9
S1131E6088233CF502E510E029813A814B815C81AD
S1131E706DEB77E386E89EE30E94F011DC01CB0171
S1131E802DEB37E346E85AE3BC01CD010E947912F9
S1131E90DC01CB01BC01CD010E94F212DC01CB01BB
S1131EA0F801808381E090E09093EE038093ED034A
S1131EB086C02DEB37E346E85EE369817A818B8146
S1131EC09C810E947412882359F482E590E0FC01FD
S1131ED0108281E090E09093EE038093ED036FC055
S1131EE02DEB37E346E85EE369817A818B819C813F
S1131EF00E947912DC01CB01BC01CD010E945D126C
S1131F00DC01CB01BC01CD010E94F212DC01CB014A
S1131F109093EE038093ED0302E510E08091ED03CE
S1131F209091EE03CC01A0E0B0E0BC01CD010E9491
S1131F302113DC01CB0120E030E040E85FE3BC0189
S1131F40CD010E94F011DC01CB012DEB37E346E813
S1131F505EE3BC01CD010E941914DC01CB019C019C
S1131F60AD0169817A818B819C810E94F011DC0131
S1131F70CB012DEB37E346E85AE3BC01CD010E94C7
S1131F807912DC01CB019C01AD0160E070E080E8D6
S1131F9093E40E94F011DC01CB01BC01CD010E944D
S1131FA0F212DC01CB01F801808382E590E0FC01B0
S1131FB08081882F90E09093F2038093F103109234
S1131FC0F0031092EF0380E094E00E945D10809192
S1131FD05802813059F51DC0000088E590E0FC01ED
S1131FE08081882F90E081709927892BB1F388E54F
S1131FF090E028E530E0F90120812160FC01208394
S11320008091EF039091F00301969093F0038093F5
S1132010EF032091ED033091EE038091EF03909153
S1132020F00382179307C0F20E94111180E02696F4
S11320300FB6F894DEBF0FBECDBFDF91CF911F91D5
S11320400F910895CF93DF9300D0CDB7DEB79A8375
S1132050898383E590E0FC01108289819A81823032
S1132060910599F08330910518F4019741F01FC050
S11320708A30910581F0883C910599F018C082E579
S113208090E02FEFFC01208312C082E590E02EEF58
S1132090FC0120830CC082E590E025EFFC01208345
S11320A006C082E590E027E3FC012083000080E085
S11320B00F900F90DF91CF910895CF93DF9300D0CD
S11320C0CDB7DEB79A83898389819A81803491055B
S11320D009F44BC08134910530F48130910569F0E5
S11320E0089739F196C0811521E0920709F459C087
S11320F08115944009F471C08CC083E590E023E518
S113210030E0F90120812D7FFC01208383E590E0FC
S113211023E530E0F90120812B7FFC01208383E556
S113212090E023E530E0F90120812160FC01208367
S113213072C083E590E023E530E0F90120812E7F31
S1132140FC01208383E590E023E530E0F901208160
S11321502B7FFC01208383E590E023E530E0F90147
S113216020812260FC01208356C083E590E023E5B2
S113217030E0F90120812B7FFC01208383E590E08E
S113218023E530E0F90120812260FC01208383E50E
S113219090E023E530E0F90120812160FC012083F7
S11321A03AC083E590E023E530E0F90120812D7FFA
S11321B0FC01208383E590E023E530E0F9012081F0
S11321C02E7FFC01208383E590E023E530E0F901D4
S11321D020812460FC0120831EC083E590E023E578
S11321E030E0F90120812D7FFC01208383E590E01C
S11321F023E530E0F90120812460FC01208383E59C
S113220090E023E530E0F90120812160FC01208386
S113221002C081E001C080E00F900F90DF91CF9168
S11322200895CF93DF93CDB7DEB783E590E023E540
S113223030E0F90120812E7FFC01208383E590E0CA
S113224023E530E0F90120812D7FFC01208383E523
S113225090E023E530E0F90120812B7FFC0120830D
S11322600000DF91CF910895CF93DF93CDB7DEB710
S113227085E490E025E430E0F90120812E7FFC0123
S1132280208385E490E025E430E0F90120812D7F6E
S1132290FC01208385E490E025E430E0F90120810D
S11322A02B7FFC0120830000DF91CF9108951F92C2
S11322B00F9200905F000F9211242F933F934F933E
S11322C05F936F937F938F939F93AF93BF93EF939A
S11322D0FF93CF93DF93CDB7DEB78091F303909153
S11322E0F40301969093F4038093F3032091F30392
S11322F03091F4038091F5039091F6032817390780
S113230048F01092F4031092F30381E08093EC03FD
S11323100E9434110000DF91CF91FF91EF91BF91A2
S1132320AF919F918F917F916F915F914F913F9169
S11323302F910F9000925F000F901F9018951F929D
S11323400F9200905F000F9211242F933F934F93AD
S11323505F936F937F938F939F93AF93BF93EF9309
S1132360FF93CF93DF93CDB7DEB78091EF039091C6
S1132370F00301969093F0038093EF032091EF0311
S11323803091F0038091ED039091EE032817390703
S113239090F01092F0031092EF0381E08093EC032D
S11323A00E94111189E590E029E530E0F9012081CE
S11323B02E7FFC0120830000DF91CF91FF91EF91EC
S11323C0BF91AF919F918F917F916F915F914F9149
S11323D03F912F910F9000925F000F901F901895DE
S11323E05058BB27AA270E9408120C94C2130E94BB
S11323F0B41338F00E94BB1320F039F49F3F19F452
S113240026F40C94B1130EF4E095E7FB0C948213BC
S1132410E92F0E94D31358F3BA176207730784078E
S1132420950720F079F4A6F50C940D140EF4E095BC
S11324300B2EBA2FA02D0B01B90190010C01CA017A
S1132440A0011124FF27591B99F0593F50F4503E25
S113245068F11A16F040A22F232F342F4427585F17
S1132460F3CF469537952795A795F0405395C9F72F
S11324707EF41F16BA0B620B730B840BBAF09150E7
S1132480A1F0FF0FBB1F661F771F881FC2F70EC086
S1132490BA0F621F731F841F48F487957795679559
S11324A0B795F7959E3F08F0B0CF9395880F08F045
S11324B09927EE0F9795879508950E94F51390F04C
S11324C09F3748F4911116F40C940E1460E070E0F8
S11324D080E89FE3089526F01B16611D711D811D80
S11324E00C9488130C94A3130E945E1308F481E0E7
S11324F008950E948D120C94C2130E94BB1358F0CD
S11325000E94B41340F029F45F3F29F00C94821325
S113251051110C940E140C94B1130E94D31368F34C
S11325209923B1F3552391F3951B550BBB27AA2788
S113253062177307840738F09F5F5F4F220F331FC2
S1132540441FAA1FA9F335D00E2E3AF0E0E832D08A
S113255091505040E695001CCAF72BD0FE2F29D08D
S1132560660F771F881FBB1F261737074807AB075F
S1132570B0E809F0BB0B802DBF01FF2793585F4FD4
S11325803AF09E3F510578F00C9482130C940E148B
S11325905F3FE4F3983ED4F3869577956795B795B6
S11325A0F7959F5FC9F7880F911D9695879597F9C1
S11325B00895E1E0660F771F881FBB1F621773073A
S11325C08407BA0720F0621B730B840BBA0BEE1F4F
S11325D088F7E09508950E94F2126894B1110C9462
S11325E00E1408950E94DB1388F09F5798F0B92FBA
S11325F09927B751B0F0E1F0660F771F881F991F34
S11326001AF0BA95C9F714C0B13091F00E940D14B4
S1132610B1E008950C940D14672F782F8827B85FC4
S113262039F0B93FCCF3869577956795B395D9F78B
S11326303EF490958095709561957F4F8F4F9F4F95
S11326400895E89409C097FB3EF4909580957095A1
S113265061957F4F8F4F9F4F9923A9F0F92F96E9EA
S1132660BB279395F695879577956795B795F1115F
S1132670F8CFFAF4BB0F11F460FF1BC06F5F7F4FFC
S11326808F4F9F4F16C0882311F096E911C077230E
S113269021F09EE8872F762F05C0662371F096E817
S11326A0862F70E060E02AF09A95660F771F881FE6
S11326B0DAF7880F9695879597F90895990F00088A
S11326C0550FAA0BE0E8FEEF16161706E807F90700
S11326D0C0F012161306E407F50798F0621B730B9B
S11326E0840B950B39F40A2661F0232B242B252B1C
S11326F021F408950A2609F4A140A6958FEF811DBF
S1132700811D089597F99F6780E870E060E008955F
S1132710882371F4772321F09850872B762F07C0F4
S1132720662311F499270DC09051862B70E060E068
S11327302AF09A95660F771F881FDAF7880F969507
S1132740879597F908959F3F31F0915020F487952C
S113275077956795B795880F911D9695879597F905
S113276008959FEF80EC089500240A941616170626
S113277018060906089500240A941216130614066E
S113278005060895092E0394000C11F4882352F0D1
S1132790BB0F40F4BF2B11F460FF04C06F5F7F4F89
S11327A08F4F9F4F089557FD9058440F551F59F070
S11327B05F3F71F04795880F97FB991F61F09F3F2A
S11327C079F087950895121613061406551FF2CF53
S11327D04695F1DF08C0161617061806991FF1CFA3
S11327E0869571056105089408950E94DB13A0F095
S11327F0BEE7B91788F4BB279F3860F41616B11DDD
S1132800672F782F8827985FF7CF869577956795F8
S1132810B11D93959639C8F30895E894BB276627AC
S11328207727CB0197F908950E945E1308F48FEF80
S113283008950E942C140C94C2130E94B41338F00F
S11328400E94BB1320F0952311F00C9482130C9476
S1132850B11311240C940E140E94D31370F3959F9A
S1132860C1F3950F50E0551F629FF001729FBB2783
S1132870F00DB11D639FAA27F00DB11DAA1F649F1F
S11328806627B00DA11D661F829F2227B00DA11DD2
S1132890621F739FB00DA11D621F839FA00D611D58
S11328A0221F749F3327A00D611D231F849F600D79
S11328B0211D822F762F6A2F11249F5750409AF0A2
S11328C0F1F088234AF0EE0FFF1FBB1F661F771F2E
S11328D0881F91505040A9F79E3F510580F00C94F9
S11328E082130C940E145F3FE4F3983ED4F3869560
S11328F077956795B795F795E7959F5FC1F7FE2B99
S1132900880F911D9695879597F9089566277727DF
S11329100C949616FB01DC018D9101908019011035
S1132920D9F3990B0895AEE0B0E0E9E9F4E10C9431
S1132930D1180D891E8986E08C831A8309838FEF51
S11329409FE79E838D83AE01475E5F4F6F89788DCD
S1132950CE0101960E94B514EF81F885E00FF11FB6
S113296010822E96E4E00C94ED18ABE0B0E0EBEBB3
S1132970F4E10C94C3186C017B018A01FC011782F9
S11329801682838181FFCCC1CE0101963C01F60100
S11329909381F70193FD859193FF81917F018823B2
S11329A009F4BAC1853239F493FD859193FF81917D
S11329B07F01853229F4B60190E00E941B18E7CF0D
S11329C0912C212C312CFFE1F315D8F08B3279F0C6
S11329D038F4803279F08332A1F4232D20611DC0B4
S11329E08D3261F0803369F4232D216016C0832D6C
S11329F08260382EE32DE4603E2E2AC0F32DF86069
S1132A001DC037FC2DC020ED280F2A3040F08E3237
S1132A10B9F436FC81C1232D2064322E19C036FE50
S1132A2006C08AE0989E200D1124922E11C0EAE07F
S1132A302E9E200D1124222EF32DF0623F2E08C06D
S1132A408C3621F4832D8068382E02C0883641F4F8
S1132A50F70193FD859193FF81917F018111B3CF9C
S1132A60982F9F7D9554933028F40C5F1F4F9FE35C
S1132A7099830DC0833631F0833771F0833509F0C3
S1132A8059C021C0F801808189830E5F1F4F8824BB
S1132A908394912C530113C02801F2E04F0E511C72
S1132AA0F801A080B18036FE03C0692D70E002C039
S1132AB06FEF7FEFC5010E9410184C018201F32DC6
S1132AC0FF773F2E16C0280122E0420E511CF80168
S1132AD0A080B18036FE03C0692D70E002C06FEFA4
S1132AE07FEFC5010E9405184C01F32DF0683F2EBD
S1132AF0820133FC1BC0822D90E088169906B0F445
S1132B00B60180E290E00E941B182A94F4CFF501EC
S1132B1037FC859137FE81915F01B60190E00E94F8
S1132B201B1821102A9421E0821A9108811491041F
S1132B3071F7E8C0843611F0893641F5F80137FEA3
S1132B4007C060817181828193810C5F1F4F08C02F
S1132B5060817181072E000C880B990B0E5F1F4F4B
S1132B60F32DFF763F2E97FF09C0909580957095C1
S1132B7061957F4F8F4F9F4FF0683F2E2AE030E0E2
S1132B80A3010E945718882E861845C0853731F452
S1132B90232D2F7EB22E2AE030E025C0932D997F7D
S1132BA0B92E8F36C1F018F4883579F0B5C0803766
S1132BB019F0883721F0B0C0E92FE061BE2EB4FED1
S1132BC00DC0FB2DF460BF2E09C034FE0AC0292FAE
S1132BD02660B22E06C028E030E005C020E130E0D7
S1132BE002C020E132E0F801B7FE07C060817181C4
S1132BF0828193810C5F1F4F06C06081718180E0E8
S1132C0090E00E5F1F4FA3010E945718882E86186C
S1132C10FB2DFF773F2E36FE0DC0232D2E7FA22ED7
S1132C20891458F434FE0BC032FC09C0832D8E7E07
S1132C30A82E05C0B82CA32C03C0B82C01C0B92CF5
S1132C40A4FE0FC0FE01E80DF11D8081803321F444
S1132C509A2D997EA92E09C0A2FE06C0B394B394FE
S1132C6004C08A2D867809F0B394A3FC11C0A0FE99
S1132C7006C0B21488F4280C922C9B180EC0B2140F
S1132C8060F4B60180E290E00E941B18B394F7CF81
S1132C90B21418F42B1802C0982C212CA4FE10C0D6
S1132CA0B60180E390E00E941B18A2FE17C0A1FCAD
S1132CB003C088E790E002C088E590E0B6010CC04C
S1132CC08A2D867859F0A1FE02C08BE201C080E211
S1132CD0A7FC8DE2B60190E00E941B18891438F419
S1132CE0B60180E390E00E941B189A94F7CF8A946F
S1132CF0F301E80DF11D8081B60190E00E941B18DC
S1132D008110F5CF222009F442CEB60180E290E092
S1132D100E941B182A94F6CFF6018681978102C07F
S1132D208FEF9FEF2B96E2E10C94DF18A0E0B0E068
S1132D30ECE9F6E10C94C918EC016B01611571051D
S1132D4019F0FB01918380837E01FFEFEF1AFF0AE4
S1132D500881802F90E00E94E417892B11F0E7018D
S1132D60F3CF0D3239F47E0182E0E80EF11C0981C3
S1132D7011E008C00B3229F47E0192E0E90EF11C47
S1132D80098110E0E701219743E050E06CE570E031
S1132D90CE010E94ED17892BC1F4239645E050E043
S1132DA067E570E0CE010E94ED17892B09F42596A2
S1132DB0C114D10419F0F601D183C0831111F6C0F6
S1132DC060E070E080E89FE7FAC043E050E064E52B
S1132DD070E0CE010E94ED17892B59F4C114D1047F
S1132DE009F4E9C0F2E0EF0EF11CF601F182E08291
S1132DF0E2C020E030E0A901C0E0D0E0F70180EDBE
S1132E00A82EA00E89E08A1530F1912F9260B92E78
S1132E10812F887012FF04C0811124C0219622C022
S1132E2081112197A5E0B0E00E94B818DC01CB0124
S1132E30880F991FAA1FBB1F9C01AD012A0D311DCC
S1132E40411D511D283989E93807480789E1580788
S1132E5048F0166006C09EEFA9120AC013FD40C0D8
S1132E601860B12E8FEFE81AF80A00811B2DC6CF27
S1132E70802F8F7D8534A1F580818D3211F410610E
S1132E8006C08B3221F0319661E070E004C081818C
S1132E90329662E070E080538A3018F0E61BF70B3C
S1132EA01FC060E070E060389CE079075CF4DB01EF
S1132EB0AA0FBB1FAA0FBB1F6A0F7B1F660F771FCA
S1132EC0680F711D3196DF0111978C9180538A3000
S1132ED050F314FF03C0719561957109C60FD71F94
S1132EE011FF08C0C114D10429F0CF010197F601E4
S1132EF091838083CA01B9010E942113212F237079
S1132F00233019F04B015C0106C04B015C01B7FA98
S1132F10B094B7F8B09420E030E0A901C501B40141
S1132F200E947412882309F43EC0D7FF06C0D195CD
S1132F30C195D10903E710E002C00BE810E0680175
S1132F40F8E1CF1AD10890E2E92EF12CCE15DF0575
S1132F5074F0F8012591359145915491C501B4015E
S1132F600E9419144B015C01CE19DF09EFCF045004
S1132F701109F594E7940C151D0541F78A2D880F66
S1132F808B2D881F8F3F49F020E030E0A901C50157
S1132F90B4010E947412811106C082E290E0909301
S1132FA0FA038093F903C501B40109C060E070E03D
S1132FB080E89FEF04C060E070E080EC9FE7CDB74D
S1132FC0DEB7ECE00C94E51891110C94B51880323E
S1132FD019F089508550C8F70895FB01DC01415070
S1132FE0504088F08D9181341CF08B350CF4805E58
S1132FF0659161341CF06B350CF4605E861B6111C5
S113300071F3990B0895881BFCCFFC010590615066
S113301070400110D8F7809590958E0F9F1F0895EA
S1133020FC016150704001900110D8F78095909593
S11330308E0F9F1F08950F931F93CF93DF93FB0170
S1133040238121FD03C08FEF9FEF2CC022FF16C008
S113305046815781248135814217530744F4A08166
S1133060B1819D012F5F3F4F318320838C93268153
S113307037812F5F3F4F3783268314C08B01EC01C8
S1133080FB010084F185E02D0995892BE1F6D80137
S113309016968D919C911797019617969C938E93F3
S11330A01697CE01DF91CF911F910F910895FA01E8
S11330B0AA27283051F1203181F1E8946F936E7F73
S11330C06E5F7F4F8F4F9F4FAF4FB1E03ED0B4E064
S11330D03CD0670F781F891F9A1FA11D680F791FA5
S11330E08A1F911DA11D6A0F711D811D911DA11DB6
S11330F020D009F468943F912AE0269F11243019C6
S1133100305D3193DEF6CF010895462F4770405D60
S11331104193B3E00FD0C9F7F6CF462F4F70405D0F
S11331204A3318F0495D31FD4052419302D0A9F76A
S1133130EACFB4E0A6959795879577956795BA9564
S1133140C9F700976105710508959B01AC010A2E2A
S113315006945795479537952795BA95C9F7620F01
S1133160731F841F951FA01D08959927882708950C
S11331700E94FA18A59F900DB49F900DA49F800DF6
S1133180911D112408952F923F924F925F926F9256
S11331907F928F929F92AF92BF92CF92DF92EF92E3
S11331A0FF920F931F93CF93DF93CDB7DEB7CA1B64
S11331B0DB0B0FB6F894DEBF0FBECDBF09942A888F
S11331C0398848885F846E847D848C849B84AA8437
S11331D0B984C884DF80EE80FD800C811B81AA81C4
S11331E0B981CE0FD11D0FB6F894DEBF0FBECDBF8F
S11331F0ED010895A29FB001B39FC001A39F700D7C
S1133200811D1124911DB29F700D811D1124911DEA
S10932100895F894FFCFBD
S1133216F63F1C46013437323834353932353839BD
S1133226363633333300000000006CB545013439BB
S1133236343630383438393733333832383400009A
S113324600007B401246003437323834353130358D
S113325639363931323238000000008F12C8440042
S11332663435373337363230393331353338373608
S1133276000000009A3902440034313237383536BA
S113328637393132353734323600000000A4A2D73C
S113329645003439343630393936363030393138F8
S11332A637380000000000409C450034393436307D
S11332B636393538373930383235360000000000B3
S11332C60020450034393436303835313137373417
S11332D6393438310000000000D80B460034393444
S11332E6363039393638333930383833350000001A
S11332F6000000FA44003438333436393930363471
S1133306353633343333000000006662D645003563
S113331631383331353036363036313032363300A3
S113332600000066429C450035343030383239306E
S11333363632333430393033000000000000E144C3
S11333460035313931373836363430383238353855
S1133356300000000000007F450035333637303535
S11333663237343433353034393400000000664E95
S1133376EC4400353234383639323336343136316A
S1133386303838000000000038F245003534313951
S113339635353830303330343034383300000000BB
S11333A600203D450035313136313336333037323E
S11333B631363432360000000000481246003533F8
S11333C63335383437343332353036303239000019
S11333D6000000408544003534323434333832300A
S11333E636313133333039000000000000E4440044
S11333F63532363431363633323533333634393280
S11334060000000000409C45015354415254494E6B
S1133416472E2E2E0053656E64696E673A2000258A
S11334266400456E74657220596F75722050494E5A
S1133436005F5F5F5F00506C65617365207761694B
S1133446740A566572696679696E670020202020C1
S1133456202020200057726F6E672050494E202886
S113346625642F33290052657472696576696E671F
S11334760A6163636F756E7420646174612E2E2E07
S1133486002020202000303030302E303000506CA8
S11334966561736520776169742E2E2E00202020C5
S11334A646726175642043617264202020002020E6
S11334B653746F6C656E2043617264202020004D46
S11334C66178206C696D69742069730A657863652F
S11334D66564656400496E73756666696369656EDD
S11334E6740A46756E647300417070726F76656413
S11334F6005472616E73616374696F6E004E657712
S11335062042616C616E63653A0A20202020256C96
S1133516642E256400456A656374696E67004361B9
S113352672640057656C636F6D6520746F20415437
S11335364D004861636B657220204B65726D69743A
S113354600496E73657274204361726400456E743B
S1133556657220416D6F756E740053797374656D71
S1133566204C6F636B65642000040E0E0E1F00046E
S11335760031323334353637383902030405060749
S9030000FC
