:100000000C942A000C9447000C9447000C94470071
:100010000C94660A0C941E0A0C9447000C9447003A
:100020000C9447000C9447000C9447000C94470034
:100030000C9447000C94860C0C94BD0C0C94F40C9E
:100040000C9447000C9447000C9447000C94470014
:100050000C94470011241FBECFE5D8E0DEBFCDBF12
:1000600012E0A0E6B0E0EEE8FFE102C005900D92DC
:10007000A634B107D9F722E0A6E4B2E001C01D9290
:10008000A339B207E1F70E94BF040C94C50F0C948A
:100090000000CF93DF93CDB7DEB741E061E080E0B1
:1000A0000E94CC0481E00E949E070E944F070E949C
:1000B000360B0E948D030000DF91CF910895CF93FE
:1000C000DF93CDB7DEB70E948600813019F482E05D
:1000D0008093460280914602882F90E081309105FE
:1000E00059F08230910571F0892B79F40E944E010C
:1000F00081E08093460209C00E94B40282E08093AE
:10010000460203C00E941C010000E4CFCF93DF939E
:1001100000D000D000D0CDB7DEB781E089831B824C
:100120001A821D821C821E8280E090E00E9483045D
:100130009B838A8321C08A819B81FC0180818033DB
:1001400030F08A819B81FC0180818A3310F0198212
:1001500019C08E81882F90E02A813B81F90120818E
:10016000895B9D4FFC0120838A819B8101969B8343
:100170008A838E818F5F8E838A819B81FC0180813F
:100180008823C9F68E81882F90E0895B9D4FFC0102
:1001900010828E81803118F08E81843108F01982AE
:1001A0008981882311F489813EC08E8180936A02FF
:1001B0001E8288E190E00E9483049D838C8321C08D
:1001C0008C819D81FC018081803330F08C819D8108
:1001D000FC0180818A3310F0198219C08E81882F2A
:1001E00090E02C813D81F9012081805A9D4FFC01D6
:1001F00020838C819D8101969D838C838E818F5F6E
:100200008E838C819D81FC0180818823C9F68E813B
:10021000882F90E0805A9D4FFC0110828E8184309F
:1002200009F01982898126960FB6F894DEBF0FBEB9
:10023000CDBFDF91CF910895CF93DF931F92CDB7BC
:10024000DEB719821CC081E690E00E945B0CCE01F3
:1002500001960E94BD0B8981882F90E08133910522
:1002600019F0C29729F007C081E08093460207C0C9
:100270001092460204C08DEA90E00E945B0C8981D6
:10028000813319F089818233F1F689EC90E00E9484
:100290005B0C00000F90DF91CF910895CF93DF9317
:1002A000CDB7DEB70E945E0186EF90E00E945B0C46
:1002B0000E94E6010000DF91CF910895CF93DF9374
:1002C00000D000D0CDB7DEB719821A821C821B8203
:1002D00064C049E150E060E070E087E492E00E9491
:1002E000B50F1A8281E0898382E291E00E945B0C63
:1002F0001C821B820FC0CE0104960E94BD0B8B8115
:10030000882F90E02C81895B9D4FFC0120838B819D
:100310008F5F8B838C818D3071F78B81882F90E07C
:100320000197895B9D4FFC0110821B8218C08B8155
:10033000882F90E0895B9D4FFC018081803348F0DD
:100340008B81882F90E0895B9D4FFC0180818A33EF
:1003500018F081E08A830CC08B818F5F8B838B8147
:10036000882F90E0895B9D4FFC0180818823F9F6FE
:100370008A81813031F48BE391E00E945B0C198219
:100380000CC08B81803118F08B81843130F088E58E
:1003900091E00E945B0C198200008981882309F496
:1003A00098CF8B8180936A028CE791E00E945B0C6E
:1003B00067E472E080E090E00E94300400000F905B
:1003C0000F900F900F90DF91CF910895CF93DF930F
:1003D000CDB7DEB72E970FB6F894DEBF0FBECDBFF8
:1003E00019821A822AE0CE010496FC01322F119262
:1003F0003A95E9F71E861B829FC04AE050E060E014
:1004000070E080E692E00E94B50FCE0104964AE0CB
:1004100050E060E070E00E94B50F1A8281E08983AD
:100420008BE991E00E945B0C1E861B820FC0CE01FF
:100430000E960E94BD0B8B81882F90E02E85805AEE
:100440009D4FFC0120838B818F5F8B838E858D3048
:1004500071F78B81882F90E00197805A9D4FFC01A6
:10046000108283EB91E00E945B0C1E861B8212C0FF
:10047000CE010E960E94BD0B8B81882F90E04E8599
:100480009E012C5F3F4F820F931FFC0140838B81A5
:100490008F5F8B838E858D3059F78B81882F90E00D
:1004A00001979E012C5F3F4F820F931FFC0110822A
:1004B000CE010496BC0180E692E00E94BC0F892B1D
:1004C00031F08CEC91E00E945B0C198235C01B82EC
:1004D00018C08B81882F90E0805A9D4FFC0180814D
:1004E000803348F08B81882F90E0805A9D4FFC012B
:1004F00080818A3318F081E08A830CC08B818F5F02
:100500008B838B81882F90E0805A9D4FFC018081E6
:100510008823F9F68A81813031F48BEE91E00E94D4
:100520005B0C198209C08B81843031F088E092E045
:100530000E945B0C198200008981882309F45DCF39
:1005400086E292E00E945B0C60E672E088E190E057
:100550000E94300400002E960FB6F894DEBF0FBE46
:10056000CDBFDF91CF910895CF93DF931F92CDB789
:10057000DEB781E089830FC00E94DD028983898113
:10058000882331F480916B028F5F80936B0203C0EC
:100590008981813029F080916B02833068F301C03A
:1005A00000008981813011F40E943F0310926B0298
:1005B00000000F90DF91CF9108950F931F93CF9379
:1005C000DF93CDB7DEB728970FB6F894DEBF0FBE26
:1005D000CDBF81E089838DED8B8325E0CE0104962C
:1005E000FC01322F11923A95E9F741E061E080E099
:1005F0000E94C40540E061E080E00E94C405000064
:100600008B810E948107813CD9F78AE10E94810792
:100610001A8214C08A8180560E9481078A81082F1D
:1006200010E08B810E948107282FCE010496800F55
:10063000911FFC0120838A818F5F8A838A818430A5
:1006400048F31886CE010496BC0180E692E00E9431
:10065000BC0F892B21F480EF0E94810704C085EF35
:100660000E9481071982898128960FB6F894DEBF0F
:100670000FBECDBFDF91CF911F910F910895CF9302
:10068000DF9300D0CDB7DEB78DED8983000089817F
:100690000E948107833CD9F78AE10E94810700000C
:1006A00089810E948107843CD9F780916A020E9467
:1006B0008107000089810E948107803AD9F71A8258
:1006C0001EC089810E9481078A838A81803AB8F09E
:1006D0008A81282F30E080916A02882F90E081562D
:1006E0009F4F821793075CF08A81882F90E0805A91
:1006F0009109895B9D4FFC0180810E94810789815E
:100700000E948107803FE9F68AE10E94810700008C
:100710000F900F90DF91CF910895CF93DF93CDB7D6
:10072000DEB70E94B70A0000DF91CF910895CF9302
:10073000DF9300D01F92CDB7DEB79A8389836B8396
:100740000E94D20A0E94260B883011F080E02AC055
:1007500080EA0E94F30A0E94260B883111F080E0A3
:1007600021C089819A81892F99270E94F30A0E94CA
:10077000260B883211F080E015C089810E94F30AAF
:100780000E94260B883211F080E00CC08B810E9401
:10079000F30A0E94260B883211F080E003C00E9409
:1007A000E60A81E00F900F900F90DF91CF910895AE
:1007B000CF93DF9300D000D0CDB7DEB79A83898383
:1007C0007C836B830E94D20A0E94260B883011F032
:1007D00080E03FC080EA0E94F30A0E94260B883125
:1007E00011F080E036C089819A81892F99270E9473
:1007F000F30A0E94260B883211F080E02AC089811A
:100800000E94F30A0E94260B883211F080E021C07A
:100810000E94D20A0E94260B803111F080E019C09C
:1008200081EA0E94F30A0E94260B803411F080E0D6
:1008300010C00E940F0B282F8B819C81FC0120830C
:100840000E94260B883511F080E003C00E94E60A62
:1008500081E00F900F900F900F90DF91CF9108954E
:10086000CF93DF93CDB7DEB728970FB6F894DEBFEE
:100870000FBECDBF9E838D8378876F8319821C82C4
:100880008D819E819B838A8320C0898191E0980F0E
:100890009983882F90E02F813885820F931FFC0168
:1008A00040818A819B819C012F5F3F4F3B832A833C
:1008B000642F0E9497038C838AE090E00E94F007E7
:1008C0008C81882311F480E015C08981882F90E005
:1008D0002F813885820F931FFC0180818823A9F620
:1008E0008A819B8160E00E9497038AE090E00E94E9
:1008F000F00781E028960FB6F894DEBF0FBECDBF9B
:10090000DF91CF910895CF93DF9300D01F92CDB7A1
:10091000DEB79B838A8319828981882F90E09C01AE
:1009200024593D4F8A819B81B9010E94D8038AE0F6
:1009300090E00E94F0078A819B8101969B838A83C5
:1009400089818F5F89838981882F90E001978459FD
:100950009D4FFC018081882319F089818331E1F664
:100960008981882F90E084599D4FFC0110828CE68C
:1009700092E00F900F900F90DF91CF910895CF9359
:10098000DF93CDB7DEB70E9449000E945F0080E090
:1009900090E0DF91CF910895CF93DF9300D01F9225
:1009A000CDB7DEB789836A834B838981883010F0A5
:1009B00081E0E4C08A81882F90E08130910509F4BC
:1009C00041C0823091051CF4892B49F0D4C082309B
:1009D000910509F46AC0039709F49AC0CCC08B81D1
:1009E0008130A9F48AE390E02AE330E0F901208124
:1009F000622F2981422F50E021E030E002C0220F17
:100A0000331F4A95E2F7262BFC012083B6C08B8169
:100A10008823B1F48AE390E02AE330E0F9012081F1
:100A2000622F2981422F50E021E030E002C0220FE6
:100A3000331F4A95E2F720952623FC0120839DC0B1
:100A400081E09CC08B818130A9F487E390E027E3AB
:100A500030E0F9012081622F2981422F50E021E00E
:100A600030E002C0220F331F4A95E2F7262BFC012B
:100A7000208383C08B818823B1F487E390E027E350
:100A800030E0F9012081622F2981422F50E021E0DE
:100A900030E002C0220F331F4A95E2F7209526234B
:100AA000FC0120836AC081E069C08B818130A9F498
:100AB00084E390E024E330E0F9012081622F298172
:100AC000422F50E021E030E002C0220F331F4A9550
:100AD000E2F7262BFC01208350C08B818823B1F4E0
:100AE00084E390E024E330E0F9012081622F298142
:100AF000422F50E021E030E002C0220F331F4A9520
:100B0000E2F720952623FC01208337C081E036C020
:100B10008B818130A9F481E390E021E330E0F90199
:100B20002081622F2981422F50E021E030E002C075
:100B3000220F331F4A95E2F7262BFC0120831DC0AC
:100B40008B818823B1F481E390E021E330E0F90167
:100B50002081622F2981422F50E021E030E002C045
:100B6000220F331F4A95E2F720952623FC012083AC
:100B700004C081E003C081E001C080E00F900F90CD
:100B80000F90DF91CF910895CF93DF9300D01F9204
:100B9000CDB7DEB789836A834B838981883010F0B3
:100BA00081E00AC18A81882F90E08130910509F4A3
:100BB0004BC0823091051CF4892B49F0FCC0823077
:100BC000910509F47EC0039709F4B8C0F4C08B8185
:100BD000813019F08B818823A1F58B818823C1F0A6
:100BE0002BE330E08BE390E0FC0160818981482FAA
:100BF00050E081E090E0A0E0B0E004C0880F991FD1
:100C0000AA1FBB1F4A95D2F7862BF90180831BC010
:100C10002BE330E08BE390E0FC0160818981482F79
:100C200050E081E090E0A0E0B0E004C0880F991FA0
:100C3000AA1FBB1F4A95D2F780958623F9018083AE
:100C400002C081E0B9C0B7C08B81813019F08B81BF
:100C50008823A1F58B818823C1F028E330E088E365
:100C600090E0FC0160818981482F50E081E090E0B4
:100C7000A0E0B0E004C0880F991FAA1FBB1F4A95CF
:100C8000D2F7862BF90180831BC028E330E088E38C
:100C900090E0FC0160818981482F50E081E090E084
:100CA000A0E0B0E004C0880F991FAA1FBB1F4A959F
:100CB000D2F780958623F901808302C081E07CC051
:100CC0007AC08B81813019F08B818823A1F58B81CB
:100CD0008823C1F025E330E085E390E0FC016081EA
:100CE0008981482F50E081E090E0A0E0B0E004C0AE
:100CF000880F991FAA1FBB1F4A95D2F7862BF901AF
:100D000080831BC025E330E085E390E0FC01608137
:100D10008981482F50E081E090E0A0E0B0E004C07D
:100D2000880F991FAA1FBB1F4A95D2F7809586236B
:100D3000F901808302C081E03FC03DC08B818130DA
:100D400019F08B818823A1F58B818823C1F022E3E0
:100D500030E082E390E0FC0160818981482F50E01F
:100D600081E090E0A0E0B0E004C0880F991FAA1FC6
:100D7000BB1F4A95D2F7862BF90180831BC022E363
:100D800030E082E390E0FC0160818981482F50E0EF
:100D900081E090E0A0E0B0E004C0880F991FAA1F96
:100DA000BB1F4A95D2F780958623F901808302C044
:100DB00081E002C0000080E00F900F900F90DF9163
:100DC000CF910895CF93DF9300D01F92CDB7DEB7B8
:100DD00089836A834B838B81882311F48FEF8B8304
:100DE0008981882F90E081309105E9F0823091056A
:100DF0001CF4892B39F04AC08230910529F1039700
:100E0000A1F144C08AE390E02B81422F40952AE370
:100E100030E0F901208124234B813A813423232BB4
:100E2000FC01208335C087E390E02B81422F409561
:100E300027E330E0F901208124234B813A813423D8
:100E4000232BFC01208324C084E390E02B81422FDC
:100E5000409524E330E0F901208124234B813A813D
:100E60003423232BFC01208313C081E390E02B81EA
:100E7000422F409521E330E0F901208124234B816A
:100E80003A813423232BFC01208302C081E001C07E
:100E900080E00F900F900F90DF91CF910895CF9346
:100EA000DF93CDB7DEB78DE290E02DE230E0F901BF
:100EB00020812F7DFC01208340EB60E081E00E94D7
:100EC000E20641E061E086E00E94CC0441E061E09E
:100ED00080E00E94CC048DE290E02DE230E0F90148
:100EE00020812F7EFC0120838DE290E02DE230E016
:100EF000F90120812064FC0120830000DF91CF9163
:100F00000895CF93DF9300D0CDB7DEB78A838FE209
:100F100090E02A81FC01208300008EE290E0FC0139
:100F200080818823D4F78FE290E0FC01808189835F
:100F300089810F900F90DF91CF910895CF93DF9328
:100F40001F92CDB7DEB789838981882F90E0009703
:100F500019F0019741F13DC083E590E023E530E0D1
:100F6000F90120812F7BFC01208383E590E023E5BC
:100F700030E0F9012081277FFC0120838FE590E09C
:100F80002FE530E0F90120812068FC01208389E50C
:100F900090E029E530E0F90120812160FC01208307
:100FA0001092600018C083E590E023E530E0F9017D
:100FB00020812F7BFC01208383E590E023E530E056
:100FC000F9012081277FFC01208381E0809360006C
:100FD00002C081E001C080E00F90DF91CF910895C1
:100FE0000F931F93CF93DF9300D000D000D0CDB7E5
:100FF000DEB79E838D8380918B0290918C02892B2A
:1010000051F080918B0290918C02FC0180818130A3
:1010100011F481E00EC183E590E0FC0110828D8126
:101020009E81CC01A0E0B0E0BC01CD010E94550E34
:10103000DC01CB0120E030E04AE754E4BC01CD0103
:101040000E94B40DDC01CB0189839A83AB83BC83FE
:101050002DEB37E346E85EE369817A818B819C81E1
:101060000E94AF0D88233CF502E510E029813A810A
:101070004B815C816DEB77E386E89EE30E942B0D4C
:10108000DC01CB012DEB37E346E85AE3BC01CD018F
:101090000E94B40DDC01CB01BC01CD010E94260EE3
:1010A000DC01CB01F801808381E090E09093820223
:1010B0008093810286C02DEB37E346E85EE36981C9
:1010C0007A818B819C810E94AF0D882359F482E53F
:1010D00090E0FC01108281E090E090938202809386
:1010E00081026FC02DEB37E346E85EE369817A81C8
:1010F0008B819C810E94B40DDC01CB01BC01CD0130
:101100000E94980DDC01CB01BC01CD010E94260E8E
:10111000DC01CB01909382028093810202E510E012
:101120008091810290918202CC01A0E0B0E0BC01EC
:10113000CD010E94550EDC01CB0120E030E040E8FB
:101140005FE3BC01CD010E942B0DDC01CB012DEB37
:1011500037E346E85EE3BC01CD010E94480FDC01A5
:10116000CB019C01AD0169817A818B819C810E94B8
:101170002B0DDC01CB012DEB37E346E85AE3BC0134
:10118000CD010E94B40DDC01CB019C01AD0160E0FA
:1011900070E080E893E40E942B0DDC01CB01BC01E0
:1011A000CD010E94260EDC01CB01F801808382E58F
:1011B00090E0FC018081882F90E0909386028093DC
:1011C0008502109284021092830280E094E00E94D3
:1011D000240980916000813059F51DC0000088E528
:1011E00090E0FC018081882F90E081709927892B05
:1011F000B1F388E590E028E530E0F9012081216035
:10120000FC01208380918302909184020196909347
:101210008402809383022091810230918202809126
:1012200083029091840282179307C0F20E94D8092A
:1012300080E026960FB6F894DEBF0FBECDBFDF91DB
:10124000CF911F910F910895CF93DF9300D0CDB729
:10125000DEB79A83898389819A818034910509F464
:101260004BC08134910530F48130910569F00897C5
:1012700039F196C0811521E0920709F459C0811512
:10128000944009F471C08CC083E590E023E530E020
:10129000F90120812D7FFC01208383E590E023E587
:1012A00030E0F90120812B7FFC01208383E590E071
:1012B00023E530E0F90120812160FC01208372C028
:1012C00083E590E023E530E0F90120812E7FFC01E9
:1012D000208383E590E023E530E0F90120812B7F36
:1012E000FC01208383E590E023E530E0F9012081D3
:1012F0002260FC01208356C083E590E023E530E0C6
:10130000F90120812B7FFC01208383E590E023E518
:1013100030E0F90120812260FC01208383E590E028
:1013200023E530E0F90120812160FC0120833AC0EF
:1013300083E590E023E530E0F90120812D7FFC0179
:10134000208383E590E023E530E0F90120812E7FC2
:10135000FC01208383E590E023E530E0F901208162
:101360002460FC0120831EC083E590E023E530E08B
:10137000F90120812D7FFC01208383E590E023E5A6
:1013800030E0F90120812460FC01208383E590E0B6
:1013900023E530E0F90120812160FC01208302C0B7
:1013A00081E001C080E00F900F90DF91CF91089510
:1013B000CF93DF93CDB7DEB783E590E023E530E050
:1013C000F90120812E7FFC01208383E590E023E555
:1013D00030E0F90120812D7FFC01208383E590E03E
:1013E00023E530E0F90120812B7FFC012083000000
:1013F000DF91CF910895CF93DF93CDB7DEB785E42A
:1014000090E025E430E0F90120812E7FFC0120836B
:1014100085E490E025E430E0F90120812D7FFC0196
:10142000208385E490E025E430E0F90120812B7FE2
:10143000FC0120830000DF91CF9108951F920F924D
:1014400000905F000F9211242F933F934F935F936F
:101450006F937F938F939F93AF93BF93EF93FF937C
:10146000CF93DF93CDB7DEB780918702909188024A
:101470000196909388028093870220918702309191
:1014800088028091890290918A022817390748F0D2
:10149000109288021092870281E0809380020E945D
:1014A000FB090000DF91CF91FF91EF91BF91AF91C8
:1014B0009F918F917F916F915F914F913F912F916C
:1014C0000F9000925F000F901F9018951F920F923F
:1014D00000905F000F9211242F933F934F935F93DF
:1014E0006F937F938F939F93AF93BF93EF93FF93EC
:1014F000CF93DF93CDB7DEB78091830290918402C2
:10150000019690938402809383022091830230910C
:10151000840280918102909182022817390790F00D
:10152000109284021092830281E0809380020E94D4
:10153000D80989E590E029E530E0F90120812E7F86
:10154000FC0120830000DF91CF91FF91EF91BF91CB
:10155000AF919F918F917F916F915F914F913F914B
:101560002F910F9000925F000F901F901895CF93CE
:10157000DF93CDB7DEB780E290E022E0FC0120836C
:1015800081E290E0FC01108282E290E022E0FC0126
:10159000208386E590E024E0FC0120830000DF91B9
:1015A000CF910895CF93DF93CDB7DEB786E590E076
:1015B00024EAFC012083000086E590E0FC018081A4
:1015C0008823D4F70000DF91CF910895CF93DF9364
:1015D000CDB7DEB786E590E024E9FC01208300006A
:1015E000DF91CF910895CF93DF931F92CDB7DEB7F0
:1015F000898383E290E02981FC01208386E590E0E5
:1016000024E8FC012083000086E590E0FC01808155
:101610008823D4F700000F90DF91CF910895CF93E6
:10162000DF93CDB7DEB786E590E024E8FC012083A8
:10163000000086E590E0FC0180818823D4F783E2F6
:1016400090E0FC018081DF91CF910895CF93DF93EB
:101650001F92CDB7DEB781E290E0FC018081887FE8
:10166000898389810F90DF91CF910895CF93DF9384
:101670001F92CDB7DEB780E8898389818F7B89830C
:1016800089818E7F898300008BE290E02BE230E03D
:10169000F90120812D7FFC01208389E290E02CE07C
:1016A00030E0FC01208380E490E02CE030E0232F48
:1016B0003327FC01208300008BE290E02BE230E036
:1016C000F90120812E7FFC01208300008AE290E056
:1016D0002AE230E0F90120812F77FC01208300000D
:1016E0008AE290E02AE230E0F90120812F7BFC01C0
:1016F000208300008AE290E02AE230E0F9012081B4
:101700002F7DFC012083000089818F7E8983898160
:101710008F7D898300008981877F8983000089818B
:10172000826089838981846089838AE290E02AE2E9
:1017300030E0F90120812B7FFC012083000080E450
:1017400090E02981FC0120838AE290E02AE230E0E7
:10175000F90120812061FC01208300008AE290E0F1
:101760002AE230E0F90120812860FC01208300009A
:1017700000000F90DF91CF910895CF93DF9300D0B9
:101780001F92CDB7DEB79B838A8381E089838A81EC
:101790009B81892BC9F000008BE290E0FC018081E5
:1017A0008823D4F78BE290E02BE230E0F90120812E
:1017B0002068FC0120838CE290E0FC0120818A817A
:1017C0009B81FC01208301C0198289810F900F90B9
:1017D0000F90DF91CF910895CF93DF9300D000D089
:1017E0001F92CDB7DEB78C836D8381E089838C81B6
:1017F000833008F056C08C81882F90E0009721F04C
:10180000029709F447C04EC01B821A8205C08A8124
:101810009B8101969B838A838BE290E0FC0180810F
:10182000882F90E080729927959587959595879553
:10183000959587959595879595958795892B29F405
:101840008A819B818035934C10F38BE290E0FC0100
:101850008081882F90E0807299279595879595953E
:101860008795959587959595879595958795892BD6
:1018700079F08BE290E02BE230E0F90120812062E8
:10188000FC0120838CE290E02D81FC0120830AC0C2
:10189000198208C08CE290E02D81FC0120830000B9
:1018A00001C0198289810F900F900F900F900F90B7
:1018B000DF91CF910895CF93DF9300D01F92CDB7E2
:1018C000DEB79B838A8381E089838A819B81892B10
:1018D000A9F00DC08A819B81FC018081682F80E086
:1018E0000E94EC0B8A819B8101969B838A838A816B
:1018F0009B81FC018081882369F701C0198289815D
:101900000F900F900F90DF91CF9108951F920F923B
:1019100000905F000F9211242F933F934F935F939A
:101920006F937F938F939F93AF93BF93EF93FF93A7
:10193000CF93DF93CDB7DEB780918D0290918E0269
:10194000892B31F080918D0290918E02FC010995D6
:101950000000DF91CF91FF91EF91BF91AF919F91E7
:101960008F917F916F915F914F913F912F910F9048
:1019700000925F000F901F9018951F920F92009099
:101980005F000F9211242F933F934F935F936F93B8
:101990007F938F939F93AF93BF93EF93FF93CF93D7
:1019A000DF93CDB7DEB780918F0290919002892BA3
:1019B00031F080918F0290919002FC010995000016
:1019C000DF91CF91FF91EF91BF91AF919F918F9157
:1019D0007F916F915F914F913F912F910F90009266
:1019E0005F000F901F9018951F920F9200905F005C
:1019F0000F9211242F933F934F935F936F937F9395
:101A00008F939F93AF93BF93EF93FF93CF93DF9306
:101A1000CDB7DEB78091910290919202892B31F07F
:101A20008091910290919202FC0109950000DF9152
:101A3000CF91FF91EF91BF91AF919F918F917F9146
:101A40006F915F914F913F912F910F9000925F00A6
:101A50000F901F9018955058BB27AA270E94430D3E
:101A60000C94F60E0E94E80E38F00E94EF0E20F063
:101A700039F49F3F19F426F40C94E50E0EF4E0952A
:101A8000E7FB0C94B60EE92F0E94070F58F3BA1724
:101A9000620773078407950720F079F4A6F50C9484
:101AA000410F0EF4E0950B2EBA2FA02D0B01B901BA
:101AB00090010C01CA01A0011124FF27591B99F0C4
:101AC000593F50F4503E68F11A16F040A22F232FD0
:101AD000342F4427585FF3CF469537952795A79520
:101AE000F0405395C9F77EF41F16BA0B620B730BC7
:101AF000840BBAF09150A1F0FF0FBB1F661F771F38
:101B0000881FC2F70EC0BA0F621F731F841F48F4EC
:101B1000879577956795B795F7959E3F08F0B0CF75
:101B20009395880F08F09927EE0F9795879508955C
:101B30000E94290F90F09F3748F4911116F40C94ED
:101B4000420F60E070E080E89FE3089526F01B16E6
:101B5000611D711D811D0C94BC0E0C94D70E0E944A
:101B6000920E08F481E008950E94C80D0C94F60EC0
:101B70000E94EF0E58F00E94E80E40F029F45F3FFB
:101B800029F00C94B60E51110C94420F0C94E50EF2
:101B90000E94070F68F39923B1F3552391F3951B26
:101BA000550BBB27AA2762177307840738F09F5F7E
:101BB0005F4F220F331F441FAA1FA9F335D00E2EEB
:101BC0003AF0E0E832D091505040E695001CCAF758
:101BD0002BD0FE2F29D0660F771F881FBB1F26171B
:101BE00037074807AB07B0E809F0BB0B802DBF01F2
:101BF000FF2793585F4F3AF09E3F510578F00C94C1
:101C0000B60E0C94420F5F3FE4F3983ED4F38695F2
:101C100077956795B795F7959F5FC9F7880F911DE1
:101C20009695879597F90895E1E0660F771F881FCD
:101C3000BB1F621773078407BA0720F0621B730B80
:101C4000840BBA0BEE1F88F7E09508950E940F0FE2
:101C500088F09F5798F0B92F9927B751B0F0E1F06D
:101C6000660F771F881F991F1AF0BA95C9F714C01D
:101C7000B13091F00E94410FB1E008950C94410FF2
:101C8000672F782F8827B85F39F0B93FCCF3869556
:101C900077956795B395D9F73EF4909580957095B3
:101CA00061957F4F8F4F9F4F0895E89409C097FB30
:101CB0003EF490958095709561957F4F8F4F9F4F23
:101CC0009923A9F0F92F96E9BB279395F695879567
:101CD00077956795B795F111F8CFFAF4BB0F11F42A
:101CE00060FF1BC06F5F7F4F8F4F9F4F16C08823D1
:101CF00011F096E911C0772321F09EE8872F762F07
:101D000005C0662371F096E8862F70E060E02AF047
:101D10009A95660F771F881FDAF7880F9695879533
:101D200097F90895990F0008550FAA0BE0E8FEEF08
:101D300016161706E807F907C0F012161306E4078F
:101D4000F50798F0621B730B840B950B39F40A2688
:101D500061F0232B242B252B21F408950A2609F466
:101D6000A140A6958FEF811D811D089597F99F676A
:101D700080E870E060E00895882371F4772321F013
:101D80009850872B762F07C0662311F499270DC032
:101D90009051862B70E060E02AF09A95660F771FCD
:101DA000881FDAF7880F9695879597F908959F3FD2
:101DB00031F0915020F4879577956795B795880F06
:101DC000911D9695879597F908959FEF80EC08955A
:101DD00000240A941616170618060906089500240A
:101DE0000A9412161306140605060895092E039484
:101DF000000C11F4882352F0BB0F40F4BF2B11F4F8
:101E000060FF04C06F5F7F4F8F4F9F4F089557FD56
:101E10009058440F551F59F05F3F71F04795880F58
:101E200097FB991F61F09F3F79F0879508951216EF
:101E300013061406551FF2CF4695F1DF08C016169B
:101E400017061806991FF1CF86957105610508944C
:101E500008950E940F0FA0F0BEE7B91788F4BB27C2
:101E60009F3860F41616B11D672F782F8827985F6A
:101E7000F7CF869577956795B11D93959639C8F3F9
:101E80000895E894BB2766277727CB0197F9089533
:101E90000E945B0F0C94F60E0E94E80E38F00E9430
:101EA000EF0E20F0952311F00C94B60E0C94E50E75
:101EB00011240C94420F0E94070F70F3959FC1F3F9
:101EC000950F50E0551F629FF001729FBB27F00DE8
:101ED000B11D639FAA27F00DB11DAA1F649F66273D
:101EE000B00DA11D661F829F2227B00DA11D621F8C
:101EF000739FB00DA11D621F839FA00D611D221F46
:101F0000749F3327A00D611D231F849F600D211D29
:101F1000822F762F6A2F11249F5750409AF0F1F0AC
:101F200088234AF0EE0FFF1FBB1F661F771F881F15
:101F300091505040A9F79E3F510580F00C94B60E89
:101F40000C94420F5F3FE4F3983ED4F38695779567
:101F50006795B795F795E7959F5FC1F7FE2B880FBB
:101F6000911D9695879597F90895DC0101C06D93B1
:101F700041505040E0F70895FB01DC018D91019044
:0E1F800080190110D9F3990B0895F894FFCF42
:101F8E00010D506C656173652063686F6F73653A00
:101F9E000D28312920466F722055736572204D6FC2
:101FAE0064650D28322920466F722050726F677259
:101FBE00616D6D696E67204D6F64650D0D3C3C2043
:101FCE00596F757220496E7075743A20000D3E3E41
:101FDE002057726F6E6720496E7075742C20547284
:101FEE007920416761696E0D000D0D2020202020A3
:101FFE0020202020203C3C3C3C3C3C3C3C3C3C3C9F
:10200E003E3E3E3E3E3E3E3E3E3E20202020202096
:10201E00202020200D000D202020202020202020F8
:10202E00203C3C3C3C3C3C3C3C3C3C3C3E3E3E3EF6
:10203E003E3E3E3E3E3E20202020202020202020DE
:10204E000D000D506C6561736520456E74657220D0
:10205E00436172642050414E3A20003E3E2057723A
:10206E006F6E672050414E205B4E6F6E204E756D29
:10207E00657269635D0A0D003E3E2057726F6E6792
:10208E002050414E205B4E6F7420496E2056616C7D
:10209E0069642052616E67655D0A0D003E3E2050F8
:1020AE00414E206973207361766564207375636396
:1020BE0065737366756C6C790A0D000D506C6561F5
:1020CE00736520456E746572204E65772050494EBB
:1020DE003A2000506C6561736520436F6E666972BD
:1020EE006D204E65772050494E3A20003E3E2057D7
:1020FE00726F6E672050494E205B4E6F6E204964A2
:10210E00656E746963616C5D0A0D003E3E20577208
:10211E006F6E672050494E205B4E6F6E204E756D70
:10212E00657269635D0A0D003E3E2057726F6E67E1
:10213E002050494E205B4E6F7420342044696769ED
:10214E0074735D0A0D003E3E2050494E2069732087
:10215E007361766564207375636365737366756CFE
:06216E006C790A0D00006F
:00000001FF
