S00C00004D4355322E7372656301
S11300000C942A000C9447000C9447000C9447006D
S11300100C9447000C9447000C9447000C94470040
S11300200C9447000C9447000C9447000C94470030
S11300300C9447000C942A020C9453020C947C02F6
S11300400C9447000C9447000C9447000C94470010
S11300500C94470011241FBECFE5D8E0DEBFCDBF0E
S113006010E0A0E6B0E0ECEFF7E002C005900D92DE
S1130070A638B107D9F720E0A6E8B0E001C01D9288
S1130080A33FB207E1F70E9480000C94FC030C9498
S1130090000041E060E080E00E94FC00089541E03F
S11300A061E080E00E94FC00089541E060E080E0AF
S11300B00E94870041E061E080E00E9487000E9486
S11300C0710180E00E94AD026FE470E080E00E9464
S11300D0D60369E470E080E00E94E90360E670E022
S11300E080E00E94F70266E870E080E00E94B902B6
S11300F0089580E00E94310380E00E947B03F9CFE1
S11301000E9455000E94790080E090E008958130BB
S113011011F130F08230D1F1833009F452C00895E6
S1130120413059F42AB381E090E002C0880F991F4E
S11301306A95E2F7822B8ABB089541115CC02AB309
S113014081E090E002C0880F991F6A95E2F78095DC
S113015082238ABB0895413059F427B381E090E0AB
S113016002C0880F991F6A95E2F7822B87BB089516
S1130170411141C027B381E090E002C0880F991F6C
S11301806A95E2F78095822387BB0895413059F43C
S113019024B381E090E002C0880F991F6A95E2F7CA
S11301A0822B84BB0895411126C024B381E090E0E2
S11301B002C0880F991F6A95E2F78095822384BB59
S11301C00895413059F421B381E090E002C0880FD2
S11301D0991F6A95E2F7822B81BB089541110BC0E8
S11301E021B381E090E002C0880F991F6A95E2F77D
S11301F08095822381BB0895813011F130F08230E3
S1130200D1F1833009F452C00895413059F42BB32D
S113021081E090E002C0880F991F6A95E2F7822B73
S11302208BBB089541115CC02BB381E090E002C008
S1130230880F991F6A95E2F7809582238BBB0895F6
S1130240413059F428B381E090E002C0880F991F2F
S11302506A95E2F7822B88BB0895411141C028B307
S113026081E090E002C0880F991F6A95E2F78095BB
S1130270822388BB0895413059F425B381E090E08E
S113028002C0880F991F6A95E2F7822B85BB0895F7
S1130290411126C025B381E090E002C0880F991F68
S11302A06A95E2F78095822385BB0895413059F41D
S11302B022B381E090E002C0880F991F6A95E2F7AB
S11302C0822B82BB089541110BC022B381E090E0E0
S11302D002C0880F991F6A95E2F78095822382BB3A
S11302E008958FB780688FBF08958BB18D7F8BB9C8
S11302F083E389B910BC8BB18E7F8BB98AB18F77B8
S11303008AB98AB18F7B8AB98AB18F7D8AB98AB159
S11303108B7F8AB986E880BD8AB180618AB98AB147
S113032088608AB90895823008F56115710501F174
S1130330882329F08130A9F01DC0019602C080E015
S113034090E05F9904C0803523EC9207B0F35F9B83
S113035013C08BB180688BB98CB1FB01808381E0C1
S113036008958CB1FB01808381E0089580E00895B5
S113037080E0089581E0089580E008958230D0F40B
S1130380882329F0813099F017C0019602C080E0DB
S113039090E05D9904C0803523EC9207B0F35D9B37
S11303A00DC08BB180628BB96CB981E008956CB9D2
S11303B081E0089580E0089581E0089580E0089543
S11303C08330A8F4813049F018F0823059F011C01C
S11303D08AB180688AB981E008958AB180628AB955
S11303E081E008958AB180648AB981E0089580E04B
S11303F0089581E008958330A8F4813049F018F01D
S1130400823059F011C08AB18F778AB981E008959A
S11304108AB18F7D8AB981E008958AB18F7B8AB9C8
S113042081E0089580E0089581E00895009731F017
S11304309093A9008093A80081E0089580E0089536
S1130440009731F09093A5008093A40081E0089573
S113045080E008951F920F920FB60F9211242F93EC
S11304603F934F935F936F937F938F939F93AF9338
S1130470BF93EF93FF93E091A800F091A900309708
S113048009F00995FF91EF91BF91AF919F918F91E1
S11304907F916F915F914F913F912F910F900FBE7C
S11304A00F901F9018951F920F920FB60F92112460
S11304B02F933F934F935F936F937F938F939F9368
S11304C0AF93BF93EF93FF93E091A600F091A70041
S11304D0309709F00995FF91EF91BF91AF919F91EA
S11304E08F917F916F915F914F913F912F910F90D9
S11304F00FBE0F901F9018951F920F920FB60F9278
S113050011242F933F934F935F936F937F938F9314
S11305109F93AF93BF93EF93FF93E091A400F09167
S1130520A500309709F00995FF91EF91BF91AF9124
S11305309F918F917F916F915F914F913F912F91F7
S11305400F900FBE0F901F90189581E08093BC0010
S1130550089583E08093B9000895833030F48111C5
S113056006C00E94750181E0089580E0089581E04D
S113057008950F931F93CF93DF93833070F5611524
S1130580710569F181112DC08B01C82FD0E0FE01E6
S1130590EE57FF4F8081882359F085EA92E00E944C
S11305A0160280E00E94E001FE01EE57FF4F108228
S11305B0E091B300F091B400EE0FFF1FED52FF4F36
S11305C011830083CC0FDD1FCD54DF4F88819981C7
S11305D001969983888381E005C080E003C080E0B0
S11305E001C081E0DF91CF911F910F910895CF93C6
S11305F0DF93833070F56115710569F181112DC0A8
S1130600EB0180917F00882399F089EA92E00E94AF
S1130610200282E00E94E001E091AD00F091AE0082
S1130620EC0FFD1F608181E00E94BE0110927F00EB
S1130630ADEAB0E08D919C911197FC01EE0FFF1F84
S1130640E154FF4FD183C08301968D939C9381E045
S113065005C080E003C080E001C081E0DF91CF915C
S11306600895CF93DF931F92CDB7DEB78330E0F5C3
S113067081113CC019828091BC00813099F5BE0182
S11306806F5F7F4F0E9493012091AC00E22FF0E056
S1130690EE0FFF1FED52FF4F0190F081E02D90917E
S11306A0AB00E90FF11D89818083863221F09F5FC1
S11306B09093AB0014C0863291F41092AB0081E0A9
S11306C0809382002F5F2093AC0080E00E94FB01A6
S11306D0E091ED00F091EE00309709F0099582E089
S11306E08093BC0081E003C080E001C081E00F90F2
S11306F0DF91CF910895833008F052C0811152C028
S11307008091B900833009F04FC08091AA0090E035
S1130710FC01EE0FFF1FE154FF4F0190F081E02D2B
S113072020917E00E20FF11D60816A3049F081E082
S11307300E94BE0180917E008F5F80937E002BC05B
S1130740FC013196EE0FFF1FE154FF4F8081918130
S1130750892B61F066E281E00E94BE0110927E0066
S11307608091AA008F5F8093AA0015C06A3099F423
S113077066E281E00E94BE0181E080937E00809366
S11307807F0082E00E94FB01E091E700F091E80025
S1130790309709F0099584E08093B90081E00895C9
S11307A080E0089581E0089581E00895833068F43D
S11307B06115710561F0E82FF0E0EE0FFF1FE351C2
S11307C0FF4F7183608381E0089580E0089580E0A5
S11307D00895833068F46115710561F0E82FF0E045
S11307E0EE0FFF1FE951FF4F7183608381E008958D
S10F07F080E0089580E00895F894FFCFA5
S11307FC436F6E6669726D2042434D204F70657273
S113080C6174696E670000000000000000000101C3
S109081C010101010100CD
S9030000FC
