:100000000C942A000C949A080C94C3080C94EC08E5
:100010000C9447000C94470E0C9447000C94470036
:100020000C9447000C9447000C94A90B0C94D70B2C
:100030000C9447000C9447000C9447000C94470024
:100040000C9447000C9447000C9447000C94470014
:100050000C94470011241FBECFE5D8E0DEBFCDBF12
:1000600010E0A0E6B0E0E0EEF1E202C005900D92F3
:10007000A23CB107D9F720E0A2ECB0E001C01D928C
:10008000A13EB207E1F70E9434060C94EE100C94E6
:1000900000000E9415090E94AD040E94D30342E0B3
:1000A00063E081E00E94DB0581E690E00E9413039B
:1000B00064E082E00E940C030895CF93DF931F92C7
:1000C000CDB7DEB78FEF8983CE0101960E94F20390
:1000D00089818233E1F44EE160E081E690E00E94A4
:1000E00050034EE160E087E690E00E94500360E03C
:1000F00080E00E943E058DE690E00E94520504C01B
:10010000CE0101960E94F20389818133C9F70F90D5
:10011000DF91CF910895CF93DF9300D0CDB7DEB7B5
:100120008FEF898304C0CE0101960E94F20389817A
:100130008133C9F760E070E48CE995E40E94730BA9
:1001400060E080E00E943E058DE790E00E9452054D
:100150002BC060E081E00E943E058091600081300C
:1001600029F48BE890E00E94520504C081E990E0F8
:100170000E945205AE014E5F5F4F64E082E00E9434
:1001800010038A81813081F4809160008095809392
:10019000600007C0AE014E5F5F4F64E082E00E94E6
:1001A00010038A818130B1F38091CE00882389F2D7
:1001B0000E9431054EE160E081E690E00E9450032C
:1001C0004EE160E087E690E00E94500360E080E04E
:1001D0000E943E058DE690E00E94520560E070E0CE
:1001E0008AEF94E40E9419090E941D068C0160E0C8
:1001F00081E00E943E0587E990E00E94520567E099
:1002000081E00E943E05B80180E090E00E949E0FD0
:100210000E9468050E941D068C0167E081E00E9433
:100220003E05B80180E090E00E949E0F0E946805A4
:100230000734110508F469C060E070E48CE995E4C6
:100240000E94730B2BC04EE161E081E690E00E94BA
:1002500050034EE161E087E690E00E9450030E9467
:100260001D068C0166E080E00E943E0585EA90E074
:100270000E9452056EE080E00E943E0586E40E94E6
:10028000E90467E081E00E943E05B80180E090E06B
:100290000E949E0F0E9468050E945D008091CE0022
:1002A00081112FC00734110570F62BC042E361E0C5
:1002B00081E690E00E94500342E361E087E690E02F
:1002C0000E9450030E941D068C0166E080E00E949F
:1002D0003E0588EA90E00E9452056EE080E00E94B0
:1002E0003E0586E40E94E90467E081E00E943E0545
:1002F000B80180E090E00E949E0F0E9468050E9475
:100300005D000734110590F685CFC8014F97889797
:1003100060F54EE161E081E690E00E9450034EE11D
:1003200061E087E690E00E9450030E941D068C0168
:1003300066E080E00E943E0585EA90E00E9452055A
:100340006EE080E00E943E0586E40E94E90467E0DA
:1003500081E00E943E05B80180E090E00E949E0F7F
:100360000E9468050E945D0055CFC80145970A9715
:1003700008F0BAC04EE160E081E690E00E945003D0
:100380004EE160E087E690E00E9450030E941D0667
:100390008C0166E080E00E943E058BEA90E00E94BE
:1003A00052056EE080E00E943E0583E50E94E9046C
:1003B0002BC04EE162E081E690E00E9450034EE1E6
:1003C00062E087E690E00E9450030E941D068C01C7
:1003D00066E080E00E943E0585EA90E00E945205BA
:1003E0006EE080E00E943E0582E40E94E90467E03E
:1003F00081E00E943E05B80180E090E00E949E0FDF
:100400000E9468050E945D000F31110590F28091F5
:1004100060008130E1F44EE162E081E690E00E940C
:1004200050034EE161E087E690E00E94500366E0F1
:1004300080E00E943E0585EA90E00E9452056EE051
:1004400080E00E943E0582E50E94E9041BC04EE167
:1004500061E081E690E00E9450034EE162E087E6B1
:1004600090E00E94500366E080E00E943E0585EA2D
:1004700090E00E9452056EE080E00E943E0582E519
:100480000E94E90460E070E086E194E40E941909AA
:100490000E941D068C0167E081E00E943E05B801C4
:1004A00080E090E00E949E0F0E9468054EE160E0AF
:1004B00081E690E00E9450034EE160E087E690E024
:1004C0000E94500366E080E00E943E058BEA90E0C7
:1004D0000E9452056EE080E00E943E0583E50E9486
:1004E000E9040E945D0096CE0531110508F092CE18
:1004F0004EE160E081E690E00E9450034EE160E052
:1005000087E690E00E9450030E941D068C0166E081
:1005100080E00E943E058BEA90E00E9452056EE06A
:1005200080E00E943E0583E50E94E90467E081E0E7
:100530000E943E05B80180E090E00E949E0F0E945C
:100540006805F12C39C00E945D000E941D068C01D7
:10055000F394809160008130A9F44EE162E081E67D
:1005600090E00E9450034EE161E087E690E00E9437
:10057000500360E081E00E943E058EEA90E00E9418
:10058000520514C04EE161E081E690E00E94500304
:100590004EE162E087E690E00E94500360E081E077
:1005A0000E943E058EEA90E00E94520560E070E0F5
:1005B00086E194E40E94190983E08F1518F0053153
:1005C000110508F284E0F81224C020C04EE160E07A
:1005D00081E690E00E9450034EE160E087E690E003
:1005E0000E9450030E941D068C0166E080E00E947C
:1005F0003E058BEA90E00E9452056EE080E00E948A
:100600003E0583E50E94E9040E945D000531110565
:10061000E8F20E945D00FECD40E00E943B06089596
:100620000E9425070895EF92FF921F93CF93DF93C7
:100630007C0110E02DC0C12FD0E0CE01880F991FA2
:10064000C80FD91FCC0FDD1FCE0DDF1D698141E022
:1006500088810E943B066B8141E08A810E943B06B3
:100660006D8141E08C810E943B06698140E0888178
:100670000E94B0066B8141E08A810E94B0062D8104
:100680004C816DEC7CEC8CE49EE30E94B90D1F5F05
:10069000123088F2DF91CF911F91FF90EF90089573
:1006A0001F93CF93DF93009789F1633088F5453628
:1006B00088F5142FEC01613079F018F06230B9F050
:1006C00020C0698140E088810E94B0066B8140E0D3
:1006D0008A810E94B00615C0698141E088810E942C
:1006E000B0066B8140E08A810E94B0060AC0698131
:1006F00040E088810E94B0066B8141E08A810E94BF
:10070000B006812F0E94EB0D81E005C080E003C0A0
:1007100080E001C080E0DF91CF911F9108950F9399
:100720001F93CF93DF93CDB7DEB727970FB6F8941B
:10073000DEBF0FBECDBF8C01FC0180818A83198290
:100740001B82CE0101960E94160CF8016181828104
:100750000E940608F80182818093C20027960FB696
:10076000F894DEBF0FBECDBFDF91CF911F910F91E7
:100770000895BC018091C2000E94870808958330CB
:1007800031F463E08091C2000E940608089562E09F
:100790008091C2000E94060808950E94610C08958D
:1007A0000E94640C089541E062E082E00E943B06F2
:1007B00040E065E082E00E943B0640E066E082E0C7
:1007C0000E943B0641E062E082E00E94B00641E008
:1007D00065E082E00E94B00641E066E082E00E94AF
:1007E000B0060895AF92BF92CF92DF92EF92FF9240
:1007F0000F931F93CF93DF931F92CDB7DEB7009770
:1008000009F456C07C018FEFF701808300E0C12C12
:100810004AC040E062E082E00E94B00610E038C0CA
:10082000A12EB12CF501E254FF4FD080AE014F5FF5
:100830005F4F6D2D82E00E9425078981811127C0BD
:100840008FE39CE90197F1F700C00000AE014F5F14
:100850005F4F6D2D82E00E94250707C0AE014F5FFC
:100860005F4F6D2D82E00E94250789818823B1F3B7
:10087000802F90E0880F991F80549F4FFC01EA0D54
:10088000FB1D8081F7018083CC24C39403C01F5FCC
:10089000123030F241E062E082E00E94B006F1E006
:1008A000CF1621F00F5F002309F4B3CF81E001C020
:1008B00080E00F90DF91CF911F910F91FF90EF900B
:1008C000DF90CF90BF90AF900895CF93C82F682F3F
:1008D00080E00E94BA0740E061E080E00E94B0063C
:1008E00040E062E080E00E94B00641E063E080E02A
:1008F0000E94B00682E08A95F1F700C040E063E014
:1009000080E00E94B0068FE99FE00197F1F700C0F8
:1009100000006C2F80E00E94DA0740E061E080E098
:100920000E94B00640E062E080E00E94B00641E034
:1009300063E080E00E94B00692E09A95F1F700C073
:1009400040E063E080E00E94B0068FE697E1019707
:10095000F1F700C00000CF91089541E067E080E02A
:100960000E943B0641E066E080E00E943B0641E0D9
:1009700065E080E00E943B0641E064E080E00E9488
:100980003B0641E063E080E00E943B0641E062E01C
:1009900080E00E943B0641E061E080E00E943B066F
:1009A0008FE39CE90197F1F700C0000082E00E940C
:1009B000650488E20E9465048CE00E94650486E07C
:1009C0000E94650481E00E94650480E80E9465043D
:1009D0000895CF93C82F682F80E00E94BA0741E0A6
:1009E00061E080E00E94B00640E062E080E00E94AA
:1009F000B00641E063E080E00E94B00682E08A95A4
:100A0000F1F700C040E063E080E00E94B0068FE9AB
:100A10009FE00197F1F700C000006C2F80E00E947A
:100A2000DA0741E061E080E00E94B00640E062E069
:100A300080E00E94B00641E063E080E00E94B006E2
:100A400092E09A95F1F700C040E063E080E00E94F8
:100A5000B0068FE99FE00197F1F700C00000CF9149
:100A6000089581E00E9465048FE99FE00197F1F706
:100A700000C0000080E80E9465040895811108C04C
:100A8000603130F4862F8F7080680E94650408956D
:100A9000813039F4603128F4862F8F70806C0E9489
:100AA000650408950F931F93CF93DF938C01C0E0EB
:100AB000D0E003C00E94E9042196F801EC0FFD1F6D
:100AC00080818111F7CFDF91CF911F910F91089510
:100AD0000F931F93CF93DF93CDB7DEB72A970FB64F
:100AE000F894DEBF0FBECDBF0E946F0F10E000E094
:100AF00014C02AE030E040E050E00E94BD10E1E088
:100B0000F0E0EC0FFD1FE10FF11D605D6083622FCF
:100B1000732F842F952F0F5F1F5F6115710581055E
:100B2000910539F78FEF810F90E012C0A1E0B0E09E
:100B3000AC0FBD1FA80FB11D2C91E1E0F0E0EC0F50
:100B4000FD1FE90FF11D30813C93208381509F5F91
:100B5000981760F3E1E0F0E0EC0FFD1FE00FF11DEE
:100B60001082CE0101960E9452052A960FB6F89483
:100B7000DEBF0FBECDBFDF91CF911F910F910895C2
:100B80008091C7008F5F8093C700813031F40E944D
:100B9000D00382E00E94BF030895823059F40E947E
:100BA000CD039093C6008093C5000E94D00383E0DC
:100BB0000E94BF0308950F931F93CF93DF9300D03C
:100BC0001F92CDB7DEB7182F062F82E0898383E00E
:100BD0008A834B831093C4006093C300CE010196B7
:100BE0000E948F0380EC95E00E94B90341E0602FE2
:100BF000812F0E943B0640E0602F812F0E94B006AB
:100C00000F900F900F90DF91CF911F910F9108954A
:100C100041E06091C3008091C4000E94B00660E092
:100C200070E080E89FE30E94190940E06091C300F2
:100C30008091C4000E94B00608950E940806809129
:100C4000C7008230E1F72091C5003091C600AFE9BE
:100C5000B6E40E94DF101092C700929582958F70C3
:100C600089279F70892708950E9449000E948B0060
:100C700080E090E00895813011F130F08230D1F1C0
:100C8000833009F452C00895413059F42AB381E009
:100C900090E002C0880F991F6A95E2F7822B8ABB09
:100CA000089541115CC02AB381E090E002C0880F32
:100CB000991F6A95E2F7809582238ABB0895413097
:100CC00059F427B381E090E002C0880F991F6A951C
:100CD000E2F7822B87BB0895411141C027B381E021
:100CE00090E002C0880F991F6A95E2F780958223F1
:100CF00087BB0895413059F424B381E090E002C0ED
:100D0000880F991F6A95E2F7822B84BB08954111E1
:100D100026C024B381E090E002C0880F991F6A9535
:100D2000E2F78095822384BB0895413059F421B3C2
:100D300081E090E002C0880F991F6A95E2F7822B4C
:100D400081BB089541110BC021B381E090E002C046
:100D5000880F991F6A95E2F78095822381BB0895D9
:100D6000813011F130F08230D1F1833009F452C07A
:100D70000895413059F42BB381E090E002C0880F10
:100D8000991F6A95E2F7822B8BBB089541115CC0D5
:100D90002BB381E090E002C0880F991F6A95E2F7BB
:100DA000809582238BBB0895413059F428B381E0AC
:100DB00090E002C0880F991F6A95E2F7822B88BBEA
:100DC0000895411141C028B381E090E002C0880F2E
:100DD000991F6A95E2F78095822388BB0895413078
:100DE00059F425B381E090E002C0880F991F6A95FD
:100DF000E2F7822B85BB0895411126C025B381E01F
:100E000090E002C0880F991F6A95E2F780958223CF
:100E100085BB0895413059F422B381E090E002C0CF
:100E2000880F991F6A95E2F7822B82BB08954111C2
:100E30000BC022B381E090E002C0880F991F6A9531
:100E4000E2F78095822382BB08958130E9F030F08B
:100E5000823081F1833009F443C0089579B381E091
:100E600090E09C01062E02C0220F331F0A94E2F785
:100E7000872F90E08223932302C0959587956A95EA
:100E8000E2F7FA018083089576B381E090E09C0157
:100E9000062E02C0220F331F0A94E2F7872F90E03C
:100EA0008223932302C0959587956A95E2F7FA010C
:100EB0008083089573B381E090E09C01062E02C008
:100EC000220F331F0A94E2F7872F90E082239323A7
:100ED00002C0959587956A95E2F7FA018083089597
:100EE00070B381E090E09C01062E02C0220F331FF8
:100EF0000A94E2F7872F90E08223932302C095950E
:100F000087956A95E2F7FA0180830895813089F028
:100F100028F08230C9F0833011F108952BB381E0BD
:100F200090E002C0880F991F6A95E2F782278BBB79
:100F3000089528B381E090E002C0880F991F6A9558
:100F4000E2F7822788BB089525B381E090E002C0D4
:100F5000880F991F6A95E2F7822785BB089522B30F
:100F600081E090E002C0880F991F6A95E2F782271E
:100F700082BB0895813061F028F0823079F08330AF
:100F800099F008958BB38F70607F682B6BBB0895C9
:100F900088B38F70607F682B68BB089585B38F70AE
:100FA000607F682B65BB089582B38F70607F682B6C
:100FB00062BB0895813079F028F08230A9F0833047
:100FC000E1F008958BB390E1699FB00111248F7017
:100FD000682B6BBB089588B390E1699FB001112421
:100FE0008F70682B68BB089585B390E1699FB0014D
:100FF00011248F70682B65BB089582B390E1699FBF
:10100000B00111248F70682B62BB0895833008F003
:1010100072C0643008F071C0813081F120F08230FC
:1010200009F457C06CC08BB780648BBF613071F01E
:1010300028F0623099F06330C9F063C085B78E7FC5
:1010400085BF85B78D7F85BF81E0089585B78160B5
:1010500085BF85B78D7F85BF81E0089585B78E7F79
:1010600085BF85B7826085BF81E0089585B78160BF
:1010700085BF85B7826085BF81E008958BB78068A2
:101080008BBF613071F028F0623099F06330C9F0A5
:101090003AC085B78B7F85BF85B7877F85BF81E0E5
:1010A000089585B7846085BF85B7877F85BF81E058
:1010B000089585B78B7F85BF85B7886085BF81E040
:1010C000089585B7846085BF85B7886085BF81E056
:1010D00008958BB780628BBF623019F0633031F0B6
:1010E00014C084B78F7B84BF81E0089584B7806487
:1010F00084BF81E0089580E0089580E0089581E054
:10110000089581E0089581E0089581E00895833095
:1011100068F46115710561F0E82FF0E0EE0FFF1F34
:10112000E853FF4F7183608381E0089580E0089564
:1011300080E008951F920F920FB60F9211242F9303
:101140003F934F935F936F937F938F939F93AF934F
:10115000BF93EF93FF93E091C800F091C9003097DF
:1011600009F00995FF91EF91BF91AF919F918F91F8
:101170007F916F915F914F913F912F910F900FBE93
:101180000F901F9018951F920F920FB60F92112477
:101190002F933F934F935F936F937F938F939F937F
:1011A000AF93BF93EF93FF93E091CA00F091CB0010
:1011B000309709F00995FF91EF91BF91AF919F9101
:1011C0008F917F916F915F914F913F912F910F90F0
:1011D0000FBE0F901F9018951F920F920FB60F928F
:1011E00011242F933F934F935F936F937F938F932C
:1011F0009F93AF93BF93EF93FF93E091CC00F09157
:10120000CD00309709F00995FF91EF91BF91AF9113
:101210009F918F917F916F915F914F913F912F910E
:101220000F900FBE0F901F9018958FB780688FBFDB
:1012300008958F929F92AF92BF92CF92DF92EF92DA
:10124000FF921F93CF93DF93CDB7DEB727970FB6EB
:10125000F894DEBF0FBECDBF6B017C012FE632E1FB
:1012600043E052E40E94F80E18160CF453C02FE627
:1012700032E143E05DE3C701B6010E94F80E1816A3
:101280002CF081E090E09A83898345C02FE632E11B
:1012900043E85EE3C701B6010E94F80E181634F069
:1012A00088E090E09A83898381E035C02FE632E1BF
:1012B00043E050E4C701B6010E94F80E181634F05E
:1012C00080E490E09A83898381E025C02FE632E1B3
:1012D00043E051E4C701B6010E94F80E181634F03D
:1012E00080E091E09A83898381E015C02FE632E1A6
:1012F00043E052E4C701B6010E94F80E181634F01C
:1013000080E094E09A83898381E005C01A82198283
:1013100081E001C080E0882309F475C089819A8149
:1013200080349105A1F130F48130910561F0089786
:10133000E1F063C0811521E09207D9F18115944055
:1013400009F449C05AC0A70196016FE672E183E033
:101350009DE30E948B0E2FE632E143E059E30E94A9
:10136000FD0E0E946F0F6B8349C0A70196016FE6C7
:1013700072E183E89EE30E948B0E2FE632E143E8A0
:101380005AE30E94FD0E0E946F0F6B8337C0A701C6
:1013900096016FE672E183E090E40E948B0E2FE6E7
:1013A00032E143E05CE30E94FD0E0E946F0F6B830D
:1013B00025C0A70196016FE672E183E091E40E94E7
:1013C0008B0E2FE632E143E05DE30E94FD0E0E94AA
:1013D0006F0F6B8313C0A70196016FE672E183E084
:1013E00092E40E948B0E2FE632E143E05EE30E941E
:1013F000FD0E0E946F0F6B8301C01B821C821D8239
:101400001E821F8211C080E094E09A8389832FE6B8
:1014100032E143E052E4C701B6010E94FD0E6C8345
:101420007D838E839F831B82CC80DD80EE80FF8056
:10143000C701B6010E946F0F162F70E080E090E0A8
:101440000E94A00F9B01AC01C701B6010E948B0E48
:101450002FE632E143E052E40E9450100E946F0FE9
:10146000F62E8B8182BF111128C089819A81803428
:101470009105A9F030F48130910559F0089761F099
:1014800017C0811521E0920769F08115944069F039
:101490000FC081E883BF0DC082E883BF0AC083E824
:1014A00083BF07C084E883BF04C085E883BF01C051
:1014B00013BE08B600FEFDCF00C185E883BF07C09C
:1014C00008B600FEFDCF115088B7816088BF1111AA
:1014D000F7CFFF2009F453C06F2D70E080E090E05B
:1014E0000E94A00F4B015C012FE632E143E05DE377
:1014F0000E94F80E18162CF081E090E09A83898300
:101500003EC02FE632E143E85EE3C501B4010E942C
:10151000F80E18162CF088E090E09A8389832FC08B
:101520002FE632E143E050E4C501B4010E94F80E19
:1015300018162CF080E490E09A83898320C02FE66F
:1015400032E143E051E4C501B4010E94F80E1816DF
:101550002CF080E091E09A83898311C02FE632E17C
:1015600043E052E4C501B4010E94F80E18162CF0B5
:1015700080E094E09A83898302C01A82198289816B
:101580009A818034910509F445C030F48130910589
:1015900069F0089729F18CC0811521E0920709F4C0
:1015A00053C08115944009F469C082C06F2D70E06A
:1015B00080E090E00E94A00F9B01AC016FE672E119
:1015C00083E09DE30E948B0E2FE632E143E059E376
:1015D0000E94FD0E0E946F0F62BF81E883BF6AC048
:1015E0006F2D70E080E090E00E94A00F9B01AC01A5
:1015F0006FE672E183E89EE30E948B0E2FE632E1F4
:1016000043E85AE30E94FD0E0E946F0F62BF82E81A
:1016100083BF50C06F2D70E080E090E00E94A00F6B
:101620009B01AC016FE672E183E090E40E948B0EB7
:101630002FE632E143E05CE30E94FD0E0E946F0F53
:1016400062BF83E883BF36C06F2D70E080E090E01A
:101650000E94A00F9B01AC016FE672E183E091E470
:101660000E948B0E2FE632E143E05DE30E94FD0E07
:101670000E946F0F62BF84E883BF1CC06F2D70E0B3
:1016800080E090E00E94A00F9B01AC016FE672E148
:1016900083E092E40E948B0E2FE632E143E05EE3AA
:1016A0000E94FD0E0E946F0F62BF85E883BF02C0DB
:1016B00012BE13BE08B600FEFDCF88B7816088BF9A
:1016C00013BE27960FB6F894DEBF0FBECDBFDF91D5
:1016D000CF911F91FF90EF90DF90CF90BF90AF9090
:1016E0009F908F900895CF92DF92EF92FF926B01BF
:1016F0007C012FE632E143E052E40E94F80E882399
:101700004CF4C701B6010E946F0F6093CF00109296
:10171000D1000FC02FE632E143E052E4C701B60129
:101720000E94FD0E0E946F0F6093D1008FEF809397
:10173000CF0012BE8091CF008CBF89B7826089BF75
:101740001092CE008DE883BFFF90EF90DF90CF9096
:1017500008951F920F920FB60F9211248F939F93AB
:101760008091D100882399F08091D0008F5F809381
:10177000D0009091D0008091D100981311C0809139
:10178000CE008F5F8093CE001092D00009C0809170
:10179000CE008F5F8093CE0012BE8091CF008CBFB1
:1017A0009F918F910F900FBE0F901F9018951F92D1
:1017B0000F920FB60F9211242F933F934F935F9385
:1017C0006F937F938F939F93AF93BF93EF93FF9309
:1017D000E091D200F091D3003097B9F08091D10020
:1017E000882379F08091D0008F5F8093D000909112
:1017F000D0008091D100981308C009951092D000B4
:1018000004C009958091CF0082BFFF91EF91BF91F5
:10181000AF919F918F917F916F915F914F913F9188
:101820002F910F900FBE0F901F901895FC011DBCBB
:101830001CBC1BBC1ABC19BC18BC17BC16BC8EB592
:101840009181887F892B8EBD2EB5948130E4939F42
:10185000C0011124922F9F7B892B8EBD2EB59681BE
:1018600030E8939FC0011124922F9F77892B8EBD62
:101870009FB580819C7F8370892B8FBD8EB59081B1
:101880009C70292F30E0220F331F220F331F220FAD
:10189000331F877E282B2EBD89B79381837C892BAC
:1018A00021F08281811103C003C080E001C081E08A
:1018B00089BF8081882311F0843011F48CE08FBDC2
:1018C00008958CB59DB508951DBC1CBC0895CF929C
:1018D000DF92EF92FF92CF93DF936B017C01EA01DD
:1018E0002FE632E143E052E40E94F80E18160CF4A1
:1018F00073C02FE632E143E05DE3C701B6010E9409
:10190000F80E18162CF081E090E09983888365C06A
:101910002FE632E143E85EE3C701B6010E94F80E0C
:10192000181634F088E090E09983888381E055C0F0
:101930002FE632E143E85FE3C701B6010E94F80EEB
:10194000181634F080E290E09983888381E045C0E6
:101950002FE632E143E050E4C701B6010E94F80EE1
:10196000181634F080E490E09983888381E035C0D4
:101970002FE632E143E850E4C701B6010E94F80EB9
:10198000181634F080E890E09983888381E025C0C0
:101990002FE632E143E051E4C701B6010E94F80EA0
:1019A000181634F080E091E09983888381E015C0B7
:1019B0002FE632E143E052E4C701B6010E94F80E7F
:1019C000181634F080E094E09983888381E005C0A4
:1019D0001982188281E001C080E0DF91CF91FF90F1
:1019E000EF90DF90CF900895CF93DF93EB01803499
:1019F000910509F44AC050F48830910531F18032E4
:101A0000910599F1019709F080C00FC0811561E03F
:101A1000960709F45AC0811564E0960709F465C079
:101A20008038910509F071C040C06FE672E183E033
:101A30009DE30E948B0E2FE632E143E059E30E94C2
:101A4000FD0E0E946F0F688361C06FE672E183E84C
:101A50009EE30E948B0E2FE632E143E85AE30E9498
:101A6000FD0E0E946F0F688351C06FE672E183E83C
:101A70009FE30E948B0E2FE632E143E85BE30E9476
:101A8000FD0E0E946F0F688341C06FE672E183E034
:101A900090E40E948B0E2FE632E143E05CE30E946B
:101AA000FD0E0E946F0F688331C06FE672E183E81C
:101AB00090E40E948B0E2FE632E143E85CE30E9443
:101AC000FD0E0E946F0F688321C06FE672E183E014
:101AD00091E40E948B0E2FE632E143E05DE30E9429
:101AE000FD0E0E946F0F688311C06FE672E183E004
:101AF00092E40E948B0E2FE632E143E05EE30E9407
:101B0000FD0E0E946F0F688301C01882DF91CF9194
:101B1000089580349105F9F048F488309105A9F0D2
:101B200080329105A9F0019711F50CC0811521E0D3
:101B30009207B9F0811524E09207B1F08038910541
:101B4000B1F40CC081E885BD089582E885BD089593
:101B500083E885BD089584E885BD089585E885BD41
:101B6000089586E885BD089587E885BD089515BC6C
:101B70000895CF92DF92EF92FF92CF93DF936B01A4
:101B80007C01C42FD22F4093E0002093DF0041E07E
:101B9000622F8C2F0E943B0640E06D2F8C2F0E94FD
:101BA000B006A701960160E070E080E89FE30E9424
:101BB000FD0E6093DA007093DB008093DC0090935D
:101BC000DD0089B7806489BFDF91CF91FF90EF90EE
:101BD000DF90CF9008958F929F92AF92BF92CF9255
:101BE000DF92EF92FF928090DA009090DB00A0905D
:101BF000DC00B090DD00682F70E080E090E00E9493
:101C0000A00FA50194010E94501020E030E048ECA4
:101C100052E40E94FD0E6B017C019B01AC01C501E9
:101C2000B4010E948B0E4B015C0145ED50E0C701F1
:101C3000B6010E94670C47ED50E0C501B4010E9457
:101C4000670CA701960169ED70E08091D500909135
:101C5000D6000E94F40CA50194016EED70E0809115
:101C6000D7009091D8000E94F40C8091D90084BDD7
:101C70008091D5009091D6000E94890DFF90EF9041
:101C8000DF90CF90BF90AF909F908F9008951F925C
:101C90000F920FB60F9211242F933F934F935F93A0
:101CA0006F937F938F939F93AF93BF93EF93FF9324
:101CB0008091D40081110DC08091D7009091D800FF
:101CC0000E94890D8091DE0084BD81E08093D40064
:101CD0000BC08091D5009091D6000E94890D809113
:101CE000D90084BD1092D4006091DF008091E000A3
:101CF0000E948607FF91EF91BF91AF919F918F91C5
:101D00007F916F915F914F913F912F910F900FBEF7
:101D10000F901F9018955058BB27AA270E94A30E1A
:101D20000C9416100E94081038F00E940F1020F03A
:101D300039F49F3F19F426F40C9405100EF4E09545
:101D4000E7FB0C94FF0FE92F0E94271058F3BA17F6
:101D5000620773078407950720F079F4A6F50C94C1
:101D600049100EF4E0950B2EBA2FA02D0B01B901EE
:101D700090010C01CA01A0011124FF27591B99F001
:101D8000593F50F4503E68F11A16F040A22F232F0D
:101D9000342F4427585FF3CF469537952795A7955D
:101DA000F0405395C9F77EF41F16BA0B620B730B04
:101DB000840BBAF09150A1F0FF0FBB1F661F771F75
:101DC000881FC2F70EC0BA0F621F731F841F48F42A
:101DD000879577956795B795F7959E3F08F0B0CFB3
:101DE0009395880F08F09927EE0F9795879508959A
:101DF0000E94DB0F08F481E008950E94110F0C94FB
:101E000016100E940F1058F00E94081040F029F49C
:101E10005F3F29F00C94FF0F51110C944A100C9461
:101E200005100E94271068F39923B1F3552391F30D
:101E3000951B550BBB27AA2762177307840738F039
:101E40009F5F5F4F220F331F441FAA1FA9F335D096
:101E50000E2E3AF0E0E832D091505040E695001C4A
:101E6000CAF72BD0FE2F29D0660F771F881FBB1F04
:101E7000261737074807AB07B0E809F0BB0B802DE2
:101E8000BF01FF2793585F4F3AF09E3F510578F00E
:101E90000C94FF0F0C944A105F3FE4F3983ED4F388
:101EA000869577956795B795F7959F5FC9F7880FE2
:101EB000911D9695879597F90895E1E0660F771F34
:101EC000881FBB1F621773078407BA0720F0621BC5
:101ED000730B840BBA0BEE1F88F7E09508950E94F0
:101EE0002F1088F09F5798F0B92F9927B751B0F06D
:101EF000E1F0660F771F881F991F1AF0BA95C9F78E
:101F000014C0B13091F00E944910B1E008950C94D2
:101F10004910672F782F8827B85F39F0B93FCCF385
:101F2000869577956795B395D9F73EF4909580950A
:101F3000709561957F4F8F4F9F4F0895E89409C02A
:101F400097FB3EF490958095709561957F4F8F4FEC
:101F50009F4F9923A9F0F92F96E9BB279395F69502
:101F6000879577956795B795F111F8CFFAF4BB0F80
:101F700011F460FF1BC06F5F7F4F8F4F9F4F16C0E4
:101F8000882311F096E911C0772321F09EE8872F6E
:101F9000762F05C0662371F096E8862F70E060E02A
:101FA0002AF09A95660F771F881FDAF7880F9695A3
:101FB000879597F90895990F0008550FAA0BE0E847
:101FC000FEEF16161706E807F907C0F012161306FB
:101FD000E407F50798F0621B730B840B950B39F43B
:101FE0000A2661F0232B242B252B21F408950A26A1
:101FF00009F4A140A6958FEF811D811D089597F9E1
:102000009F6780E870E060E008959FEF80EC08959E
:1020100000240A94161617061806090608950024C7
:102020000A9412161306140605060895092E039441
:10203000000C11F4882352F0BB0F40F4BF2B11F4B5
:1020400060FF04C06F5F7F4F8F4F9F4F089557FD14
:102050009058440F551F59F05F3F71F04795880F16
:1020600097FB991F61F09F3F79F0879508951216AD
:1020700013061406551FF2CF4695F1DF08C0161659
:1020800017061806991FF1CF86957105610508940A
:102090000895E894BB2766277727CB0197F9089521
:1020A0000E9463100C9416100E94081038F00E94D1
:1020B0000F1020F0952311F00C94FF0F0C940510D5
:1020C00011240C944A100E94271070F3959FC1F3BD
:1020D000950F50E0551F629FF001729FBB27F00DD6
:1020E000B11D639FAA27F00DB11DAA1F649F66272B
:1020F000B00DA11D661F829F2227B00DA11D621F7A
:10210000739FB00DA11D621F839FA00D611D221F33
:10211000749F3327A00D611D231F849F600D211D17
:10212000822F762F6A2F11249F5750409AF0F1F09A
:1021300088234AF0EE0FFF1FBB1F661F771F881F03
:1021400091505040A9F79E3F510580F00C94FF0F2D
:102150000C944A105F3FE4F3983ED4F3869577954C
:102160006795B795F795E7959F5FC1F7FE2B880FA9
:10217000911D9695879597F90895A1E21A2EAA1BAD
:10218000BB1BFD010DC0AA1FBB1FEE1FFF1FA21727
:10219000B307E407F50720F0A21BB30BE40BF50B24
:1021A000661F771F881F991F1A9469F760957095AD
:1021B000809590959B01AC01BD01CF010895A29F30
:1021C000B001B39FC001A39F700D811D1124911D0B
:1021D000B29F700D811D1124911D0895F894FFCFB9
:1021E0000103020303030403060307030553706599
:1021F00065643A303025204469723A53005365745F
:10220000204465662E20526F742E00524947485470
:10221000004C4546542000446973742E3A20202017
:102220002020436D003330003530003030005370D3
:102230006565643A333025204469723A52000506D8
:02224000313239
:00000001FF
