S01900004C45442053657175656E63652056312E302E73726563D8
S11300000C9432000C9447000C9447000C94470065
S11300100C9447000C9447000C9447000C94470040
S11300200C9447000C9447000C9447000C94470030
S11300300C9447000C9447000C9447000C94470020
S11300400C9447000C9447000C9447000C94470010
S11300500C94470094009A00A000A600AC00B200E3
S1130060B800BE0011241FBECFE5D8E0DEBFCDBF6F
S113007010E0A0E6B0E0EEE2F3E002C005900D92DD
S1130080A836B107D9F70E94EC000C9495010C94A2
S113009000000E94CA000895CF93DF93CDB7DEB766
S11300A029970FB6F894DEBF0FBECDBF81E08983D8
S11300B088E0E0E6F0E0DE01129601900D928A9568
S11300C0E1F710E0BE016F5F7F4F83E00E94840080
S11300D08981882339F00DC0BE016F5F7F4F83E0B3
S11300E00E94840089818823B9F31F5F183009F4C2
S11300F010E0E2E0F0E0EC0FFD1FE10FF11D60E025
S113010080810E94CD00DECF8930F0F56115710544
S1130110E9F190E0FC013197E830F105C8F5AB0155
S1130120E65DFF4F0C948F0160E083E00E94FE00C7
S113013081E0089561E083E00E94FE0081E008957B
S113014062E083E00E94FE0081E0089563E083E0C2
S11301500E94FE0081E0089564E083E00E94FE00B6
S113016081E0089565E083E00E94FE0081E0089547
S113017066E083E00E94FE0081E0089567E083E08A
S11301800E94FE0081E0089580E0089580E00895D3
S113019081E008950E94F30008956330C8F461304B
S11301A051F018F0623069F015C0682F80E00E94A9
S11301B0750181E0089560E080E00E94750181E0AE
S11301C00895682F609580E00E94750181E008958C
S11301D080E0089581E008950E9449000E944C0047
S11301E080E090E008958FE08ABB17BA14BA11BA80
S11301F01BBA18BA15BA84E082BB0895843008F09B
S11302006CC0683008F06BC04115510509F469C031
S11302108130F1F030F0823091F1833009F446C03E
S113022062C079B381E090E09C01062E02C0220FE7
S1130230331F0A94E2F7872F90E08223932302C0AE
S1130240959587956A95E2F7FA01808381E0089590
S113025076B381E090E09C01062E02C0220F331F8A
S11302600A94E2F7872F90E08223932302C09595A6
S113027087956A95E2F7FA01808381E0089573B364
S113028081E090E09C01062E02C0220F331F0A94E5
S1130290E2F7872F90E08223932302C095958795F8
S11302A06A95E2F7FA01808381E0089570B381E0F2
S11302B090E09C01062E02C0220F331F0A94E2F73D
S11302C0872F90E08223932302C0959587956A95A2
S11302D0E2F7FA01808381E0089580E0089580E0E8
S11302E0089580E0089581E008958430A0F4813079
S11302F049F028F0823049F0833051F00EC06BBBD6
S113030081E0089568BB81E0089565BB81E00895AC
S113031062BB81E0089580E0089581E00895EE0FC6
S1110320FF1F0590F491E02D0994F894FFCF8F
S10B032EF0F1F3F7FFFEFCF807
S9030000FC
