:100000000C942A000C9447000C9447000C94470071
:100010000C94310A0C94F6090C9447000C94470098
:100020000C9447000C9447000C9447000C94470034
:100030000C9447000C9447000C9447000C94470024
:100040000C940C050C9447000C9447000C9447004A
:100050000C94470011241FBECFE5D8E0DEBFCDBF12
:1000600011E0A0E6B0E0E0E0F0E202C005900D9201
:10007000A632B107D9F721E0A6E2B1E001C01D9296
:10008000A833B207E1F70E94A2040C94FE0F0C946F
:100090000000EF92FF921F93CF93DF93CDB7DEB7AF
:1000A000A2970FB6F894DEBF0FBECDBF182F8130D8
:1000B00019F0843091F069C00E947B020E944602D0
:1000C0000E94490460E081E00E94820382E790E0A0
:1000D0000E94B0031093600058C00E9475020E94F5
:1000E00046020E94490481E890E00E94B00384EF38
:1000F00091E00E940F080E94490480EA90E00E946B
:10010000B00380ED97E00E940F080E944F04809199
:1001100062008F93809161008F938EEB90E09F93AC
:100120008F937E0182E1E80EF11CFF92EF920E9414
:10013000140DC7010E94B00360E081E00E948203B9
:100140001A821982FE0133968FE0DF011D928A9593
:10015000E9F74091610050916200425151096CE70A
:1001600070E0CE0101960E940D0DCE0101960E9415
:10017000B00380E197E20E945009109360000F9055
:100180000F900F900F900F900F90A2960FB6F894CB
:10019000DEBF0FBECDBFDF91CF911F91FF90EF90DB
:1001A000089581E00E947C0780E00E94CC080E94B4
:1001B00067040E943A020E944C020E9400040E94BE
:1001C000490464E080E00E9482038FEC90E00E948A
:1001D000B00388EE93E00E940F080E944F0487EE60
:1001E00090E00E94B00388EE93E00E940F080E9406
:1001F000490484E00E94490008950F931F93CF9310
:10020000DF9300D01F92CDB7DEB76091610070918F
:1002100062006332710519F4813009F475C06231EE
:10022000710519F4823009F46FC0813031F5623202
:10023000710539F46FE00E9482038FEF0E9448033A
:1002400012C06231710541F460E081E00E948203D6
:100250008CE70E94480307C0625181E00E9482033C
:100260008CE70E94480380916100909162000196A2
:10027000909362008093610028C0823031F5633131
:10028000710541F460E081E00E9482038FEF0E94DB
:10029000480312C06332710541F46FE081E00E94AF
:1002A00082038CE70E94480307C0635181E00E94EB
:1002B000820380E20E944803809161009091620075
:1002C0000197909362008093610067E080E00E9454
:1002D0008203809162008F93809161008F9386E00A
:1002E00091E09F938F938E010F5F1F4F1F930F938A
:1002F0000E94140DC8010E94B0030F900F900F9040
:100300000F900F900F9008C00E94400288EE93E07B
:100310000E940F080E9446020F900F900F90DF91ED
:10032000CF911F910F91089584E190E09093620026
:10033000809361000E94490489E091E00E94B0032B
:1003400088EE93E00E940F0881E00E944900089522
:10035000CF93DF93CDB7DEB728970FB6F894DEBF03
:100360000FBECDBF80916000813089F18430D1F71C
:100370008FEF8983CE0101960E94810289819FECD3
:10038000980F923068F480E197E20E9450098981C9
:10039000813311F481E001C082E00E94FD0007C0BA
:1003A000833329F40E94EC0981E00E944900809186
:1003B00037018130B9F61092370184E190E09093D3
:1003C00062008093610081E00E944900CBCF84E10C
:1003D00090E09F838E83CE0106960E946A046EE0B1
:1003E00081E00E9482038F818F938E818F9386E0BC
:1003F00091E09F938F938E010F5F1F4F1F930F9379
:100400000E94140DC8010E94B0038FEF8887CE01AF
:1004100008960E94810288850F900F900F900F9090
:100420000F900F90853319F40E9494019BCF843371
:1004300021F484E00E94490095CF2E813F81809174
:100440006100909162008217930750F46FE080E0A2
:100450000E94820380E00E9448030E94400282CFF3
:100460006FE080E00E94820380E20E9448030E94C5
:10047000460278CF41E061E083E00E9435050895AF
:1004800041E061E083E00E944206089540E061E0BF
:1004900083E00E944206089541E062E082E00E940B
:1004A000350541E062E083E00E94350540E062E00E
:1004B00085E00E94350540E062E086E00E94350557
:1004C00040E062E087E00E94350541E062E085E0BF
:1004D0000E94420641E062E086E00E94420641E05E
:1004E00062E087E00E944206089541E062E082E017
:1004F0000E943505089540E062E082E00E943505E3
:100500000895BF92CF92DF92EF92FF920F931F93C5
:10051000CF93DF93CDB7DEB727970FB6F894DEBF42
:100520000FBECDBF009709F469C06C0181E08F83D5
:100530008FEFF6018083F12CB12C5AC06894EE2421
:10054000E1F8EF0C40E062E08E2D0E94420610E0E0
:1005500043C091E09F8305E0010FAE01495F5F4F0B
:1005600062E0802F0E94D2059F81911134C084E106
:1005700090E00E940F08AE01495F5F4F62E0802F5C
:100580000E94D20507C0AE01495F5F4F62E0802F35
:100590000E94D2058F818823B1F386E0E4E6F0E083
:1005A000DE01119601900D928A95E1F78F2D90E072
:1005B000FC01EE0FFF1FE80FF91F81E090E08C0FA8
:1005C0009D1FE80FF91FE10FF11D8081F601808367
:1005D000BB24B39404C01F5F133008F4BACF41E0CA
:1005E00062E08E2D0E944206F1E0BF1629F0F394DE
:1005F00081E08F1508F0A2CF81E001C080E027964E
:100600000FB6F894DEBF0FBECDBFDF91CF911F9123
:100610000F91FF90EF90DF90CF90BF900895CF9310
:10062000C82F40E060E081E00E94420640EF6C2F5E
:1006300080E00E944B0741E060E083E00E944206B8
:1006400081E090E00E949E0740E060E083E00E942D
:10065000420688EC90E00E949E076C2F6295607FB6
:1006600040EF80E00E944B0741E060E083E00E94A1
:10067000420681E090E00E949E0740E060E083E057
:100680000E94420682E090E00E940F08CF910895F8
:10069000CF93C82F41E060E081E00E94420640E035
:1006A00060E083E00E94420640EF6C2F80E00E94F1
:1006B0004B0741E060E083E00E94420681E090E069
:1006C0000E949E0740E060E083E00E9442066C2F9B
:1006D0006295607F40EF80E00E944B0741E060E060
:1006E00083E00E94420681E090E00E949E0740E085
:1006F00060E083E00E94420689E190E00E940F08DA
:10070000CF9108950F931F93CF93DF9300D0CDB770
:10071000DEB78230D8F46031D8F4062F182F80E885
:10072000898380EC8A83E1E0F0E0EC0FFD1FE10FAC
:10073000F11D8081860F0E940F03602F80E1189FBA
:10074000600D11246093260181E003C080E001C0A8
:1007500080E00F900F90DF91CF911F910F9108953E
:10076000CF93DF93EC0122C08A3059F481E090915D
:100770002601903108F080E060E00E94820321961B
:1007800015C00E9448032196809126018F5F8093B7
:100790002601803129F460E081E00E94820306C0D6
:1007A000803221F460E080E00E9482038881811120
:1007B000DBCFDF91CF9108950F931F93CF93DF93FA
:1007C0006930C0F48C01862F90E00896880F880F5E
:1007D000880F0E940F03C0E0D0E007C0F801EC0FC3
:1007E000FD1F80810E9448032196C830D105B4F3D3
:1007F00081E001C080E0DF91CF911F910F910895BA
:10080000CF93DF93CDB7DEB728970FB6F894DEBF4E
:100810000FBECDBF4FEF6FEF80E00E941A074FEF82
:1008200060E080E00E944B0781E00E947C078AE044
:1008300090E00E940F0882E00E940F0388E20E946D
:100840000F038CE00E940F0386E00E940F0381E0FB
:100850000E940F0382E090E00E940F0888E0EAE621
:10086000F0E0DE01119601900D928A95E1F760E0CB
:10087000CE0101960E94DC0382E090E00E940F0806
:1008800028960FB6F894DEBF0FBECDBFDF91CF9193
:10089000089581E00E940F03109226010895CF93DE
:1008A000DF93C0E0D0E008C08CE10E940F0384E138
:1008B00090E00E940F082196C031D105ACF381E091
:1008C0000E940F0310922601DF91CF9108950E949C
:1008D000A90408950F931F93CF93DF9300D0CDB752
:1008E000DEB78C011A82198280E00E94CE04BE011C
:1008F0006F5F7F4F80E00E94DD0429813A81A0E094
:10090000BAE00E94FE0C9B01AC01012E1AE0569544
:100910004795379527951A95D1F7102DADECBCEC7E
:100920000E94FE0C96958795969587959695879546
:10093000F801918380830F900F90DF91CF911F91E9
:100940000F9108950E94D1000E94A80180E090E0DC
:10095000089587B1806487B987B1806887B987B106
:100960008F7D87B986B18F7D86B980B78F7D80BF37
:1009700080B78F7B80BF80B78F7780BF86B1877F3E
:1009800086B986B1816086B986B1826086B986B142
:10099000846086B986B1806886B90895803258F43B
:1009A00097B1907E97B997B1892B87B986B180644A
:1009B00086B981E0089580E00895823028F56115B8
:1009C000710521F1882329F08130B9F021C0019609
:1009D00002C080E090E0349904C0803523EC920797
:1009E000B0F3349B17C086B1806186B984B195B1EC
:1009F000FB019183808381E0089584B195B1FB016F
:100A00009183808381E0089580E0089580E00895D7
:100A100081E0089580E008951F920F920FB60F9223
:100A200011242F933F934F935F936F937F938F93F3
:100A30009F93AF93BF93EF93FF93E0912701F091C2
:100A40002801309709F00995FF91EF91BF91AF917F
:100A50009F918F917F916F915F914F913F912F91D6
:100A60000F900FBE0F901F901895883008F08EC021
:100A7000613049F138F0623009F446C0633009F45E
:100A800064C086C0413071F44AB321E030E0B9015E
:100A900002C0660F771F8A95E2F7CB01842B8ABBD1
:100AA00080E00895411176C04AB321E030E0B901F9
:100AB00002C0660F771F8A95E2F7CB0180958423E9
:100AC0008ABB80E00895413071F447B321E030E003
:100AD000B90102C0660F771F8A95E2F7CB01842B1C
:100AE00087BB80E00895411157C047B321E030E053
:100AF000B90102C0660F771F8A95E2F7CB01809596
:100B0000842387BB80E00895413071F444B321E031
:100B100030E0B90102C0660F771F8A95E2F7CB017A
:100B2000842B84BB80E00895411138C044B321E098
:100B300030E0B90102C0660F771F8A95E2F7CB015A
:100B40008095842384BB80E00895413071F441B3E3
:100B500021E030E0B90102C0660F771F8A95E2F705
:100B6000CB01842B81BB80E00895411119C041B3B2
:100B700021E030E0B90102C0660F771F8A95E2F7E5
:100B8000CB018095842381BB80E0089581E00895A6
:100B900081E0089581E0089581E0089581E008955D
:100BA00081E00895883008F069C06130F9F030F0D4
:100BB0006230A1F1633009F449C062C099B321E009
:100BC00030E0B901082E02C0660F771F0A94E2F7E1
:100BD000292F30E026233723B90102C07595679588
:100BE0008A95E2F7FA01608380E0089596B321E0E8
:100BF00030E0B901082E02C0660F771F0A94E2F7B1
:100C0000292F30E026233723B90102C07595679557
:100C10008A95E2F7FA01608380E0089593B321E0BA
:100C200030E0B901082E02C0660F771F0A94E2F780
:100C3000292F30E026233723B90102C07595679527
:100C40008A95E2F7FA01608380E0089590B321E08D
:100C500030E0B901082E02C0660F771F0A94E2F750
:100C6000292F30E026233723B90102C075956795F7
:100C70008A95E2F7FA01608380E0089581E00895A3
:100C800081E00895EF92FF920F931F93883008F050
:100C9000C1C06130B1F138F0623009F460C0633036
:100CA00009F48BC0B9C0423008F0B8C04423A1F0A9
:100CB0002BB341E050E060E070E07A018B0104C0AA
:100CC000EE0CFF1C001F111F8A95D2F7D801C70137
:100CD000822B8BBB80E0A9C02BB341E050E060E0E9
:100CE00070E07A018B0104C0EE0CFF1C001F111F85
:100CF0008A95D2F7D801C701809582238BBB80E00B
:100D000094C0423008F08CC04423A1F028B341E0E5
:100D100050E060E070E07A018B0104C0EE0CFF1C33
:100D2000001F111F8A95D2F7D801C701822B88BBFB
:100D300080E07BC028B341E050E060E070E07A01E1
:100D40008B0104C0EE0CFF1C001F111F8A95D2F707
:100D5000D801C7018095822388BB80E066C04230FD
:100D600008F060C04423A1F025B341E050E060E00A
:100D700070E07A018B0104C0EE0CFF1C001F111FF4
:100D80008A95D2F7D801C701822B85BB80E04DC080
:100D900025B341E050E060E070E07A018B0104C0CF
:100DA000EE0CFF1C001F111F8A95D2F7D801C70156
:100DB0008095822385BB80E038C04230A8F544236B
:100DC000A1F022B341E050E060E070E07A018B01D5
:100DD00004C0EE0CFF1C001F111F8A95D2F7D8012A
:100DE000C701822B82BB80E020C022B341E050E0EB
:100DF00060E070E07A018B0104C0EE0CFF1C001F64
:100E0000111F8A95D2F7D801C7018095822382BB32
:100E100080E00BC081E009C080E007C081E005C030
:100E200081E003C081E001C081E01F910F91FF903C
:100E3000EF900895411101C04FEF813079F028F013
:100E40008230A9F08330E1F024C08AB3942F9095CA
:100E500089236423682B6ABB80E0089587B3942FAD
:100E6000909589236423682B67BB80E0089584B341
:100E7000942F909589236423682B64BB80E00895A8
:100E800081B3942F909589236423682B61BB80E004
:100E9000089581E00895411101C04FEF813079F04C
:100EA00028F08230A9F08330E1F024C08BB3942F76
:100EB000909589236423682B6BBB80E0089588B3E9
:100EC000942F909589236423682B68BB80E0089554
:100ED00085B3942F909589236423682B65BB80E0AC
:100EE000089582B3942F909589236423682B62BB65
:100EF00080E0089581E00895882319F0813089F019
:100F00001BC083B78F7B83BF83B7877F83BF8FB7B8
:100F100080688FBF89B7816089BF1092630080E0CD
:100F2000089583B78F7B83BF83B7877F83BF81E0BB
:100F30008093630080E0089581E0089513BE8230BD
:100F4000910571F018F4019741F012C08A309105B3
:100F500051F0883C910551F00BC08FEF82BF08C063
:100F60008EEF82BF05C085EF82BF02C087E382BFDC
:100F700080E008958034910529F130F481309105A5
:100F800059F00897A1F03FC0811521E0920729F19F
:100F90008115944069F137C083B78D7F83BF83B7D4
:100FA0008B7F83BF83B7816083BF80E0089583B761
:100FB0008E7F83BF83B78B7F83BF83B7826083BFFE
:100FC00080E0089583B78B7F83BF83B7826083BF40
:100FD00083B7816083BF80E0089583B78D7F83BF2F
:100FE00083B78E7F83BF83B7846083BF80E008951B
:100FF00083B78D7F83BF83B7846083BF83B78160EE
:1010000083BF80E0089581E0089583B78E7F83BF1A
:1010100083B78D7F83BF83B78B7F83BF0895CF92C4
:10102000DF92EF92FF92E0912901F0912A0130972F
:1010300021F02081213009F4A9C013BEBC0180E059
:1010400090E00E94990B20E030E04AE754E40E94CF
:10105000F80A6B017C012DEB37E346E85EE30E9462
:10106000F30A8823C4F4A70196016DEB77E386E8C1
:101070009EE30E946F0A2DEB37E346E85AE30E9495
:10108000F80A0E946A0B62BF81E090E090933601FB
:10109000809335014FC02DEB37E346E85EE3C7018F
:1010A000B6010E94F30A811108C012BE81E090E0EF
:1010B00090933601809335013DC02DEB37E346E830
:1010C0005EE3C701B6010E94F80A0E94DC0A0E9492
:1010D0006A0B709336016093350180E090E00E94C6
:1010E000990B20E030E040E85FE30E946F0A2DEBAF
:1010F00037E346E85EE30E94910C9B01AC01C70117
:10110000B6010E946F0A2DEB37E346E85AE30E94CE
:10111000F80A9B01AC0160E070E080E893E40E9473
:101120006F0A0E946A0B62BF82B790E0909332010F
:1011300080933101109234011092330180E094E0E9
:101140000E94BA0780916300813089F080E01FC05F
:1011500008B600FEFDCF88B7816088BF809133015B
:101160009091340101969093340180933301209142
:10117000350130913601809133019091340182170D
:10118000930730F30E94050880E001C081E0FF90E2
:10119000EF90DF90CF900895882319F0813079F097
:1011A00016C085B58F7B85BD85B5877F85BD8FB71B
:1011B00080688FBF89B7806489BF80E0089585B556
:1011C0008F7B85BD85B5877F85BD80E0089581E0F3
:1011D000089580349105C1F150F48830910501F1F2
:1011E0008032910541F1019709F058C00EC0811578
:1011F00021E09207E9F1811524E0920709F443C048
:101200008038910509F04AC028C085B58D7F85BD1D
:1012100085B58B7F85BD85B5816085BD80E00895EE
:1012200085B58E7F85BD85B58B7F85BD85B5826093
:1012300085BD80E0089585B58B7F85BD85B58260CD
:1012400085BD85B5816085BD85B5846085BD85B565
:101250008D7F85BD85B58E7F85BD85B58B7F85BD31
:1012600085B58D7F85BD85B5816085BD80E008959C
:1012700085B5826085BD85B58E7F85BD85B5846069
:1012800085BD80E0089585B5826085BD85B58460A3
:1012900085BD85B5816085BD80E0089581E00895B4
:1012A000CF92DF92EF92FF92BC0180E090E00E942B
:1012B000990B20E030E04AE754E40E94F80A6B0101
:1012C0007C0127E337E346E856E40E948C0C1816AD
:1012D0000CF47CC015BC2DEB37E346E85EE3C70198
:1012E000B6010E94F30A8823C4F4A70196016DEBAE
:1012F00077E386E89EE30E946F0A2DEB37E346E82A
:101300005AE30E94F80A0E946A0B64BD81E090E0F3
:1013100090932E0180932D014FC02DEB37E346E8CB
:101320005EE3C701B6010E94F30A811108C014BC34
:1013300081E090E090932E0180932D013DC02DEB34
:1013400037E346E85EE3C701B6010E94F80A0E944F
:10135000DC0A0E946A0B70932E0160932D0180E0DD
:1013600090E00E94990B20E030E040E85FE30E94AB
:101370006F0A2DEB37E346E85EE30E94910C9B0178
:10138000AC01C701B6010E946F0A2DEB37E346E8B6
:101390005AE30E94F80A9B01AC0160E070E080E82B
:1013A00093E40E946F0A0E946A0B64BD84B590E0CA
:1013B00090932C0180932B011092300110922F01F9
:1013C00080E094E00E94E90880E001C081E0FF90A5
:1013D000EF90DF90CF90089585B58E7F85BD85B560
:1013E0008D7F85BD85B58B7F85BD08951F920F923A
:1013F0000FB60F9211242F933F934F935F936F93E8
:101400007F938F939F93AF93BF93EF93FF938091BD
:101410002F019091300101969093300180932F011C
:1014200020912D0130912E018217930748F01092E0
:10143000300110922F0181E0809337010E94EC0966
:10144000FF91EF91BF91AF919F918F917F916F919C
:101450005F914F913F912F910F900FBE0F901F9072
:1014600018951F920F920FB60F9211242F933F934E
:101470004F935F936F937F938F939F93AF93BF939C
:10148000EF93FF93809133019091340101969093F3
:101490003401809333012091350130913601821758
:1014A000930760F0109234011092330181E0809331
:1014B00037010E94050889B78E7F89BFFF91EF91A0
:1014C000BF91AF919F918F917F916F915F914F915C
:1014D0003F912F910F900FBE0F901F90189550586D
:1014E000BB27AA270E94870A0C943A0C0E942C0C56
:1014F00038F00E94330C20F039F49F3F19F426F4A1
:101500000C94290C0EF4E095E7FB0C94FA0BE92FF0
:101510000E944B0C58F3BA176207730784079507AC
:1015200020F079F4A6F50C94850C0EF4E0950B2EC2
:10153000BA2FA02D0B01B90190010C01CA01A00125
:101540001124FF27591B99F0593F50F4503E68F180
:101550001A16F040A22F232F342F4427585FF3CFC1
:10156000469537952795A795F0405395C9F77EF492
:101570001F16BA0B620B730B840BBAF09150A1F0DB
:10158000FF0FBB1F661F771F881FC2F70EC0BA0F61
:10159000621F731F841F48F4879577956795B795E9
:1015A000F7959E3F08F0B0CF9395880F08F09927E4
:1015B000EE0F9795879508950E946D0C90F09F37D8
:1015C00048F4911116F40C94860C60E070E080E809
:1015D0009FE3089526F01B16611D711D811D0C945B
:1015E000000C0C941B0C0E94D60B08F481E00895AB
:1015F0000E940C0B0C943A0C0E94330C58F00E9481
:101600002C0C40F029F45F3F29F00C94FA0B511197
:101610000C94860C0C94290C0E944B0C68F39923B3
:10162000B1F3552391F3951B550BBB27AA276217DE
:101630007307840738F09F5F5F4F220F331F441FEB
:10164000AA1FA9F335D00E2E3AF0E0E832D091501F
:101650005040E695001CCAF72BD0FE2F29D0660F0C
:10166000771F881FBB1F261737074807AB07B0E84F
:1016700009F0BB0B802DBF01FF2793585F4F3AF055
:101680009E3F510578F00C94FA0B0C94860C5F3F4A
:10169000E4F3983ED4F3869577956795B795F795DB
:1016A0009F5FC9F7880F911D9695879597F90895C3
:1016B000E1E0660F771F881FBB1F6217730784075F
:1016C000BA0720F0621B730B840BBA0BEE1F88F76E
:1016D000E09508950E94530C88F09F5798F0B92F19
:1016E0009927B751B0F0E1F0660F771F881F991F57
:1016F0001AF0BA95C9F714C0B13091F00E94850C68
:10170000B1E008950C94850C672F782F8827B85F77
:1017100039F0B93FCCF3869577956795B395D9F7AE
:101720003EF490958095709561957F4F8F4F9F4FB8
:101730000895E89409C097FB3EF4909580957095C4
:1017400061957F4F8F4F9F4F9923A9F0F92F96E90D
:10175000BB279395F695879577956795B795F11182
:10176000F8CFFAF4BB0F11F460FF1BC06F5F7F4F1F
:101770008F4F9F4F16C0882311F096E911C0772331
:1017800021F09EE8872F762F05C0662371F096E83A
:10179000862F70E060E02AF09A95660F771F881F09
:1017A000DAF7880F9695879597F90895990F0008AD
:1017B000550FAA0BE0E8FEEF16161706E807F90723
:1017C000C0F012161306E407F50798F0621B730BBE
:1017D000840B950B39F40A2661F0232B242B252B3F
:1017E00021F408950A2609F4A140A6958FEF811DE2
:1017F000811D089597F99F6780E870E060E0089583
:10180000882371F4772321F09850872B762F07C017
:10181000662311F499270DC09051862B70E060E08B
:101820002AF09A95660F771F881FDAF7880F96952A
:10183000879597F908959F3F31F0915020F487954F
:1018400077956795B795880F911D9695879597F928
:1018500008959FEF80EC089500240A941616170649
:1018600018060906089500240A9412161306140691
:1018700005060895092E0394000C11F4882352F0F4
:10188000BB0F40F4BF2B11F460FF04C06F5F7F4FAC
:101890008F4F9F4F089557FD9058440F551F59F093
:1018A0005F3F71F04795880F97FB991F61F09F3F4D
:1018B00079F087950895121613061406551FF2CF76
:1018C0004695F1DF08C0161617061806991FF1CFC6
:1018D000869571056105089408950E94530CA0F047
:1018E000BEE7B91788F4BB279F3860F41616B11D00
:1018F000672F782F8827985FF7CF8695779567951C
:10190000B11D93959639C8F30895E894BB276627CF
:101910007727CB0197F908950E94D60B08F48FEF33
:1019200008950E94A40C0C943A0C0E942C0C38F0E0
:101930000E94330C20F0952311F00C94FA0B0C94B8
:10194000290C11240C94860C0E944B0C70F3959F6B
:10195000C1F3950F50E0551F629FF001729FBB27A6
:10196000F00DB11D639FAA27F00DB11DAA1F649F42
:101970006627B00DA11D661F829F2227B00DA11DF5
:10198000621F739FB00DA11D621F839FA00D611D7B
:10199000221F749F3327A00D611D231F849F600D9C
:1019A000211D822F762F6A2F11249F5750409AF0C5
:1019B000F1F088234AF0EE0FFF1FBB1F661F771F51
:1019C000881F91505040A9F79E3F510580F00C941C
:1019D000FA0B0C94860C5F3FE4F3983ED4F38695A3
:1019E00077956795B795F795E7959F5FC1F7FE2BBC
:1019F000880F911D9695879597F90895A29FB0013C
:101A0000B39FC001A39F700D811D1124911DB29F32
:101A1000700D811D1124911D0895DC0101C06D938D
:101A200041505040E0F70895AEE0B0E0EAE1FDE05B
:101A30000C94D50F0D891E8986E08C831A83098347
:101A40008FEF9FE79E838D83AE01475E5F4F6F8967
:101A5000788DCE0101960E94360DEF81F885E00F5A
:101A6000F11F10822E96E4E00C94F10FABE0B0E091
:101A7000ECE3FDE00C94C70F6C017B018A01FC01D3
:101A800017821682838181FFCCC1CE0101963C0171
:101A9000F6019381F70193FD859193FF81917F0179
:101AA000882309F4BAC1853239F493FD859193FFF7
:101AB00081917F01853229F4B60190E00E942D0FBB
:101AC000E7CF912C212C312CFFE1F315D8F08B328C
:101AD00079F038F4803279F08332A1F4232D20613B
:101AE0001DC08D3261F0803369F4232D216016C052
:101AF000832D8260382EE32DE4603E2E2AC0F32D24
:101B0000F8601DC037FC2DC020ED280F2A3040F0B2
:101B10008E32B9F436FC81C1232D2064322E19C0D7
:101B200036FE06C08AE0989E200D1124922E11C028
:101B3000EAE02E9E200D1124222EF32DF0623F2E7E
:101B400008C08C3621F4832D8068382E02C0883678
:101B500041F4F70193FD859193FF81917F018111FC
:101B6000B3CF982F9F7D9554933028F40C5F1F4F6F
:101B70009FE399830DC0833631F0833771F083354D
:101B800009F059C021C0F801808189830E5F1F4F81
:101B900088248394912C530113C02801F2E04F0E46
:101BA000511CF801A080B18036FE03C0692D70E0A1
:101BB00002C06FEF7FEFC5010E94220F4C0182012E
:101BC000F32DFF773F2E16C0280122E0420E511C54
:101BD000F801A080B18036FE03C0692D70E002C01C
:101BE0006FEF7FEFC5010E94170F4C01F32DF068D6
:101BF0003F2E820133FC1BC0822D90E0881699068F
:101C0000B0F4B60180E290E00E942D0F2A94F4CF48
:101C1000F50137FC859137FE81915F01B60190E0B7
:101C20000E942D0F21102A9421E0821A910881141C
:101C3000910471F7E8C0843611F0893641F5F80156
:101C400037FE07C060817181828193810C5F1F4FD5
:101C500008C060817181072E000C880B990B0E5F04
:101C60001F4FF32DFF763F2E97FF09C0909580956B
:101C7000709561957F4F8F4F9F4FF0683F2E2AE000
:101C800030E0A3010E94690F882E861845C0853771
:101C900031F4232D2F7EB22E2AE030E025C0932D83
:101CA000997FB92E8F36C1F018F4883579F0B5C018
:101CB000803719F0883721F0B0C0E92FE061BE2EDF
:101CC000B4FE0DC0FB2DF460BF2E09C034FE0AC067
:101CD000292F2660B22E06C028E030E005C020E1A2
:101CE00030E002C020E132E0F801B7FE07C06081B9
:101CF0007181828193810C5F1F4F06C06081718169
:101D000080E090E00E5F1F4FA3010E94690F882EB4
:101D10008618FB2DFF773F2E36FE0DC0232D2E7F1C
:101D2000A22E891458F434FE0BC032FC09C0832D56
:101D30008E7EA82E05C0B82CA32C03C0B82C01C0E1
:101D4000B92CA4FE0FC0FE01E80DF11D8081803387
:101D500021F49A2D997EA92E09C0A2FE06C0B39443
:101D6000B39404C08A2D867809F0B394A3FC11C003
:101D7000A0FE06C0B21488F4280C922C9B180EC04A
:101D8000B21460F4B60180E290E00E942D0FB3948B
:101D9000F7CFB21418F42B1802C0982C212CA4FEF3
:101DA00010C0B60180E390E00E942D0FA2FE17C084
:101DB000A1FC03C088E790E002C088E590E0B6018E
:101DC0000CC08A2D867859F0A1FE02C08BE201C0BA
:101DD00080E2A7FC8DE2B60190E00E942D0F8914ED
:101DE00038F4B60180E390E00E942D0F9A94F7CF6B
:101DF0008A94F301E80DF11D8081B60190E00E9404
:101E00002D0F8110F5CF222009F442CEB60180E2D9
:101E100090E00E942D0F2A94F6CFF60186819781DB
:101E200002C08FEF9FEF2B96E2E10C94E30FFC01D1
:101E30000590615070400110D8F7809590958E0FF5
:101E40009F1F0895FC016150704001900110D8F768
:101E5000809590958E0F9F1F08950F931F93CF939A
:101E6000DF93FB01238121FD03C08FEF9FEF2CC087
:101E700022FF16C0468157812481358142175307BE
:101E800044F4A081B1819D012F5F3F4F31832083B6
:101E90008C93268137812F5F3F4F3783268314C071
:101EA0008B01EC01FB010084F185E02D0995892B64
:101EB000E1F6D80116968D919C9117970196179689
:101EC0009C938E931697CE01DF91CF911F910F9126
:101ED0000895FA01AA27283051F1203181F1E894C0
:101EE0006F936E7F6E5F7F4F8F4F9F4FAF4FB1E00D
:101EF0003ED0B4E03CD0670F781F891F9A1FA11D08
:101F0000680F791F8A1F911DA11D6A0F711D811D08
:101F1000911DA11D20D009F468943F912AE0269FCD
:101F200011243019305D3193DEF6CF010895462F2C
:101F30004770405D4193B3E00FD0C9F7F6CF462F0D
:101F40004F70405D4A3318F0495D31FD4052419376
:101F500002D0A9F7EACFB4E0A69597958795779533
:101F60006795BA95C9F700976105710508959B01BA
:101F7000AC010A2E06945795479537952795BA9543
:101F8000C9F7620F731F841F951FA01D08952F921C
:101F90003F924F925F926F927F928F929F92AF92F9
:101FA000BF92CF92DF92EF92FF920F931F93CF9346
:101FB000DF93CDB7DEB7CA1BDB0B0FB6F894DEBFDD
:101FC0000FBECDBF09942A88398848885F846E8403
:101FD0007D848C849B84AA84B984C884DF80EE804D
:101FE000FD800C811B81AA81B981CE0FD11D0FB656
:101FF000F894DEBF0FBECDBFED010895F894FFCF7A
:1020000004140001313233343530040E0E0E1F003B
:10201000040043757272656E742074656D703A20A9
:1020200000506C656173652063686F6F73650A7437
:10203000686520726571756972656420746D7000E1
:1020400020202020436F6E74726F6C730A31282B2E
:10205000292032282D2920332873657429004D69E1
:102060006E3A3138202564204D61783A3335005777
:10207000656C636F6D650A204861636B6572202033
:102080004B65726D697400202020414320436F6EC0
:1020900074726F6C0A64656661756C742074656D2A
:1020A000703A2032300025640052657365742074E4
:1020B0006F2064656661756C7420202054656D70B6
:0620C0003A20323000005E
:00000001FF
