:100000000C942A000C9447000C9447000C94470071
:100010000C943D0A0C94F5090C9447000C9447008D
:100020000C9447000C9447000C9447000C94470034
:100030000C9447000C945D0C0C94940C0C94CB0C19
:100040000C9447000C9447000C9447000C94470014
:100050000C94470011241FBECFE5D8E0DEBFCDBF12
:1000600011E0A0E6B0E0ECE3FFE102C005900D92E4
:10007000A23EB107D9F722E0A2EEB1E001C01D9285
:10008000AF32B207E1F70E9496040C949C0F0C94D7
:100090000000CF93DF93CDB7DEB741E061E080E0B1
:1000A0000E94A30481E00E9475070E9426070E9417
:1000B0000D0B0E9464030000DF91CF910895CF9350
:1000C000DF93CDB7DEB70E948600813019F482E05D
:1000D0008093E2018091E201882F90E081309105C8
:1000E00059F08230910571F0892B79F40E944A0110
:1000F00081E08093E20109C00E948B0282E080933C
:10010000E20103C00E941C010000E4CFCF93DF9303
:1001100000D000D000D0CDB7DEB781E089831B824C
:100120001A821D821C821E8280E090E00E945A0486
:100130009B838A8321C08A819B81FC0180818033DB
:1001400030F08A819B81FC0180818A3310F0198212
:1001500019C08E81882F90E02A813B81F90120818E
:100160008D519E4FFC0120838A819B8101969B8348
:100170008A838E818F5F8E838A819B81FC0180813F
:100180008823C9F68E81882F90E08D519E4FFC0107
:1001900010828E81803118F08E81843108F01982AE
:1001A0008981882311F489813EC08E818093060263
:1001B0001E8288E190E00E945A049D838C8321C0B6
:1001C0008C819D81FC018081803330F08C819D8108
:1001D000FC0180818A3310F0198219C08E81882F2A
:1001E00090E02C813D81F901208184509E4FFC01DB
:1001F00020838C819D8101969D838C838E818F5F6E
:100200008E838C819D81FC0180818823C9F68E813B
:10021000882F90E084509E4FFC0110828E818430A4
:1002200009F01982898126960FB6F894DEBF0FBEB9
:10023000CDBFDF91CF910895CF93DF931F92CDB7BC
:10024000DEB719821CC081E690E00E94320CCE011C
:1002500001960E94940B8981882F90E0813391054B
:1002600019F0C29729F007C081E08093E20107C02E
:100270001092E20104C08EEA90E00E94320C898163
:10028000813319F089818233F1F600000F90DF91FC
:10029000CF910895CF93DF93CDB7DEB72F970FB6E9
:1002A000F894DEBF0FBECDBF19821A821B822AE0EE
:1002B000CE010596FC01322F11923A95E9F71F867F
:1002C0001C8264C049E150E060E070E083EE91E0A0
:1002D0000E948C0F1B8281E089838CEC90E00E944D
:1002E000320C1F861C820FC0CE010F960E94940B09
:1002F0008C81882F90E02F858D519E4FFC012083AB
:100300008C818F5F8C838F858D3071F78C81882FE6
:1003100090E001978D519E4FFC0110821C8218C005
:100320008C81882F90E08D519E4FFC01808180331D
:1003300048F08C81882F90E08D519E4FFC01808188
:100340008A3318F081E08B830CC08C818F5F8C83A3
:100350008C81882F90E08D519E4FFC0180818823F5
:10036000F9F68B81813031F486EE90E00E94320CF8
:1003700019820CC08C81803118F08C81843130F06E
:1003800083E091E00E94320C198200008981882369
:1003900009F498CF8C818093060263EE71E080E0CF
:1003A00090E00E94070487E291E00E94320C9FC017
:1003B0004AE050E060E070E08CEF91E00E948C0F2A
:1003C000CE0105964AE050E060E070E00E948C0F9C
:1003D0001B8281E08A8384E591E00E94320C1F86B3
:1003E0001C820FC0CE010F960E94940B8C81882F27
:1003F00090E02F8584509E4FFC0120838C818F5F7D
:100400008C838F858D3071F78C81882F90E00197D8
:1004100084509E4FFC0110828BE691E00E94320CCA
:100420001F861C8212C0CE010F960E94940B8C81F5
:10043000882F90E04F859E012B5F3F4F820F931FC7
:10044000FC0140838C818F5F8C838F858D3059F7C1
:100450008C81882F90E001979E012B5F3F4F820F88
:10046000931FFC011082CE010596BC018CEF91E038
:100470000E94930F892B31F084E891E00E94320CA6
:100480001A8235C01C8218C08C81882F90E084505D
:100490009E4FFC018081803348F08C81882F90E052
:1004A00084509E4FFC0180818A3318F081E08B8359
:1004B0000CC08C818F5F8C838C81882F90E084505E
:1004C0009E4FFC0180818823F9F68B81813031F4C5
:1004D00084EA91E00E94320C1A8209C08C81843037
:1004E00031F082EC91E00E94320C1A8200008A8185
:1004F000882309F45DCF6CEF71E088E190E00E9401
:10050000070400002F960FB6F894DEBF0FBECDBFD4
:10051000DF91CF910895CF93DF931F92CDB7DEB7D0
:1005200081E089830FC00E94B40289838981882376
:1005300031F4809107028F5F8093070203C08981A5
:10054000813029F080910702833068F301C00000F8
:100550008981813011F40E94160310920702000075
:100560000F90DF91CF9108950F931F93CF93DF9357
:10057000CDB7DEB728970FB6F894DEBF0FBECDBF5C
:1005800081E089838DED8B8325E0CE010496FC010B
:10059000322F11923A95E9F741E061E080E00E9444
:1005A0009B0540E061E080E00E949B0500008B819C
:1005B0000E945807813CD9F78AE10E9458071A82A5
:1005C00014C08A8180560E9458078A81082F10E043
:1005D0008B810E945807282FCE010496800F911F0F
:1005E000FC0120838A818F5F8A838A81843048F36B
:1005F0001886CE010496BC018CEF91E00E94930F07
:10060000892B21F480EF0E94580704C085EF0E94D7
:1006100058071982898128960FB6F894DEBF0FBE5D
:10062000CDBFDF91CF911F910F910895CF93DF93AD
:1006300000D0CDB7DEB78DED8983000089810E949F
:100640005807833CD9F78AE10E9458070000898146
:100650000E945807843CD9F7809106020E945807EF
:10066000000089810E945807803AD9F71A821EC07B
:1006700089810E9458078A838A81803AB8F08A81EA
:10068000282F30E080910602882F90E081569F4FFE
:10069000821793075CF08A81882F90E0805A910935
:1006A0008D519E4FFC0180810E94580789810E94D4
:1006B0005807803FE9F68AE10E94580700000F9032
:1006C0000F90DF91CF910895CF93DF93CDB7DEB731
:1006D0000E948E0A0000DF91CF910895CF93DF939F
:1006E00000D01F92CDB7DEB79A8389836B830E94B7
:1006F000A90A0E94FD0A883011F080E02AC080EA31
:100700000E94CA0A0E94FD0A883111F080E021C0CF
:1007100089819A81892F99270E94CA0A0E94FD0A1D
:10072000883211F080E015C089810E94CA0A0E94B7
:10073000FD0A883211F080E00CC08B810E94CA0A49
:100740000E94FD0A883211F080E003C00E94BD0AB9
:1007500081E00F900F900F90DF91CF910895CF938C
:10076000DF9300D000D0CDB7DEB79A8389837C8336
:100770006B830E94A90A0E94FD0A883011F080E074
:100780003FC080EA0E94CA0A0E94FD0A883111F027
:1007900080E036C089819A81892F99270E94CA0AF0
:1007A0000E94FD0A883211F080E02AC089810E94EF
:1007B000CA0A0E94FD0A883211F080E021C00E941E
:1007C000A90A0E94FD0A803111F080E019C081EA77
:1007D0000E94CA0A0E94FD0A803411F080E010C015
:1007E0000E94E60A282F8B819C81FC0120830E94B5
:1007F000FD0A883511F080E003C00E94BD0A81E047
:100800000F900F900F900F90DF91CF910895CF939D
:10081000DF93CDB7DEB728970FB6F894DEBF0FBED3
:10082000CDBF9E838D8378876F8319821C828D81D3
:100830009E819B838A8320C0898191E0980F998350
:10084000882F90E02F813885820F931FFC01408113
:100850008A819B819C012F5F3F4F3B832A83642FBA
:100860000E946E038C838AE090E00E94C7078C810F
:10087000882311F480E015C08981882F90E02F81B2
:100880003885820F931FFC0180818823A9F68A8115
:100890009B8160E00E946E038AE090E00E94C7079F
:1008A00081E028960FB6F894DEBF0FBECDBFDF9172
:1008B000CF910895CF93DF9300D01F92CDB7DEB7CD
:1008C0009B838A8319828981882F90E09C01285F0D
:1008D0003D4F8A819B81B9010E94AF038AE090E07D
:1008E0000E94C7078A819B8101969B838A838981A5
:1008F0008F5F89838981882F90E00197885F9D4F62
:10090000FC018081882319F089818331E1F6898196
:10091000882F90E0885F9D4FFC01108288E092E074
:100920000F900F900F90DF91CF910895CF93DF93A9
:10093000CDB7DEB70E9449000E945F0080E090E0E2
:10094000DF91CF910895CF93DF9300D01F92CDB761
:10095000DEB789836A834B838981883010F081E018
:10096000E4C08A81882F90E08130910509F441C06C
:10097000823091051CF4892B49F0D4C08230910556
:1009800009F46AC0039709F49AC0CCC08B81813006
:10099000A9F48AE390E02AE330E0F9012081622F94
:1009A0002981422F50E021E030E002C0220F331FA6
:1009B0004A95E2F7262BFC012083B6C08B81882361
:1009C000B1F48AE390E02AE330E0F9012081622F5C
:1009D0002981422F50E021E030E002C0220F331F76
:1009E0004A95E2F720952623FC0120839DC081E0F3
:1009F0009CC08B818130A9F487E390E027E330E04D
:100A0000F9012081622F2981422F50E021E030E05E
:100A100002C0220F331F4A95E2F7262BFC012083E8
:100A200083C08B818823B1F487E390E027E330E033
:100A3000F9012081622F2981422F50E021E030E02E
:100A400002C0220F331F4A95E2F720952623FC01AE
:100A500020836AC081E069C08B818130A9F484E37E
:100A600090E024E330E0F9012081622F2981422FB8
:100A700050E021E030E002C0220F331F4A95E2F738
:100A8000262BFC01208350C08B818823B1F484E3A2
:100A900090E024E330E0F9012081622F2981422F88
:100AA00050E021E030E002C0220F331F4A95E2F708
:100AB00020952623FC01208337C081E036C08B813E
:100AC0008130A9F481E390E021E330E0F901208155
:100AD000622F2981422F50E021E030E002C0220F36
:100AE000331F4A95E2F7262BFC0120831DC08B8122
:100AF0008823B1F481E390E021E330E0F901208123
:100B0000622F2981422F50E021E030E002C0220F05
:100B1000331F4A95E2F720952623FC01208304C069
:100B200081E003C081E001C080E00F900F900F9042
:100B3000DF91CF910895CF93DF9300D01F92CDB76F
:100B4000DEB789836A834B838981883010F081E026
:100B50000AC18A81882F90E08130910509F44BC049
:100B6000823091051CF4892B49F0FCC0823091053C
:100B700009F47EC0039709F4B8C0F4C08B818130BA
:100B800019F08B818823A1F58B818823C1F02BE399
:100B900030E08BE390E0FC0160818981482F50E0D8
:100BA00081E090E0A0E0B0E004C0880F991FAA1F88
:100BB000BB1F4A95D2F7862BF90180831BC02BE31C
:100BC00030E08BE390E0FC0160818981482F50E0A8
:100BD00081E090E0A0E0B0E004C0880F991FAA1F58
:100BE000BB1F4A95D2F780958623F901808302C006
:100BF00081E0B9C0B7C08B81813019F08B81882327
:100C0000A1F58B818823C1F028E330E088E390E0F0
:100C1000FC0160818981482F50E081E090E0A0E0F4
:100C2000B0E004C0880F991FAA1FBB1F4A95D2F7D6
:100C3000862BF90180831BC028E330E088E390E035
:100C4000FC0160818981482F50E081E090E0A0E0C4
:100C5000B0E004C0880F991FAA1FBB1F4A95D2F7A6
:100C600080958623F901808302C081E07CC07AC030
:100C70008B81813019F08B818823A1F58B818823AA
:100C8000C1F025E330E085E390E0FC0160818981DB
:100C9000482F50E081E090E0A0E0B0E004C0880F71
:100CA000991FAA1FBB1F4A95D2F7862BF901808393
:100CB0001BC025E330E085E390E0FC016081898181
:100CC000482F50E081E090E0A0E0B0E004C0880F41
:100CD000991FAA1FBB1F4A95D2F780958623F90159
:100CE000808302C081E03FC03DC08B81813019F01C
:100CF0008B818823A1F58B818823C1F022E330E02A
:100D000082E390E0FC0160818981482F50E081E01E
:100D100090E0A0E0B0E004C0880F991FAA1FBB1F9D
:100D20004A95D2F7862BF90180831BC022E330E07D
:100D300082E390E0FC0160818981482F50E081E0EE
:100D400090E0A0E0B0E004C0880F991FAA1FBB1F6D
:100D50004A95D2F780958623F901808302C081E00D
:100D600002C0000080E00F900F900F90DF91CF91B4
:100D70000895CF93DF9300D01F92CDB7DEB789835C
:100D80006A834B838B81882311F48FEF8B83898156
:100D9000882F90E081309105E9F0823091051CF4B4
:100DA000892B39F04AC08230910529F10397A1F1CE
:100DB00044C08AE390E02B81422F40952AE330E043
:100DC000F901208124234B813A813423232BFC0118
:100DD000208335C087E390E02B81422F409527E3A5
:100DE00030E0F901208124234B813A813423232BE5
:100DF000FC01208324C084E390E02B81422F4095A6
:100E000024E330E0F901208124234B813A8134230B
:100E1000232BFC01208313C081E390E02B81422F20
:100E2000409521E330E0F901208124234B813A8170
:100E30003423232BFC01208302C081E001C080E029
:100E40000F900F900F90DF91CF910895CF93DF9384
:100E5000CDB7DEB78DE290E02DE230E0F9012081E0
:100E60002F7DFC01208340EB60E081E00E94B90609
:100E700041E061E086E00E94A30441E061E080E09F
:100E80000E94A3048DE290E02DE230E0F901208180
:100E90002F7EFC0120838DE290E02DE230E0F9010D
:100EA00020812064FC0120830000DF91CF91089510
:100EB000CF93DF9300D0CDB7DEB78A838FE290E087
:100EC0002A81FC01208300008EE290E0FC018081F9
:100ED0008823D4F78FE290E0FC01808189838981A7
:100EE0000F900F90DF91CF910895CF93DF931F92D2
:100EF000CDB7DEB789838981882F90E0009719F0FC
:100F0000019741F13DC083E590E023E530E0F90130
:100F100020812F7BFC01208383E590E023E530E0F6
:100F2000F9012081277FFC0120838FE590E02FE5E8
:100F300030E0F90120812068FC01208389E590E000
:100F400029E530E0F90120812160FC012083109225
:100F5000600018C083E590E023E530E0F9012081CE
:100F60002F7BFC01208383E590E023E530E0F9014D
:100F70002081277FFC01208381E08093600002C0F4
:100F800081E001C080E00F90DF91CF9108950F9331
:100F90001F93CF93DF9300D000D000D0CDB7DEB742
:100FA0009E838D838091270290912802892B51F096
:100FB0008091270290912802FC018081813011F4F8
:100FC00081E00EC183E590E0FC0110828D819E815D
:100FD000CC01A0E0B0E0BC01CD010E942C0EDC01F0
:100FE000CB0120E030E04AE754E4BC01CD010E948F
:100FF0008B0DDC01CB0189839A83AB83BC832DEB02
:1010000037E346E85EE369817A818B819C810E94A7
:10101000860D88233CF502E510E029813A814B8159
:101020005C816DEB77E386E89EE30E94020DDC01B4
:10103000CB012DEB37E346E85AE3BC01CD010E941A
:101040008B0DDC01CB01BC01CD010E94FD0DDC014B
:10105000CB01F801808381E090E090931E028093A1
:101060001D0286C02DEB37E346E85EE369817A8195
:101070008B819C810E94860D882359F482E590E043
:10108000FC01108281E090E090931E0280931D028B
:101090006FC02DEB37E346E85EE369817A818B818F
:1010A0009C810E948B0DDC01CB01BC01CD010E9413
:1010B0006F0DDC01CB01BC01CD010E94FD0DDC01F7
:1010C000CB0190931E0280931D0202E510E08091F7
:1010D0001D0290911E02CC01A0E0B0E0BC01CD0148
:1010E0000E942C0EDC01CB0120E030E040E85FE301
:1010F000BC01CD010E94020DDC01CB012DEB37E3D9
:1011000046E85EE3BC01CD010E941F0FDC01CB016C
:101110009C01AD0169817A818B819C810E94020DC5
:10112000DC01CB012DEB37E346E85AE3BC01CD01EE
:101130000E948B0DDC01CB019C01AD0160E070E0F1
:1011400080E893E40E94020DDC01CB01BC01CD01DB
:101150000E94FD0DDC01CB01F801808382E590E067
:10116000FC018081882F90E09093220280932102DD
:101170001092200210921F0280E094E00E94FB086F
:1011800080916000813059F51DC0000088E590E035
:10119000FC018081882F90E081709927892BB1F321
:1011A00088E590E028E530E0F90120812160FC012C
:1011B000208380911F02909120020196909320023B
:1011C00080931F0220911D0230911E0280911F0208
:1011D0009091200282179307C0F20E94AF0980E02D
:1011E00026960FB6F894DEBF0FBECDBFDF91CF912C
:1011F0001F910F910895CF93DF9300D0CDB7DEB745
:101200009A83898389819A818034910509F44BC03E
:101210008134910530F48130910569F0089739F1F6
:1012200096C0811521E0920709F459C081159440B8
:1012300009F471C08CC083E590E023E530E0F9014A
:1012400020812D7FFC01208383E590E023E530E0C1
:10125000F90120812B7FFC01208383E590E023E5C9
:1012600030E0F90120812160FC01208372C083E518
:1012700090E023E530E0F90120812E7FFC012083FE
:1012800083E590E023E530E0F90120812B7FFC012C
:10129000208383E590E023E530E0F901208122609E
:1012A000FC01208356C083E590E023E530E0F9019E
:1012B00020812B7FFC01208383E590E023E530E053
:1012C000F90120812260FC01208383E590E023E581
:1012D00030E0F90120812160FC0120833AC083E5E0
:1012E00090E023E530E0F90120812D7FFC0120838F
:1012F00083E590E023E530E0F90120812E7FFC01B9
:10130000208383E590E023E530E0F901208124602B
:10131000FC0120831EC083E590E023E530E0F90165
:1013200020812D7FFC01208383E590E023E530E0E0
:10133000F90120812460FC01208383E590E023E50E
:1013400030E0F90120812160FC01208302C081E0AE
:1013500001C080E00F900F90DF91CF910895CF935F
:10136000DF93CDB7DEB783E590E023E530E0F90108
:1013700020812E7FFC01208383E590E023E530E08F
:10138000F90120812D7FFC01208383E590E023E596
:1013900030E0F90120812B7FFC0120830000DF91E8
:1013A000CF910895CF93DF93CDB7DEB785E490E07A
:1013B00025E430E0F90120812E7FFC01208385E4C3
:1013C00090E025E430E0F90120812D7FFC012083AD
:1013D00085E490E025E430E0F90120812B7FFC01D9
:1013E00020830000DF91CF9108951F920F9200900B
:1013F0005F000F9211242F933F934F935F936F934E
:101400007F938F939F93AF93BF93EF93FF93CF936C
:10141000DF93CDB7DEB7809123029091240201962D
:10142000909324028093230220912302309124027E
:1014300080912502909126022817390748F01092D2
:1014400024021092230281E080931C020E94D209A0
:101450000000DF91CF91FF91EF91BF91AF919F91EC
:101460008F917F916F915F914F913F912F910F904D
:1014700000925F000F901F9018951F920F9200909E
:101480005F000F9211242F933F934F935F936F93BD
:101490007F938F939F93AF93BF93EF93FF93CF93DC
:1014A000DF93CDB7DEB780911F02909120020196A5
:1014B0009093200280931F0220911F0230912002FE
:1014C00080911D0290911E022817390790F010920A
:1014D000200210921F0281E080931C020E94AF093B
:1014E00089E590E029E530E0F90120812E7FFC01BB
:1014F00020830000DF91CF91FF91EF91BF91AF91D9
:101500009F918F917F916F915F914F913F912F911B
:101510000F9000925F000F901F901895CF93DF936C
:10152000CDB7DEB780E290E022E0FC01208381E2CB
:1015300090E0FC01108282E290E022E0FC01208336
:1015400086E590E024E0FC0120830000DF91CF914C
:101550000895CF93DF93CDB7DEB786E590E024EA18
:10156000FC012083000086E590E0FC018081882357
:10157000D4F70000DF91CF910895CF93DF93CDB7DB
:10158000DEB786E590E024E9FC0120830000DF91CE
:10159000CF910895CF93DF931F92CDB7DEB78983A4
:1015A00083E290E02981FC01208386E590E024E835
:1015B000FC012083000086E590E0FC018081882307
:1015C000D4F700000F90DF91CF910895CF93DF9370
:1015D000CDB7DEB786E590E024E8FC01208300006B
:1015E00086E590E0FC0180818823D4F783E290E0D7
:1015F000FC018081DF91CF910895CF93DF931F92FB
:10160000CDB7DEB781E290E0FC018081887F8983DD
:1016100089810F90DF91CF910895CF93DF931F922F
:10162000CDB7DEB780E8898389818F7B8983898103
:101630008E7F898300008BE290E02BE230E0F9019D
:1016400020812D7FFC01208389E290E02CE030E0B6
:10165000FC01208380E490E02CE030E0232F33274E
:10166000FC01208300008BE290E02BE230E0F901E6
:1016700020812E7FFC01208300008AE290E02AE294
:1016800030E0F90120812F77FC01208300008AE2FD
:1016900090E02AE230E0F90120812F7BFC012083D9
:1016A00000008AE290E02AE230E0F90120812F7DFB
:1016B000FC012083000089818F7E898389818F7D51
:1016C000898300008981877F898300008981826006
:1016D00089838981846089838AE290E02AE230E00C
:1016E000F90120812B7FFC012083000080E490E041
:1016F0002981FC0120838AE290E02AE230E0F901AE
:1017000020812061FC01208300008AE290E02AE22F
:1017100030E0F90120812860FC01208300000000F6
:101720000F90DF91CF910895CF93DF9300D01F9258
:10173000CDB7DEB79B838A8381E089838A819B81D1
:10174000892BC9F000008BE290E0FC0180818823A6
:10175000D4F78BE290E02BE230E0F90120812068A1
:10176000FC0120838CE290E0FC0120818A819B8136
:10177000FC01208301C0198289810F900F900F9086
:10178000DF91CF910895CF93DF9300D000D01F92C7
:10179000CDB7DEB78C836D8381E089838C81833004
:1017A00008F056C08C81882F90E0009721F00297B6
:1017B00009F447C04EC01B821A8205C08A819B81F2
:1017C00001969B838A838BE290E0FC018081882FC5
:1017D00090E0807299279595879595958795959531
:1017E00087959595879595958795892B29F48A8175
:1017F0009B818035934C10F38BE290E0FC0180815B
:10180000882F90E080729927959587959595879573
:10181000959587959595879595958795892B79F0D9
:101820008BE290E02BE230E0F90120812062FC01A4
:1018300020838CE290E02D81FC0120830AC0198274
:1018400008C08CE290E02D81FC012083000001C0E3
:10185000198289810F900F900F900F900F90DF9158
:10186000CF910895CF93DF9300D01F92CDB7DEB70D
:101870009B838A8381E089838A819B81892BA9F05C
:101880000DC08A819B81FC018081682F80E00E94CD
:10189000C30B8A819B8101969B838A838A819B816A
:1018A000FC018081882369F701C0198289810F902A
:1018B0000F900F90DF91CF9108951F920F9200909B
:1018C0005F000F9211242F933F934F935F936F9379
:1018D0007F938F939F93AF93BF93EF93FF93CF9398
:1018E000DF93CDB7DEB78091290290912A02892B30
:1018F00031F08091290290912A02FC0109950000A3
:10190000DF91CF91FF91EF91BF91AF919F918F9117
:101910007F916F915F914F913F912F910F90009226
:101920005F000F901F9018951F920F9200905F001C
:101930000F9211242F933F934F935F936F937F9355
:101940008F939F93AF93BF93EF93FF93CF93DF93C7
:10195000CDB7DEB780912B0290912C02892B31F00C
:1019600080912B0290912C02FC0109950000DF91DF
:10197000CF91FF91EF91BF91AF919F918F917F9107
:101980006F915F914F913F912F910F9000925F0067
:101990000F901F9018951F920F9200905F000F926A
:1019A00011242F933F934F935F936F937F938F9364
:1019B0009F93AF93BF93EF93FF93CF93DF93CDB7F5
:1019C000DEB780912D0290912E02892B31F080910B
:1019D0002D0290912E02FC0109950000DF91CF911C
:1019E000FF91EF91BF91AF919F918F917F916F91F7
:1019F0005F914F913F912F910F9000925F000F9058
:101A00001F9018955058BB27AA270E941A0D0C94B6
:101A1000CD0E0E94BF0E38F00E94C60E20F039F4A1
:101A20009F3F19F426F40C94BC0E0EF4E095E7FBEE
:101A30000C948D0EE92F0E94DE0E58F3BA17620740
:101A400073078407950720F079F4A6F50C94180F16
:101A50000EF4E0950B2EBA2FA02D0B01B9019001C9
:101A60000C01CA01A0011124FF27591B99F0593F0D
:101A700050F4503E68F11A16F040A22F232F342F55
:101A80004427585FF3CF469537952795A795F040A3
:101A90005395C9F77EF41F16BA0B620B730B840BB8
:101AA000BAF09150A1F0FF0FBB1F661F771F881F70
:101AB000C2F70EC0BA0F621F731F841F48F48795C8
:101AC00077956795B795F7959E3F08F0B0CF9395BA
:101AD000880F08F09927EE0F9795879508950E9433
:101AE000000F90F09F3748F4911116F40C94190FE1
:101AF00060E070E080E89FE3089526F01B16611D0A
:101B0000711D811D0C94930E0C94AE0E0E94690EF3
:101B100008F481E008950E949F0D0C94CD0E0E9460
:101B2000C60E58F00E94BF0E40F029F45F3F29F026
:101B30000C948D0E51110C94190F0C94BC0E0E9434
:101B4000DE0E68F39923B1F3552391F3951B550BE2
:101B5000BB27AA2762177307840738F09F5F5F4F80
:101B6000220F331F441FAA1FA9F335D00E2E3AF0BF
:101B7000E0E832D091505040E695001CCAF72BD0D7
:101B8000FE2F29D0660F771F881FBB1F2617370728
:101B90004807AB07B0E809F0BB0B802DBF01FF275A
:101BA00093585F4F3AF09E3F510578F00C948D0E9C
:101BB0000C94190F5F3FE4F3983ED4F38695779524
:101BC0006795B795F7959F5FC9F7880F911D969513
:101BD000879597F90895E1E0660F771F881FBB1F6F
:101BE000621773078407BA0720F0621B730B840B1C
:101BF000BA0BEE1F88F7E09508950E94E60E88F074
:101C00009F5798F0B92F9927B751B0F0E1F0660FC0
:101C1000771F881F991F1AF0BA95C9F714C0B13001
:101C200091F00E94180FB1E008950C94180F672FDF
:101C3000782F8827B85F39F0B93FCCF38695779530
:101C40006795B395D9F73EF4909580957095619519
:101C50007F4F8F4F9F4F0895E89409C097FB3EF444
:101C600090958095709561957F4F8F4F9F4F9923E9
:101C7000A9F0F92F96E9BB279395F6958795779567
:101C80006795B795F111F8CFFAF4BB0F11F460FF27
:101C90001BC06F5F7F4F8F4F9F4F16C0882311F07F
:101CA00096E911C0772321F09EE8872F762F05C093
:101CB000662371F096E8862F70E060E02AF09A952E
:101CC000660F771F881FDAF7880F9695879597F923
:101CD0000895990F0008550FAA0BE0E8FEEF1616BD
:101CE0001706E807F907C0F012161306E407F50710
:101CF00098F0621B730B840B950B39F40A2661F084
:101D0000232B242B252B21F408950A2609F4A14026
:101D1000A6958FEF811D811D089597F99F6780E833
:101D200070E060E00895882371F4772321F09850E3
:101D3000872B762F07C0662311F499270DC0905189
:101D4000862B70E060E02AF09A95660F771F881F57
:101D5000DAF7880F9695879597F908959F3F31F0A8
:101D6000915020F4879577956795B795880F911DC9
:101D70009695879597F908959FEF80EC0895002434
:101D80000A941616170618060906089500240A94E0
:101D900012161306140605060895092E0394000C66
:101DA00011F4882352F0BB0F40F4BF2B11F460FFF5
:101DB00004C06F5F7F4F8F4F9F4F089557FD90581E
:101DC000440F551F59F05F3F71F04795880F97FBFF
:101DD000991F61F09F3F79F08795089512161306B9
:101DE0001406551FF2CF4695F1DF08C016161706E8
:101DF0001806991FF1CF869571056105089408951D
:101E00000E94E60EA0F0BEE7B91788F4BB279F3802
:101E100060F41616B11D672F782F8827985FF7CFCB
:101E2000869577956795B11D93959639C8F3089572
:101E3000E894BB2766277727CB0197F908950E947E
:101E4000320F0C94CD0E0E94BF0E38F00E94C60EC9
:101E500020F0952311F00C948D0E0C94BC0E1124DF
:101E60000C94190F0E94DE0E70F3959FC1F3950F2D
:101E700050E0551F629FF001729FBB27F00DB11D0E
:101E8000639FAA27F00DB11DAA1F649F6627B00D9E
:101E9000A11D661F829F2227B00DA11D621F739F87
:101EA000B00DA11D621F839FA00D611D221F749F95
:101EB0003327A00D611D231F849F600D211D822FDC
:101EC000762F6A2F11249F5750409AF0F1F0882303
:101ED0004AF0EE0FFF1FBB1F661F771F881F915030
:101EE0005040A9F79E3F510580F00C948D0E0C9444
:101EF000190F5F3FE4F3983ED4F386957795679585
:101F0000B795F795E7959F5FC1F7FE2B880F911D59
:101F10009695879597F90895DC0101C06D9341501E
:101F20005040E0F70895FB01DC018D91019080198C
:0C1F30000110D9F3990B0895F894FFCF2D
:101F3C00010D0D506C656173652063686F6F73657F
:101F4C003A0D28312920466F722055736572204D49
:101F5C006F64650D28322920466F722050726F67AE
:101F6C0072616D6D696E67204D6F64650D0D3C3C43
:101F7C0020596F757220496E7075743A20000D0DE2
:101F8C003E3E2057726F6E6720496E7075742C2020
:101F9C0054727920416761696E0D0D000D0D506C06
:101FAC006561736520456E746572204361726420AF
:101FBC0050414E3A20003E3E2057726F6E672050C3
:101FCC00414E205B4E6F6E204E756D657269635D80
:101FDC000A0D003E3E2057726F6E672050414E2016
:101FEC005B4E6F7420696E2076616C69642072613F
:101FFC006E67655D0A0D000D20202020202020201A
:10200C0020203C3C3C3C3C3C3C3C3C3C3C3E3E3E36
:10201C003E3E3E3E3E3E3E202020202020202020E2
:10202C00200D0D00506C6561736520456E746572F2
:10203C00204E65772050494E3A2000506C656173F4
:10204C006520436F6E6669726D204E65772050492E
:10205C004E3A20003E3E2057726F6E672050494E1C
:10206C00205B4E6F6E204964656E746963616C5DB4
:10207C000A0D0D003E3E2057726F6E672050494E80
:10208C00205B4E6F6E204E756D657269635D0A0D37
:10209C000D003E3E2057726F6E672050494E205BFC
:1020AC004E6F742034204469676974735D0A0D0D9A
:0220BC00000022
:00000001FF
