S01900004C45442053657175656E63652056322E302E73726563D7
S11300000C942A000C9463010C948C010C94B5019B
S11300100C9447000C9447000C9447000C94470040
S11300200C9447000C9447000C9447000C94470030
S11300300C9447000C9447000C9447000C94470020
S11300400C9447000C9447000C9447000C94470010
S11300500C94470011241FBECFE5D8E0DEBFCDBF0E
S113006010E0A0E6B0E0E8ECF3E002C005900D92E9
S1130070A836B107D9F720E0A8E6B0E001C01D9288
S1130080AF36B207E1F70E94A3000C94E2010C948E
S11300900000809168008F5F80936800883011F4BD
S11300A01092680008950E9481000E94DE0169E4B4
S11300B070E080E00E94500162E080E00E94CF0086
S11300C00895CF93DF93CDB7DEB728970FB6F89492
S11300D0DEBF0FBECDBF88E0E0E6F0E0DE011196A2
S11300E001900D928A95E1F780916800E1E0F0E0DB
S11300F0EC0FFD1FE80FF11D60E080810E94840079
S1130100F3CF0E94AA0008956330C8F4613051F01F
S113011018F0623069F015C0682F80E00E94B500C5
S113012081E0089560E080E00E94B50081E00895D8
S1130130682F609580E00E94B50081E0089580E01A
S1130140089581E008950E9453000E94610080E0B8
S113015090E008958FE08ABB17BA14BA11BA1BBA9B
S113016018BA15BA84E082BB08958430A0F48130B3
S113017049F028F0823049F0833051F00EC06BBB57
S113018081E0089568BB81E0089565BB81E008952E
S113019062BB81E0089580E0089581E00895833092
S11301A008F072C0643008F071C0813081F120F031
S11301B0823009F457C06CC08BB780648BBF613048
S11301C071F028F0623099F06330C9F063C085B7EC
S11301D08E7F85BF85B78D7F85BF81E0089585B704
S11301E0816085BF85B78D7F85BF81E0089585B720
S11301F08E7F85BF85B7826085BF81E0089585B70E
S1130200816085BF85B7826085BF81E008958BB723
S113021080688BBF613071F028F0623099F06330F0
S1130220C9F03AC085B78B7F85BF85B7877F85BF07
S113023081E0089585B7846085BF85B7877F85BFD2
S113024081E0089585B78B7F85BF85B7886085BFBA
S113025081E0089585B7846085BF85B7886085BFD0
S113026081E008958BB780628BBF623019F06330F0
S113027031F014C084B78F7B84BF81E0089584B7C4
S1130280806484BF81E0089580E0089580E008954B
S113029081E0089581E0089581E0089581E0089562
S11302A0833068F46115710561F0E82FF0E0EE0F1A
S11302B0FF1FE759FF4F7183608381E0089580E059
S11302C0089580E008951F920F920FB60F921124A3
S11302D02F933F934F935F936F937F938F939F934A
S11302E0AF93BF93EF93FF93E0916900F0916A009D
S11302F0309709F00995FF91EF91BF91AF919F91CC
S11303008F917F916F915F914F913F912F910F90BA
S11303100FBE0F901F9018951F920F920FB60F9259
S113032011242F933F934F935F936F937F938F93F6
S11303309F93AF93BF93EF93FF93E0916B00F09182
S11303406C00309709F00995FF91EF91BF91AF913F
S11303509F918F917F916F915F914F913F912F91D9
S11303600F900FBE0F901F9018951F920F920FB60B
S11303700F9211242F933F934F935F936F937F9327
S11303808F939F93AF93BF93EF93FF93E0916D008F
S1130390F0916E00309709F00995FF91EF91BF91AC
S11303A0AF919F918F917F916F915F914F913F9109
S11303B02F910F900FBE0F901F9018958FB78068E4
S10B03C08FBF0895F894FFCFEC
S10B03C8000103070F0E0C08ED
S9030000FC
