S01900004C45442053657175656E63652056332E302E73726563D6
S11300000C942A000C94B2010C94DB010C940402AD
S11300100C94DB030C94F8030C9418040C94220441
S11300200C943F040C945C040C947D040C949A048A
S11300300C9447000C9447000C9447000C94470020
S11300400C9447000C9447000C9447000C94470010
S11300500C94470011241FBECFE5D8E0DEBFCDBF0E
S113006010E0A0E6B0E0EEE4FEE002C005900D92E0
S1130070AC37B107D9F720E0ACE7B0E001C01D927E
S1130080A239B207E1F70E94F2000C9425070C9400
S1130090000080917D008F5F80937D00883011F493
S11300A010927D00089580917C008F5F80937C0086
S11300B0853011F410927C0008950E94D8000E94AB
S11300C02D0269E470E080E00E949F0162E080E01C
S11300D00E941E0163E570E081E00E949F0162E0DE
S11300E081E00E941E010E9431020895CF93DF93A4
S11300F0CDB7DEB76C970FB6F894DEBF0FBECDBF99
S113010088E0E0E6F0E0DE01119601900D928A9518
S1130110E1F78AE0E8E6F0E0DE01199601900D923D
S11301208A95E1F78AE0E2E7F0E0DE015396019078
S11301300D928A95E1F780917D00E1E0F0E0EC0F0B
S1130140FD1FE80FF11D60E080810E94DB00E0915B
S11301507C00F0E0EE0FFF1F81E090E08C0F9D1F0C
S1130160E80FF91F4085518560E070E080E00E944F
S1130170280380917D00E1E0F0E0EC0FFD1FE80F23
S1130180F11D61E080810E94DB00E0917C00F0E0E1
S1130190EE0FFF1F81E090E08C0F9D1FE80FF91F09
S11301A04289538960E070E080E00E942803C3CF55
S11301B00E94F9000895623088F4662319F06130D2
S11301C039F00EC0682F80E00E94040181E0089598
S11301D060E080E00E94040181E0089580E00895D9
S11301E081E008950E945D000E94760080E090E026
S11301F008958FE08ABB17BA14BA11BA1BBA18BA99
S113020015BA8CE082BB08958430A0F4813049F0A3
S113021028F0823049F0833051F00EC06BBB81E08E
S1130220089568BB81E0089565BB81E0089562BBD1
S113023081E0089580E0089581E00895833008F016
S113024072C0643008F071C0813081F120F08230D6
S113025009F457C06CC08BB780648BBF613071F0F8
S113026028F0623099F06330C9F063C085B78E7F9F
S113027085BF85B78D7F85BF81E0089585B781608F
S113028085BF85B78D7F85BF81E0089585B78E7F53
S113029085BF85B7826085BF81E0089585B7816099
S11302A085BF85B7826085BF81E008958BB780687C
S11302B08BBF613071F028F0623099F06330C9F07F
S11302C03AC085B78B7F85BF85B7877F85BF81E0BF
S11302D0089585B7846085BF85B7877F85BF81E032
S11302E0089585B78B7F85BF85B7886085BF81E01A
S11302F0089585B7846085BF85B7886085BF81E030
S113030008958BB780628BBF623019F0633031F08F
S113031014C084B78F7B84BF81E0089584B7806460
S113032084BF81E0089580E0089580E0089581E02D
S1130330089581E0089581E0089581E0089583306F
S113034068F46115710561F0E82FF0E0EE0FFF1F0E
S1130350E258FF4F7183608381E0089580E008953F
S113036080E008951F920F920FB60F9211242F93DD
S11303703F934F935F936F937F938F939F93AF9329
S1130380BF93EF93FF93E0917E00F0917F0030974D
S113039009F00995FF91EF91BF91AF919F918F91D2
S11303A07F916F915F914F913F912F910F900FBE6D
S11303B00F901F9018951F920F920FB60F92112451
S11303C02F933F934F935F936F937F938F939F9359
S11303D0AF93BF93EF93FF93E0918000F09181007E
S11303E0309709F00995FF91EF91BF91AF919F91DB
S11303F08F917F916F915F914F913F912F910F90CA
S11304000FBE0F901F9018951F920F920FB60F9268
S113041011242F933F934F935F936F937F938F9305
S11304209F93AF93BF93EF93FF93E0918200F0917A
S11304308300309709F00995FF91EF91BF91AF9137
S11304409F918F917F916F915F914F913F912F91E8
S11304500F900FBE0F901F9018958FB780688FBFB5
S1130460089583B78F7B83BF83B7877F83BF83B7A9
S11304708F7E83BF83B78F7D83BF89B78D7F89BF0D
S113048089B78E7F89BF1CBE12BE83B7816083BFCC
S113049083B78D7F83BF83B78B7F83BF08958330FA
S11304A0F8F4813079F018F08230B1F01BC083B7D2
S11304B0816083BF83B78D7F83BF83B78B7F83BF07
S11304C081E008951BBC1ABC19BC18BC17BC16BC2F
S11304D01DBC1CBC81E0089513BC14BC81E00895CC
S11304E080E0089581E00895833008F061C0813090
S11304F0F9F020F0823009F441C05CC083B78F7EEC
S113050083BF83B78F7D83BF83B78E7F83BF83B75A
S11305108D7F83BF83B78B7F83BF88B7816088BF9C
S11305201CBE12BE10928D0010928C0081E00895C2
S11305308FB58F7B8FBD8FB58F778FBD8FB58F7E36
S11305408FBD8FB58F7D8FBD8EB58E7F8EBD8EB5E1
S11305508D7F8EBD8EB58B7F8EBD88B7846088BF3E
S113056017BC16BC1BBC1ABC19BC18BC1DBC1CBCDB
S113057010928F0010928E0081E0089585B58F7ED1
S113058085BD85B58F7D85BD85B58E7F85BD85B5DA
S11305908D7F85BD85B58B7F85BD88B7806488BF19
S11305A013BC14BC109291001092900081E0089545
S11305B080E0089581E00895833048F56115710560
S11305C041F1813051F018F0823091F024C088B7A5
S11305D08170FB01808381E0089588B7847090E086
S11305E09595879595958795FB01808381E008957E
S11305F088B7807490E0082E892F000C881F990B0F
S1130600000C881F991FFB01808381E0089580E01E
S1130610089580E0089581E008958330A8F481303E
S113062049F018F0823059F011C088B7816088BF52
S113063081E0089588B7846088BF81E0089588B711
S1130640806488BF81E0089580E0089581E0089582
S11306508F929F92AF92BF92CF92DF92EF92FF92CE
S11306601F93CF93DF9300D000D0CDB7DEB7833094
S113067008F090C06A017B01182F0E9474021111C6
S11306805EC0C701B6010E94CD056B017C012FE657
S113069032E143E85EE30E9427058823ACF4A70116
S11306A096016FE672E183E89EE30E94BA042FE6A6
S11306B032E143E85AE30E942C050E949E0562BF82
S11306C0812C912C540142C02FE632E143E85EE3D1
S11306D0C701B6010E947F068823ACF12FE632E100
S11306E043E85EE3C701B6010E942C05AE014F5FEB
S11306F05F4F0E9484066B017C0120E030E040E8FB
S11307005FE369817A818B819C810E94BB040E9492
S11307109E054B015C0120E030E040E853E4C70152
S1130720B6010E94B8069B01AC0160E070E080E86D
S113073093E40E94BA040E949E0562BF07C0812C04
S1130740912C540103C0812C912C5401812F0E94BF
S11307504F021982C12CD12C760112C0BE016F5FE9
S11307607F4F812F0E94DC0299819923B9F319826A
S11307708FEFC81AD80AE80AF80A812F0E940D03DD
S1130780C814D904EA04FB0478F3812F0E9474028C
S113079081E001C080E00F900F900F900F90DF91E7
S11307A0CF911F91FF90EF90DF90CF90BF90AF90CB
S11307B09F908F9008951F920F920FB60F9211245D
S11307C08F939F9380918A0090918B0001969093D0
S11307D08B0080938A00892B21F010928B00109259
S11307E08A009F918F910F900FBE0F901F901895C4
S11307F01F920F920FB60F9211248F939F93EF9332
S1130800FF93ECE8F0E084819581019695838483DD
S1130810892B29F014BC1092910010929000FF9142
S1130820EF919F918F910F900FBE0F901F9018958D
S11308301F920F920FB60F9211240F900FBE0F90BC
S11308401F9018951F920F920FB60F9211248F9339
S11308509F938091880090918900019690938900DC
S113086080938800892B21F01092890010928800CF
S11308709F918F910F900FBE0F901F9018951F920C
S11308800F920FB60F9211248F939F93809186003D
S11308909091870001969093870080938600892B1E
S11308A021F010928700109286009F918F910F90F3
S11308B00FBE0F901F9018951F920F920FB60F92B4
S11308C011248F939F93EF93FF93ECE8F0E08281E0
S11308D09381019693838283892B31F01DBC1CBCC8
S11308E010928F0010928E00FF91EF919F918F9143
S11308F00F900FBE0F901F9018951F920F920FB676
S11309000F9211248F939F9380918400909185007E
S113091001969093850080938400892B21F0109296
S11309208500109284009F918F910F900FBE0F90BD
S11309301F9018951F920F920FB60F9211248F9348
S11309409F93EF93FF93ECE8F0E08081918101960F
S113095091838083892B29F012BE10928D0010920E
S11309608C00FF91EF919F918F910F900FBE0F908C
S11309701F9018955058BB27AA270E94D2040C94A4
S113098045060E94370638F00E943E0620F039F4EE
S11309909F3F19F426F40C9434060EF4E095E7FB1B
S11309A00C942E06E92F0E94560658F3BA176207D4
S11309B073078407950720F079F4A6F50C9478065C
S11309C00EF4E0950B2EBA2FA02D0B01B901900166
S11309D00C01CA01A0011124FF27591B99F0593FAA
S11309E050F4503E68F11A16F040A22F232F342FF2
S11309F04427585FF3CF469537952795A795F04040
S1130A005395C9F77EF41F16BA0B620B730B840B54
S1130A10BAF09150A1F0FF0FBB1F661F771F881F0C
S1130A20C2F70EC0BA0F621F731F841F48F4879564
S1130A3077956795B795F7959E3F08F0B0CF939556
S1130A40880F08F09927EE0F9795879508950E94CF
S1130A500A0608F481E008950E9440050C944506B6
S1130A600E943E0658F00E94370640F029F45F3F8A
S1130A7029F00C942E0651110C9479060C9434062A
S1130A800E94560668F39923B1F3552391F3951BFD
S1130A90550BBB27AA2762177307840738F09F5F9B
S1130AA05F4F220F331F441FAA1FA9F335D00E2E08
S1130AB03AF0E0E832D091505040E695001CCAF775
S1130AC02BD0FE2F29D0660F771F881FBB1F261738
S1130AD037074807AB07B0E809F0BB0B802DBF010F
S1130AE0FF2793585F4F3AF09E3F510578F00C94DE
S1130AF02E060C9479065F3FE4F3983ED4F3869572
S1130B0077956795B795F7959F5FC9F7880F911DFE
S1130B109695879597F90895E1E0660F771F881FEA
S1130B20BB1F621773078407BA0720F0621B730B9D
S1130B30840BBA0BEE1F88F7E09508950E945E06B9
S1130B4088F09F5798F0B92F9927B751B0F0E1F08A
S1130B50660F771F881F991F1AF0BA95C9F714C03A
S1130B60B13091F00E947806B1E008950C947806B3
S1130B70672F782F8827B85F39F0B93FCCF3869573
S1130B8077956795B395D9F73EF4909580957095D0
S1130B9061957F4F8F4F9F4F0895E89409C097FB4D
S1130BA03EF490958095709561957F4F8F4F9F4F40
S1130BB09923A9F0F92F96E9BB279395F695879584
S1130BC077956795B795F111F8CFFAF4BB0F11F447
S1130BD060FF1BC06F5F7F4F8F4F9F4F16C08823EE
S1130BE011F096E911C0772321F09EE8872F762F24
S1130BF005C0662371F096E8862F70E060E02AF065
S1130C009A95660F771F881FDAF7880F9695879550
S1130C1097F90895990F0008550FAA0BE0E8FEEF25
S1130C2016161706E807F907C0F012161306E407AC
S1130C30F50798F0621B730B840B950B39F40A26A5
S1130C4061F0232B242B252B21F408950A2609F483
S1130C50A140A6958FEF811D811D089597F99F6787
S1130C6080E870E060E008959FEF80EC0895002430
S1130C700A941616170618060906089500240A94FD
S1130C8012161306140605060895092E0394000C83
S1130C9011F4882352F0BB0F40F4BF2B11F460FF12
S1130CA004C06F5F7F4F8F4F9F4F089557FD90583B
S1130CB0440F551F59F05F3F71F04795880F97FB1C
S1130CC0991F61F09F3F79F08795089512161306D6
S1130CD01406551FF2CF4695F1DF08C01616170605
S1130CE01806991FF1CF869571056105089408953A
S1130CF0E894BB2766277727CB0197F908950E94CC
S1130D000A0608F48FEF0895FA01DC01AA0FBB1F4D
S1130D109B01AC01BF5728F422273327442750787E
S1130D2020C0B75190F4AB2F0024469537952795F2
S1130D30011CA395D2F3002071F0220F331F441F2E
S1130D40B395DAF30ED00C94BA0461307105A0E8BF
S1130D508A07B94630F49B01AC01662777278827B8
S1130D609078309621F02083318342835383089511
S1130D700E94CB060C9445060E94370638F00E9468
S1130D803E0620F0952311F00C942E060C943406A4
S1130D9011240C9479060E94560670F3959FC1F3B2
S1130DA0950F50E0551F629FF001729FBB27F00D15
S1130DB0B11D639FAA27F00DB11DAA1F649F66276A
S1130DC0B00DA11D661F829F2227B00DA11D621FB9
S1130DD0739FB00DA11D621F839FA00D611D221F73
S1130DE0749F3327A00D611D231F849F600D211D57
S1130DF0822F762F6A2F11249F5750409AF0F1F0DA
S1130E0088234AF0EE0FFF1FBB1F661F771F881F42
S1130E1091505040A9F79E3F510580F00C942E0646
S1130E200C9479065F3FE4F3983ED4F38695779566
S1130E306795B795F795E7959F5FC1F7FE2B880FE8
S1110E40911D9695879597F90895F894FFCF24
S1130E4E000103070F0E0C086400C8002C01F40106
S10F0E5E200384032003BC02F401C8003C
S9030000FC
