:100000000C942A000C949C040C94CD040C94FE04D3
:100010000C9447000C9447000C9447000C94470044
:100020000C9447000C9447000C9444080C947E08F0
:100030000C9447000C9447000C9447000C94470024
:100040000C9447000C9447000C9447000C94470014
:100050000C94470011241FBECFE5D8E0DEBFCDBF12
:1000600010E0A0E6B0E0E8E4F6E102C005900D92F1
:10007000AC37B107D9F720E0ACE7B0E001C01D9282
:10008000AC38B207E1F70E94C3010C94220B0C9428
:10009000000080917D008F5F80937D00883011F497
:1000A00010927D00089580917C008F5F80937C008A
:1000B000853011F410927C00089560E080E00E9489
:1000C000700161E080E00E94700162E080E00E94C7
:1000D000700163E080E00E94700149E450E060E05C
:1000E00080E00E94F20043E550E060E081E00E9481
:1000F000F2000E9445050895CF93DF93CDB7DEB798
:100100006C970FB6F894DEBF0FBECDBF88E0E0E677
:10011000F0E0DE01119601900D928A95E1F78AE0F8
:10012000E8E6F0E0DE01199601900D928A95E1F77C
:100130008AE0E2E7F0E0DE01539601900D928A95A5
:10014000E1F780917D00E1E0F0E0EC0FFD1FE80FAA
:10015000F11D40E0608180E00E949101E0917C000F
:10016000F0E0EE0FFF1F81E090E08C0F9D1FE80F85
:10017000F91F4085518560E070E080E00E947F07B4
:1001800080917D00E1E0F0E0EC0FFD1FE80FF11D34
:1001900041E0608180E00E949101E0917C00F0E00C
:1001A000EE0FFF1F81E090E08C0F9D1FE80FF91FFD
:1001B0004289538960E070E080E00E947F07C1CFF0
:1001C000861302C081E0089580E00895681710F05A
:1001D00081E0089580E00895892B11F081E0089571
:1001E00080E008950F931F93CF93DF93C82FD62FEE
:1001F0008A0162E00E94E600882309F459C061E0A8
:100200008D2F0E94E600882309F454C0C8010E9483
:10021000EC00882309F450C00E942F05B8018C2FF0
:100220000E947C0460E08D2F0E94E0008823A1F1F1
:1002300060E08C2F0E94E000882359F040E062E0EB
:1002400083E00E94D60141E062E083E00E94A202C6
:100250001DC061E08C2F0E94E000882359F040E02F
:1002600063E083E00E94D60141E063E083E00E9406
:10027000A2020CC0882351F040E062E081E00E94BD
:10028000D60141E062E081E00E94A20262E08C2F90
:100290000E94BB0381E013C061E08D2F0E94E0004B
:1002A000882361F063E08C2F0E94BB0381E007C0CC
:1002B00080E005C080E003C080E001C081E0DF9104
:1002C000CF911F910F910895861302C081E0089588
:1002D00080E00895681710F081E0089580E00895A7
:1002E000CF93DF93C82FD62F63E00E946A01882343
:1002F00091F067E08D2F0E946A01882371F041E040
:100300006D2F8C2F0E94D60140E06D2F8C2F0E9404
:10031000A20281E003C080E001C080E0DF91CF91C4
:1003200008951F93CF93DF93D82F162FC42F63E028
:100330000E946A018823F1F061E08C2F0E946A011B
:100340008823D1F060E08C2F0E946401882331F073
:10035000612F8D2F0E946E0381E011C061E08C2F10
:100360000E946401882351F060E08D2F0E946E038B
:1003700081E005C080E003C080E001C081E0DF9142
:10038000CF911F9108950E945D000E947C0080E043
:1003900090E00895861302C081E0089580E00895FA
:1003A000681710F081E0089580E008951F93CF93BF
:1003B000DF93C82FD62F142F63E00E94D00188232B
:1003C00009F4B1C067E08D2F0E94D001882309F4A1
:1003D000ACC061E0812F0E94D001882309F4A7C03E
:1003E00060E0812F0E94CA01882309F44DC060E0BB
:1003F0008C2F0E94CA01882369F02AB381E090E023
:1004000002C0880F991FDA95E2F7809582238ABB94
:1004100081E094C061E08C2F0E94CA01882369F0BA
:1004200027B381E090E002C0880F991FDA95E2F7C8
:100430008095822387BB81E081C062E08C2F0E947F
:10044000CA01882369F024B381E090E002C0880FDC
:10045000991FDA95E2F78095822384BB81E06EC014
:1004600063E08C2F0E94CA01882309F462C021B383
:1004700081E090E002C0880F991FDA95E2F780953D
:10048000822381BB81E05AC061E0812F0E94CA01B2
:10049000882309F450C060E08C2F0E94CA01882391
:1004A00061F02AB381E090E002C0880F991FDA95CD
:1004B000E2F7822B8ABB81E041C061E08C2F0E9471
:1004C000CA01882361F027B381E090E002C0880F61
:1004D000991FDA95E2F7822B87BB81E02FC062E09B
:1004E0008C2F0E94CA01882361F024B381E090E040
:1004F00002C0880F991FDA95E2F7822B84BB81E056
:100500001DC063E08C2F0E94CA018823B1F021B383
:1005100081E090E002C0880F991FDA95E2F7822B04
:1005200081BB81E00BC080E009C080E007C080E0B3
:1005300005C081E003C081E001C081E0DF91CF917F
:100540001F9108951F93CF93DF93C82FD62F142F99
:1005500063E00E94D001882309F4B1C067E08D2FC9
:100560000E94D001882309F4ACC061E0812F0E9471
:10057000D001882309F4A7C060E0812F0E94CA013E
:10058000882309F44DC060E08C2F0E94CA018823A3
:1005900069F02BB381E090E002C0880F991FDA95D3
:1005A000E2F7809582238BBB81E094C061E08C2FC1
:1005B0000E94CA01882369F028B381E090E002C05C
:1005C000880F991FDA95E2F78095822388BB81E036
:1005D00081C062E08C2F0E94CA01882369F025B394
:1005E00081E090E002C0880F991FDA95E2F78095CC
:1005F000822385BB81E06EC063E08C2F0E94CA011C
:10060000882309F462C022B381E090E002C0880F21
:10061000991FDA95E2F78095822382BB81E05AC068
:1006200061E0812F0E94CA01882309F450C060E074
:100630008C2F0E94CA01882361F02BB381E090E0E7
:1006400002C0880F991FDA95E2F7822B8BBB81E0FD
:1006500041C061E08C2F0E94CA01882361F028B359
:1006600081E090E002C0880F991FDA95E2F7822BB3
:1006700088BB81E02FC062E08C2F0E94CA018823D2
:1006800061F025B381E090E002C0880F991FDA95F0
:10069000E2F7822B85BB81E01DC063E08C2F0E94B6
:1006A000CA018823B1F022B381E090E002C0880F34
:1006B000991FDA95E2F7822B82BB81E00BC080E0C4
:1006C00009C080E007C080E005C081E003C081E090
:1006D00001C081E0DF91CF911F910895CF93DF9307
:1006E000C82FD62F63E00E94D001882351F16FEF0D
:1006F0008D2F0E94D001882331F160E08C2F0E9461
:10070000CA01882319F0DBBB81E020C061E08C2F97
:100710000E94CA01882319F0D8BB81E017C062E0AB
:100720008C2F0E94CA01882319F0D5BB81E00EC02E
:1007300063E08C2F0E94CA01882339F0D2BB81E08C
:1007400005C080E003C080E001C081E0DF91CF916F
:100750000895861302C081E0089580E00895681727
:1007600010F081E0089580E00895892B11F081E078
:10077000089580E00895CF93DF93C82FD62F62E0CD
:100780000E94AF03882309F4A9C063E08D2F0E9463
:10079000AF03882309F4A4C060E08C2F0E94A90352
:1007A0008823E1F18BB780648BBF60E08D2F0E94BE
:1007B000A903882341F085B78E7F85BF85B78D7FDC
:1007C00085BF81E096C061E08D2F0E94A903882338
:1007D00041F085B7816085BF85B78D7F85BF81E09A
:1007E00088C062E08D2F0E94A903882341F085B75D
:1007F0008E7F85BF85B7826085BF81E07AC063E068
:100800008D2F0E94A903882309F46CC085B78160ED
:1008100085BF85B7826085BF81E06BC061E08C2FAA
:100820000E94A9038823D9F18BB780688BBF60E051
:100830008D2F0E94A903882341F085B78B7F85BF48
:1008400085B7877F85BF81E054C061E08D2F0E940E
:10085000A903882341F085B7846085BF85B7877F6A
:1008600085BF81E046C062E08D2F0E94A9038823E6
:1008700041F085B78B7F85BF85B7886085BF81E0F4
:1008800038C063E08D2F0E94A903882369F185B7E2
:10089000846085BF85B7886085BF81E02AC062E03B
:1008A0008C2F0E94A903882309F18BB780628BBF2C
:1008B00062E08D2F0E94A903882329F085B78F7BE2
:1008C00085BF81E016C063E08D2F0E94A9038823B5
:1008D00079F085B7806485BF81E00BC080E009C0F6
:1008E00080E007C081E005C081E003C081E001C075
:1008F00081E0DF91CF9108950F931F93CF93C82F7D
:100900008B0162E00E94AF03882379F0C8010E9446
:10091000B503882361F0EC2FF0E0EE0FFF1FE258E3
:10092000FF4F1183008381E003C080E001C080E0BD
:10093000CF911F910F9108951F920F920FB60F92B2
:1009400011242F933F934F935F936F937F938F93D4
:100950009F93AF93BF93CF93DF93EF93FF93C09198
:100960007E00D0917F00CE010E94B503882311F054
:10097000FE010995FF91EF91DF91CF91BF91AF916A
:100980009F918F917F916F915F914F913F912F91A7
:100990000F900FBE0F901F9018951F920F920FB6D9
:1009A0000F9211242F933F934F935F936F937F93F5
:1009B0008F939F93AF93BF93CF93DF93EF93FF9367
:1009C000C0918000D0918100CE010E94B5038823A0
:1009D00011F0FE010995FF91EF91DF91CF91BF9149
:1009E000AF919F918F917F916F915F914F913F91C7
:1009F0002F910F900FBE0F901F9018951F920F927E
:100A00000FB60F9211242F933F934F935F936F93E1
:100A10007F938F939F93AF93BF93CF93DF93EF9386
:100A2000FF93C0918200D0918300CE010E94B50354
:100A3000882311F0FE010995FF91EF91DF91CF918D
:100A4000BF91AF919F918F917F916F915F914F91E6
:100A50003F912F910F900FBE0F901F9018958FB759
:100A600080688FBF0895861302C081E0089580E0FA
:100A70000895681710F081E0089580E00895892BAB
:100A800011F081E0089580E00895CF9360E080E068
:100A90000E943305C82F882339F083B78F7B83BF2B
:100AA00083B7877F83BF26C061E080E00E94330563
:100AB000882339F083B7806483BF83B7877F83BF80
:100AC00019C062E080E00E943305882339F083B7C3
:100AD0008F7B83BF83B7886083BF0CC063E080E0F7
:100AE0000E943305882331F083B7806483BF83B7C6
:100AF000886083BFCC2339F083B78F7E83BF83B7F1
:100B00008F7D83BF26C061E080E00E94330588238B
:100B100039F083B7806183BF83B78F7D83BF19C0EE
:100B200062E080E00E943305882339F083B78F7E2E
:100B300083BF83B7806283BF0CC063E080E00E9404
:100B40003305882331F083B7806183BF83B7806228
:100B500083BFCC2339F089B78D7F89BF89B78E7F5A
:100B600089BF13C061E080E00E943305882321F033
:100B700089B7826089BF09C062E080E00E943305C6
:100B8000882319F089B7816089BF1CBE12BE60E05E
:100B900081E00E943305882351F083B78E7F83BFA5
:100BA00083B78D7F83BF83B78B7F83BF6FC061E0C7
:100BB00081E00E943305882351F083B7816083BFB1
:100BC00083B78D7F83BF83B78B7F83BF5FC062E0B6
:100BD00081E00E943305882351F083B78E7F83BF65
:100BE00083B7826083BF83B78B7F83BF4FC063E0CF
:100BF00081E00E943305882351F083B7816083BF71
:100C000083B7826083BF83B78B7F83BF3FC064E0BD
:100C100081E00E943305882351F083B78E7F83BF24
:100C200083B78D7F83BF83B7846083BF2FC065E0A8
:100C300081E00E943305882351F083B7816083BF30
:100C400083B78D7F83BF83B7846083BF1FC066E097
:100C500081E00E943305882351F083B78E7F83BFE4
:100C600083B7826083BF83B7846083BF0FC067E0B0
:100C700081E00E943305882349F083B7816083BFF8
:100C800083B7826083BF83B7846083BFCF910895A9
:100C9000CF93C82F62E00E943905882309F48FC0E2
:100CA00060E08C2F0E943305882309F48AC060E03D
:100CB00081E00E943305882359F083B78E7F83BF7C
:100CC00083B78D7F83BF83B78B7F83BF81E07CC079
:100CD00061E081E00E943305882359F083B7816089
:100CE00083BF83B78D7F83BF83B78B7F83BF81E053
:100CF0006BC062E081E00E943305882359F083B71E
:100D00008E7F83BF83B7826083BF83B78B7F83BFB0
:100D100081E05AC063E081E00E943305882359F0E6
:100D200083B7816083BF83B7826083BF83B78B7FC4
:100D300083BF81E049C064E081E00E9433058823DD
:100D400059F083B78E7F83BF83B78D7F83BF83B70F
:100D5000846083BF81E038C065E081E00E94330594
:100D6000882359F083B7816083BF83B78D7F83BFAA
:100D700083B7846083BF81E027C066E081E00E9482
:100D80003305882359F083B78E7F83BF83B7826092
:100D900083BF83B7846083BF81E016C067E081E0D2
:100DA0000E943305882379F083B7816083BF83B7BE
:100DB000826083BF83B7846083BF81E005C080E029
:100DC00003C081E001C081E0CF910895CF93C82F87
:100DD00062E00E943905882301F160E08C2F0E94B7
:100DE00033058823E1F083B78F7E83BF83B78F7D80
:100DF00083BF83B78E7F83BF83B78D7F83BF83B766
:100E00008B7F83BF88B7816088BF1CBE12BE1092E3
:100E100087001092860081E003C080E001C081E07D
:100E2000CF9108950F931F93CF93C82F8B0162E04A
:100E30000E943905882369F1C8010E943F05882373
:100E400051F160E08C2F0E943305882331F088B780
:100E50008170F801808381E021C061E08C2F0E94C5
:100E60003305882341F088B782FB882780F9F80191
:100E7000808381E013C062E08C2F0E9433058823B9
:100E800061F088B786FB882780F9F801808381E0CC
:100E900005C080E003C080E001C081E0CF911F91D8
:100EA0000F910895CF93C82F62E00E9439058823DF
:100EB00009F160E08C2F0E943305882329F088B760
:100EC000816088BF81E019C061E08C2F0E943305EA
:100ED000882329F088B7846088BF81E00EC062E073
:100EE0008C2F0E943305882339F088B7806488BF2F
:100EF00081E003C080E001C081E0CF9108958F922E
:100F00009F92AF92BF92CF92DF92EF92FF921F9388
:100F1000CF93DF9300D000D01F92CDB7DEB7182F4C
:100F20006A017B0119821A821B821C821D8262E087
:100F30000E943905882309F495C0812F0E94E60696
:100F400060E0812F0E943305882309F45FC0C70148
:100F5000B6010E94CA096B017C012FE632E143E829
:100F60005EE30E9424098823B4F4A70196016FE68A
:100F700072E183E89EE30E94B7082FE632E143E87E
:100F80005AE30E9429090E949B0962BF812C912C7F
:100F90005401839444C02FE632E143E85EE3C70185
:100FA000B6010E947C0A8823B4F12FE632E143E8BF
:100FB0005EE3C701B6010E942909AE014F5F5F4F92
:100FC0000E94810A6B017C0120E030E040E85FE391
:100FD00069817A818B819C810E94B8080E949B095B
:100FE0004B015C0120E030E040E853E4C701B6016A
:100FF0000E94B50A9B01AC0160E070E080E893E4D8
:101000000E94B7080E949B0962BF09C0812C912CE5
:101010005401839404C0812C912C54018394812F1A
:101020000E944806C12CD12C760112C0BE016B5F14
:101030007F4F812F0E9412078D818823B9F31D8273
:101040008FEFC81AD80AE80AF80A812F0E945207BF
:10105000C814D904EA04FB0478F3812F0E94E60641
:1010600081E001C080E00F900F900F900F900F90E3
:10107000DF91CF911F91FF90EF90DF90CF90BF90C5
:10108000AF909F908F9008951F920F920FB60F927E
:1010900011242F933F934F935F936F937F938F937D
:1010A0009F93AF93BF93EF93FF93809184009091B0
:1010B000850001969093850080938400892B69F0C8
:1010C000109285001092840080E090E00E943F051D
:1010D000882319F0E0E0F0E00995FF91EF91BF91CE
:1010E000AF919F918F917F916F915F914F913F91C0
:1010F0002F910F900FBE0F901F9018951F920F9277
:101100000FB60F9211242F933F934F935F936F93DA
:101110007F938F939F93AF93BF93EF93FF93E6E8F3
:10112000F0E080819181019691838083892B71F019
:1011300012BE109287001092860080E090E00E941C
:101140003F05882319F0E0E0F0E00995FF91EF9169
:10115000BF91AF919F918F917F916F915F914F91CF
:101160003F912F910F900FBE0F901F9018955058E0
:10117000BB27AA270E94CF080C94420A0E94340A77
:1011800038F00E943B0A20F039F49F3F19F426F40E
:101190000C94310A0EF4E095E7FB0C942B0AE92F2E
:1011A0000E94530A58F3BA1762077307840795071A
:1011B00020F079F4A6F50C94750A0EF4E0950B2E48
:1011C000BA2FA02D0B01B90190010C01CA01A00199
:1011D0001124FF27591B99F0593F50F4503E68F1F4
:1011E0001A16F040A22F232F342F4427585FF3CF35
:1011F000469537952795A795F0405395C9F77EF406
:101200001F16BA0B620B730B840BBAF09150A1F04E
:10121000FF0FBB1F661F771F881FC2F70EC0BA0FD4
:10122000621F731F841F48F4879577956795B7955C
:10123000F7959E3F08F0B0CF9395880F08F0992757
:10124000EE0F9795879508950E94070A08F481E0AC
:1012500008950E943D090C94420A0E943B0A58F0EE
:101260000E94340A40F029F45F3F29F00C942B0AC5
:1012700051110C94760A0C94310A0E94530A68F3B7
:101280009923B1F3552391F3951B550BBB27AA273F
:1012900062177307840738F09F5F5F4F220F331F79
:1012A000441FAA1FA9F335D00E2E3AF0E0E832D041
:1012B00091505040E695001CCAF72BD0FE2F29D044
:1012C000660F771F881FBB1F261737074807AB0716
:1012D000B0E809F0BB0B802DBF01FF2793585F4F8B
:1012E0003AF09E3F510578F00C942B0A0C94760A44
:1012F0005F3FE4F3983ED4F3869577956795B7956D
:10130000F7959F5FC9F7880F911D9695879597F977
:101310000895E1E0660F771F881FBB1F62177307F0
:101320008407BA0720F0621B730B840BBA0BEE1F05
:1013300088F7E09508950E945B0A88F09F5798F01F
:10134000B92F9927B751B0F0E1F0660F771F881FCA
:10135000991F1AF0BA95C9F714C0B13091F00E94E4
:10136000750AB1E008950C94750A672F782F8827C5
:10137000B85F39F0B93FCCF3869577956795B3950B
:10138000D9F73EF490958095709561957F4F8F4F7A
:101390009F4F0895E89409C097FB3EF4909580957F
:1013A000709561957F4F8F4F9F4F9923A9F0F92F2B
:1013B00096E9BB279395F695879577956795B795A9
:1013C000F111F8CFFAF4BB0F11F460FF1BC06F5F8F
:1013D0007F4F8F4F9F4F16C0882311F096E911C0A1
:1013E000772321F09EE8872F762F05C0662371F0C2
:1013F00096E8862F70E060E02AF09A95660F771FD6
:10140000881FDAF7880F9695879597F90895990FB1
:101410000008550FAA0BE0E8FEEF16161706E807BE
:10142000F907C0F012161306E407F50798F0621BDF
:10143000730B840B950B39F40A2661F0232B242BB4
:10144000252B21F408950A2609F4A140A6958FEFD3
:10145000811D811D089597F99F6780E870E060E025
:1014600008959FEF80EC089500240A94161617063D
:1014700018060906089500240A9412161306140685
:1014800005060895092E0394000C11F4882352F0E8
:10149000BB0F40F4BF2B11F460FF04C06F5F7F4FA0
:1014A0008F4F9F4F089557FD9058440F551F59F087
:1014B0005F3F71F04795880F97FB991F61F09F3F41
:1014C00079F087950895121613061406551FF2CF6A
:1014D0004695F1DF08C0161617061806991FF1CFBA
:1014E00086957105610508940895E894BB276627E1
:1014F0007727CB0197F908950E94070A08F48FEF28
:101500000895FA01DC01AA0FBB1F9B01AC01BF5774
:1015100028F4222733274427507820C0B75190F46D
:10152000AB2F0024469537952795011CA395D2F340
:10153000002071F0220F331F441FB395DAF30ED051
:101540000C94B70861307105A0E88A07B94630F4F9
:101550009B01AC016627772788279078309621F089
:10156000208331834283538308950E94C80A0C94D8
:10157000420A0E94340A38F00E943B0A20F0952368
:1015800011F00C942B0A0C94310A11240C94760A55
:101590000E94530A70F3959FC1F3950F50E0551FB9
:1015A000629FF001729FBB27F00DB11D639FAA27B8
:1015B000F00DB11DAA1F649F6627B00DA11D661F07
:1015C000829F2227B00DA11D621F739FB00DA11D28
:1015D000621F839FA00D611D221F749F3327A00DE2
:1015E000611D231F849F600D211D822F762F6A2F7E
:1015F00011249F5750409AF0F1F088234AF0EE0FE3
:10160000FF1FBB1F661F771F881F91505040A9F70F
:101610009E3F510580F00C942B0A0C94760A5F3F94
:10162000E4F3983ED4F3869577956795B795F7954B
:10163000E7959F5FC1F7FE2B880F911D96958795C3
:0816400097F90895F894FFCF1B
:10164800000103070F0E0C086400C8002C01F40108
:0C165800200384032003BC02F401C8003E
:00000001FF
